:020000040800F2
:1000000080060020A5010008691800083D160008B8
:1000100011170008F1020008691E00080000000026
:10002000000000000000000000000000851800082B
:10003000F3020008000000006B180008111B000804
:10004000BF010008BF010008BF010008BF01000890
:10005000BF010008BF010008BF010008BF01000880
:10006000BF010008BF010008BF010008BF01000870
:10007000BF010008BF010008BF010008BF01000860
:10008000BF010008BF010008BF010008BF01000850
:10009000BF010008BF010008BF010008BF01000840
:1000A000BF010008BF010008BF010008BF01000830
:1000B000BF010008BF010008BF010008BF01000820
:1000C000BF010008BF010008BF010008BF01000810
:1000D000BF0100085D1E0008BF010008BF01000845
:1000E000BF010008BF010008BF010008BF010008F0
:1000F000BF010008BF010008BF010008BF010008E0
:10010000BF010008BF010008BF010008BF010008CF
:10011000BF010008BF010008BF010008BF010008BF
:10012000BF010008BF010008BF010008BF010008AF
:10013000BF010008BF010008BF010008BF0100089F
:10014000BF010008BF010008BF010008BF0100088F
:10015000BF010008BF010008BF010008BF0100087F
:10016000BF010008BF010008BF010008BF0100086F
:10017000BF010008BF010008BF0100080000000027
:10018000BF010008BF010008DFF80CD000F09EF8A6
:1001900000480047F52100088006002080F3088809
:1001A000704700000648804706480047FEE7FEE724
:1001B000FEE7FEE7FEE7FEE7FEE7FEE7FEE7FEE717
:1001C000A91B0008890100082DE9F05F0546002001
:1001D00092469B4688460646814640241BE02846B8
:1001E00041464746224600F061F853465A46C01A37
:1001F000914110D311461846224600F048F82D1AB6
:1002000067EB01084F4622460120002100F03FF82D
:1002100017EB00094E41201EA4F10104DFDC484623
:1002200031462A464346BDE8F09F40EA01039B075A
:1002300003D009E008C9121F08C0042AFAD203E05B
:1002400011F8013B00F8013B521EF9D27047D2B2BF
:1002500001E000F8012B491EFBD270470022F6E7AF
:1002600010B513460A4604461946FFF7F0FF20462C
:1002700010BD10B54843044601F0E2FF002805D048
:100280000021002C02D0641E0155FAE710BD202A7F
:1002900004DB203A00FA02F1002070479140C2F1DD
:1002A000200320FA03F3194390407047202A04DB0F
:1002B000203A21FA02F00021704721FA02F3D040DF
:1002C000C2F120029140084319467047064C074D81
:1002D00006E0E06840F0010394E807009847103416
:1002E000AC42F6D3FFF754FFC4220008E422000812
:1002F000FEE7704772B6FEE7002229B101291AD045
:1003000002291BD04FF440720E490B6823F440734E
:100310000B600B6813430B600A6822F0F8020A6056
:100320000A68022303EBC00002430A60086840F435
:100330008030086070474FF48072E5E74FF4007238
:10034000E2E70000103C02401348016889050FD520
:10035000016821F400710160016841F400610160ED
:10036000016821F400610160016841F400710160DD
:10037000016849050FD5016821F4806101600168B9
:1003800041F480510160016821F4805101600168ED
:1003900041F4806101607047003C024008490A68EE
:1003A00022F440720A600A6842F004020A600A6895
:1003B0004FF4803343EA002002430A607047000094
:1003C000103C0240064A136823F44073136013681C
:1003D0001360136843F0010313600170704700005D
:1003E000103C0240094910B50C6824F440740C60BC
:1003F0000C6844F440740C600C6844F001040C6018
:100400000260BFF36F8F436010BD0000103C0240DC
:10041000074A136823F440731360136843F480732E
:100420001360136843F001031360018070470000FC
:10043000103C0240074A136823F4407313601368AA
:1004400043F400731360136843F001031360016009
:1004500070470000103C024017490868C206174860
:1004600005D5C26942F01002C26110220A600A6812
:10047000920605D5C26942F00802C26120220A60D4
:100480000A68520605D5C26942F00402C2614022E0
:100490000A600A68120605D5C26942F00202C2610A
:1004A00080220A600A68920705D5C26942F02002DC
:1004B000C2610220086070470C3C024060000020CE
:1004C00070B5114904460020C86100F0C7FA06461D
:1004D0000E4D09E0601C07D024B100F0BFFA801B6C
:1004E000A04201D9032070BD2868C003F2D4286857
:1004F000C00701D001202860286810F0F200F2D077
:10050000FFF7AAFF012070BD600000200C3C0240F4
:1005100070B586B000250E460446059500F090F9AA
:10052000204600F035F8044602900095304600F071
:100530002FF8001B401C03900220049005A9684678
:1005400000F0EAF800F034F906B0002070BD0B4668
:10055000014692001846FFF768BE00002DE9F04101
:1005600015460E46074600F06BF9002409E000BF6F
:1005700056F8242007EB84010023022000F022F922
:10058000641CAC42F4D3BDE8F04100F011B90000A6
:1005900001461E4A00200A44B2F5003F01D20B205A
:1005A00070471B4A914201D30A207047194A914271
:1005B00001D309207047184A914201D3082070479F
:1005C000164A914201D307207047154A914201D340
:1005D00006207047134A914201D305207047124A02
:1005E000914201D304207047104A914201D3032065
:1005F00070470F4A914201D3022070470D4A914241
:1006000002D20D4A9142F8D3012070470000F2F760
:1006100000000C0800000A08000008080000060896
:1006200000000408000002080000010800C00008E3
:100630000080000800600008004000082DE9F0413B
:100640000446876D00F00AFA064694F83500002546
:10065000022806D08020606584F834500120BDE86F
:10066000F0812068016821F016010160206841696D
:1006700021F080014161206C08B9A06C20B1206894
:10068000016821F0080101602068016821F0010182
:1006900001600CE000F0E2F9801B052807D920205A
:1006A0006065032084F8350084F83450D7E720686B
:1006B0000068C007EED194F85C103F208840B86015
:1006C000012084F8350084F834500020C7E790F802
:1006D0003510022903D08021416501207047052192
:1006E00080F835100068016821F0010101600020E8
:1006F0007047000070B5044600F0B0F90546601C74
:1007000002D004480078044400F0A8F9401BA0423D
:10071000FAD370BD000000202DE9F04704462248BE
:100720000F46017E01290AD00121804601764CF254
:1007300050394846FFF7C4FE020003D02FE00220E4
:10074000BDE8F0874FF0FF3038602068174D012872
:1007500001D0A6681CE0207C6168FFF71FFE4846B8
:10076000FFF7AEFE0246286820F00400286014E07F
:10077000217C3046FFF7C0FD4846FFF7A1FE02008E
:10078000286820F0FA00286001D03E6005E0761C61
:10079000D4E902100844B042EAD8FFF7D5FD0021A1
:1007A00088F818101046CBE760000020103C02408B
:1007B0000348016841F000410160002070470000DB
:1007C000103C02402DE9F0471B4E05461446307E92
:1007D0001F468946012808D0012030764CF2503857
:1007E0004046FFF76DFE18B114E00220BDE8F08727
:1007F0009DB1012D16D0022D19D022463B46484608
:10080000FFF7F0FD4046FFF75BFE0C490A6822F057
:1008100001020A6000213176E8E7E1B24846FFF7BD
:10082000D1FDEFE7A1B24846FFF7F2FDEAE7214626
:100830004846FFF7FFFDE5E760000020103C02405E
:10084000074900200A68002A09DA054A054B0C3AD4
:100850001360054B13600968002900DA0120704716
:10086000103C024023016745AB89EFCD2DE9F84FDD
:10087000DFF8BCA10022012503264FF00F090AF181
:10088000040BAAF1040E00BF0B6805FA02F4234022
:10089000A34270D10F7907F00307012F01D0022F77
:1008A00016D187684FEA420806FA08FC27EA0C07C7
:1008B000D1F80CC00CFA08FC4CEA070CC0F808C0D0
:1008C0004768A7430C79C4F3001494403C43446048
:1008D0000C79E443A4070AD0C4684FEA420C06FA34
:1008E0000CF7BC438F6807FA0CF72743C7600C79F5
:1008F00004F00304022C12D1D40800EB840CDCF8C1
:1009000020405707FF0E09FA07F824EA0804D1F837
:10091000108008FA07F848EA0408CCF82080046838
:100920004FEA420C06FA0CF7BC430F7907F00307B5
:1009300007FA0CF7274307604C6814F4403F70D067
:100940003C4C276847F480472760246822F003075F
:1009500004F480440094384C07EB040CDCF808489D
:1009600097074FEA177809FA08F7BC43334FB842A4
:1009700002D1002724E054E0314FB84201D10127D1
:100980001EE0304FB84201D1022719E02E4FB84285
:1009900001D1032714E02D4FB84201D104270FE005
:1009A0002B4FB84201D105270AE02A4FB84201D1A6
:1009B000062705E0284FB84201D1072700E00827A5
:1009C00007FA08F72743CCF80878DAF800405746CA
:1009D000D1F804C09C435FEACC2C00D51C433C609A
:1009E000DBF800405F46D1F804C09C435FEA8C2CE2
:1009F00000D51C433C60DEF800407746D1F804C0C7
:100A00009C435FEA8C3C00D51C433C60084F083F88
:100A10003C68D1F804C09C435FEACC3C00D51C4341
:100A20003C60521C102AFFF42FAFBDE8F88F000085
:100A3000083C0140443802400030014000000240C0
:100A40000004024000080240000C02400010024076
:100A50000014024000180240001C02400148806857
:100A600070470000000000200248816802781144AD
:100A700081607047000000200B4810B5016841F408
:100A800000710160016841F480610160016841F416
:100A900080710160032000F06FF80F2000F006F86D
:100AA00000F024F8002010BD003C024070B50D4D50
:100AB00004464FF47A712878B1FBF0F00A490968CE
:100AC000B1FBF0F000F0A4FB48B9102C07D20022D3
:100AD0002146501E00F030F800206C6070BD0120EF
:100AE00070BD0000000000200C0000200A4808B57E
:100AF000016841F480410160006800F4804000908A
:100B00000548001F016841F080510160006800F055
:100B10008050009008BD000044380240002809DBE6
:100B200000F01F02012191404009800000F1E02007
:100B3000C0F8001170470000F0B40E4B1B680C4663
:100B4000C3F30223C3F10705042D00D90425191DA1
:100B5000072901D2002300E0DB1E012606FA05F179
:100B6000491E214099409E40761E16403143F0BCFC
:100B700001F08CB90CED00E0064900F007020868AE
:100B80004FF6FF03184040EA0220034A1043086072
:100B9000704700000CED00E00000FA052DE9F04779
:100BA0000E46050065D0DFF81481D8F80000F7B2D2
:100BB00000F00700B04207D288F80070D8F80000B3
:100BC00000F00700B04254D128683D4C810712D58F
:100BD000400703D5206840F4E050206028780007E3
:100BE00003D5206840F4604020602068A96820F0A8
:100BF000F000084320602878C0072DD0304968688D
:100C00000839012812D0022813D0032811D009680E
:100C1000890700292DDA216821F0030101432160B1
:100C2000FFF71CFF814641F2883A0EE0096889030C
:100C3000EFE709688901ECE7FFF710FFA0EB090176
:100C4000514502D90320BDE8F0872068696800F0AB
:100C50000C00B0EB810FEFD1D8F80010404601F046
:100C60000701B14207D90770006800F00700B042E1
:100C700001D00120E7E72878400705D52068E9681A
:100C800020F4E050084320602878000706D520684B
:100C9000296920F4604040EAC100206000F0D2F8E9
:100CA0002168084AC1F30311515CC8400649086035
:100CB00006480068FFF7FAFE0020C4E7003C024047
:100CC00008380240AC2200080C000020040000207C
:100CD0002DE9F041FFF7C2FE444C0546206840F084
:100CE0000100206005E000BFFFF7B8FE401B0228AE
:100CF00047D820688007F7D5206840F08000206042
:100D0000FFF7ACFE0546394E00200836306041F250
:100D1000883704E0FFF7A2FE401BB84231D83068A4
:100D200010F00C0FF6D1FFF799FE0546206820F46D
:100D30005020206005E000BFFFF790FE401B6428B4
:100D40001FD820688003F7D4FFF788FE0546206887
:100D500020F08070206004E0FFF780FE401B022836
:100D60000FD820688001F7D4FFF778FE0546206889
:100D700020F08060206007E0FFF770FE401B022833
:100D800002D90320BDE8F08120680001F4D417499E
:100D90001748091D08601549164884310860134832
:100DA0000C30016821F4F8510160016821F4005110
:100DB0000160016841F41F010160016841F4001104
:100DC00001600A487430016821F001010160016886
:100DD00041F08071016009490748086008480068CF
:100DE000FFF764FE0028CDD00120CBE70038024099
:100DF00010300004003000200024F4000C0000201B
:100E0000040000200448054900680968044AC1F349
:100E10008221515CC84070470C0000200838024015
:100E2000BC2200080448054900680968044AC1F367
:100E30004231515CC84070470C0000200838024025
:100E4000BC220008154810B5006810F00C021448C8
:100E500013D04110042A0FD0082A0ED10F4C241FA2
:100E60002268236802F03F025B0207D52068C0F3C6
:100E70008810A0FB010106E0084610BD2168C1F3FF
:100E80008811A1FB00010023FFF79EF92168C1F33F
:100E90000141491C4900B0FBF1F010BD0838024087
:100EA0000024F4002DE9F84F04006ED02078DFF81C
:100EB0004C93C007A9F104054AD009F10400016868
:100EC000C1F38101012908D00068C0F38100022824
:100ED0000AD1D9F80000400206D52868800337D52A
:100EE00060680028E1D033E06068B0F5803F10D042
:100EF000B0F5A02F286810D020F480302860286832
:100F000020F4802028606068A8B1FFF7A7FD06469E
:100F10000DE0286840F48030F4E740F48020286039
:100F2000F7E700BFFFF79AFD801B642873D8286895
:100F30008003F7D50CE0FFF791FD064605E000BF02
:100F4000FFF78CFD801B6428F0D828688003F7D455
:100F50002078DFF8AC8280074FF0000A3ED5A74822
:100F6000001D016811F00C0F08D00068C0F381006B
:100F700002280BD1D9F80000400207D42868800766
:100F800016D5E068012800D112E033E1E068B8B17D
:100F90000120C8F80000FFF761FD064605E000BF2C
:100FA000FFF75CFD801B0228C0D828688007F7D5B2
:100FB0002868216920F0F80040EAC10028600DE0AF
:100FC000C8F800A0FFF74AFD064604E0FFF746FD1B
:100FD000801B02281FD828688007F7D420780007D4
:100FE00022D5864F87486169703771B10121016050
:100FF000FFF734FD064604E0FFF730FD801B0228B2
:1010000009D838688007F7D50EE0C0F800A0FFF7D0
:1010100025FD064605E082E0FFF720FD801B022843
:101020007DD838688007F7D42078400768D5DFF886
:10103000CCB100270BF13C0BDBF80000C0000BD457
:10104000DBF8001041F08051CBF80010DBF8000015
:10105000012700F0805000906B4E3068C00510D41E
:10106000306840F480703060FFF7F8FC009005E0D5
:10107000FFF7F4FC0099401A022850D83068C005E8
:10108000F6D55E4EA0686C3601280FD00528306872
:1010900010D020F001003060306820F00400306093
:1010A000A068B8B1FFF7DAFC00900FE0306840F0BC
:1010B0000100F4E740F004003060F7E7FFF7CEFCF2
:1010C0000099411A41F28830814266D83068800721
:1010D000F4D50EE0FFF7C2FC009007E0FFF7BEFC7E
:1010E0000099411A41F28830814256D83068800711
:1010F000F4D42FB1DBF8001021F08051CBF80010B0
:10110000A069C8B33D49091D0968C1F381010229DD
:101110004AD00228504607D0C8F8600000E03CE002
:10112000FFF79CFC04463BE04746C8F86000FFF729
:1011300095FC064605E000BFFFF790FC801B0228E7
:101140002BD828688001F7D4D4E907010843A16AA5
:101150002E4A490802EB0141626A41EA82110843C2
:1011600094F82C1040EA0161C9F80010012038669B
:10117000FFF774FC044606E03EE000BFFFF76EFC9C
:10118000001B022809D828688001F7D534E000BF89
:10119000FFF764FC001B022802D90320BDE8F88F8A
:1011A00028688001F4D427E00128F7D0D9F800009E
:1011B000E26900F4800191421CD1226A00F03F01F3
:1011C000914217D147F6C071626A0140B1EB821FAC
:1011D00010D1A26A4FF0FF3300F4403103EB52020A
:1011E000B1EB024F06D194F82C1000F07060B0EB18
:1011F000016F01D00120D1E70020CFE70438024081
:1012000000004742800E4742007000400000FFFF90
:1012100010B5401EB0F1807F01D3012010BD4FF00A
:10122000E02460610F21601700F030FE0020A06113
:1012300007202061002010BD70477047F8B5016895
:1012400004460868CA684B6910F00F0F4FF000059C
:1012500059D003F0010602F49077374365D0C107F7
:1012600005D0D10503D5216C41F00101216441076E
:1012700005D5D90703D0216C41F002012164810713
:1012800005D5D90703D0216C41F004012164010781
:1012900007D502F02001314303D0216C41F0080151
:1012A0002164216C00293AD0800604D5900602D52D
:1012B000204600F0B0FC20684069216CC0F380102B
:1012C000090700D460B3204600F07EFC2068406926
:1012D000400621D52068143050E8001F21F040015D
:1012E00040E80012002AF5D1A06BA8B16C49016555
:1012F000A06BFFF7ECF9002811D0A06B016D01B0D5
:10130000BDE8F040084783060FD593060DD520466B
:10131000BDE8F84000F07FBC2046FFF78EFFF8BD27
:101320002046FFF78AFF2564F8BD266B2023012E97
:1013300079D1C60677D5D60675D508684868009075
:101340004869400640D5A16B086840680004000C5D
:10135000EAD0A28D8242E7D9E085C869B0F5807FE6
:101360002DD020680C3050E8001F21F4807140E837
:101370000012002AF5D12068143050E8001F21F037
:10138000010140E80012002AF5D12068143050E82D
:10139000001F21F0400140E80012002AF5D184F836
:1013A0003E30256320680C3050E8001F21F010010A
:1013B00040E80012002AF5D1A06BFFF73FF9A08D9D
:1013C000E18D401A81B229E0A08DE18D401A81B2F1
:1013D000E08D0028A8D00029A6D020680C3050E865
:1013E000002F22F4907240E80026002EF5D12068EC
:1013F000143050E8002F22F0010240E80026002EB1
:10140000F5D184F83E30256320680C3050E8002F79
:1014100022F0100240E80023002BF5D12046FFF710
:101420000BFFF8BDFFE705062BD5150629D594F867
:101430003D002128F5D1A068B0F5805F01D1206979
:10144000B0B1206A411C2162216800784860E08CBC
:10145000401E0004000CE084E3D12068C16821F044
:101460008001C1602068C16841F04001C160D8E7D7
:10147000206A0088C0F308004860206A801C20624F
:10148000E5E74006CDD55006CBD5CA68204622F008
:101490004002CA6084F83D3000F0CFF8C1E7000098
:1014A000B91B000870B5040004D094F83D00002575
:1014B00010B106E0012070BD84F83C50204600F0D9
:1014C00023F8242084F83D002068C16821F40051ED
:1014D000C160204600F000FC2068016921F49041C1
:1014E00001612068416921F02A0141612068C168D9
:1014F00041F40051C1602564202084F83D0084F847
:101500003E00002070BD000010B586B004461421D6
:101510006846FEF7A3FE18492068884229D117487B
:101520000021026842F010020260006800F0100022
:10153000059012481438026842F001020260006807
:1015400000F0010005904FF4C06000900220CDE94A
:101550000101032003900720049069460848FFF723
:1015600085F9002211462520FFF7E6FA2520FFF72E
:10157000D5FA06B010BD000000100140443802400A
:1015800000000240704700002DE9F843044690F83F
:101590003D001F4616460D4620284CD1C5B1BEB1B0
:1015A00094F83C00012846D0012084F83C004FF01C
:1015B0000008C4F84080212084F83D00FFF74EFA6F
:1015C000A6848146E684A068B0F5805F03D004E07D
:1015D0000120BDE8F883206928B12E465FF00005A0
:1015E00084F83C800EE00026FAE78021204600F0D7
:1015F000F9FBA0B9AEB116F8010B21684860E08C88
:10160000401EE084E08C4B464FF00002009700281B
:10161000EBD14FF04001204600F0E4FB30B1032055
:10162000D7E735F8020BC0F30800E6E7202084F87E
:101630003D000020CDE70220CBE77047FEE7000029
:1016400010B50168104A1140B1F1005F1BD1446828
:101650000068FEF7A3FD0020421E810001F1E02199
:10166000C1F88021C1F88022401C0828F5DBFFF773
:101670002FFB4FF0E0210020086148618861A446FB
:10168000BDE81040604710BD0000FE2F094808B5B6
:10169000016841F080010160016801F08001009162
:1016A000016841F001010160006800F00100009054
:1016B00008BD0000303802400C4810B50A490160EE
:1016C0004FF4E1314160002181600C22C160C0E92A
:1016D00004128161C161FFF7E5FE002803D0BDE877
:1016E0001040FEF707BE10BD001001401C00002096
:1016F00038B5064901200C1F00902046FEF708FF70
:10170000012269462046FEF729FF38BD04000E0875
:10171000FEE700002DE9F047064617460D4622A0D9
:1017200000F0A4FBDFF8A080284605EB0801FEF7D7
:10173000EFFE26A000F09AFB4FF480794946002086
:10174000FEF797FD824629A000F090FB002414E0EC
:1017500006EB84204A465146FEF7F9FE05EB84204D
:101760004A465146FEF7FAFE49465046FEF776FDD8
:10177000611C24A000F07AFB641CB4EB972FE7D324
:10178000504600F00FFD23A000F070FB26A000F0F3
:101790006DFB06EB08013046FEF7BAFEBDE8F047E8
:1017A00029A000F063BB00003E20537461727420D6
:1017B00065726173652064657320666C6173682E61
:1017C0002E2E2E2E2E0D0A00FFFF05003E20457204
:1017D0006173652064657320666C61736820646F53
:1017E000776E2E2E2E2E2E2E0D0A00003E205374C4
:1017F00061727420636F70792E2E2E2E2E2E0D0A9C
:1018000000000000436F70792025644B42206E6F0A
:10181000770D0A003E20436F707920646F776E2E3B
:101820002E2E2E2E2E0D0A003E205374617274202F
:1018300065726173652073726320666C6173682ED4
:101840002E2E2E2E2E0D0A003E204572617365202D
:1018500073726320666C61736820646F776E2E2EDE
:101860002E2E2E2E0D0A0000FEE7704708B5002030
:101870000090012269460248FEF769FE009808BD03
:10188000FCFF0D087047000070B52DA000F0EEFAC7
:101890002CA22FA131A000F0E9FA34A134A000F06D
:1018A000E5FA012138A000F0E1FA3CA000F0DEFAF0
:1018B000444A4FF0006144A000F0D8FA414C4B4A32
:1018C000641C21464AA000F0D1FA484D514A6D1CD3
:1018D000294651A000F0CAFA19A000F0C7FAFFF794
:1018E00007FF56A000F0C2FAFFF7C0FFB0F1AA3F11
:1018F00011D0B0F1FF3F0CD05949C84201D159A0D5
:1019000013E0FFF7B3FFBDE8704001465FA000F0B1
:10191000ADBA64A009E069A000F0A8FA4FF4C022B3
:1019200021462846FFF7F6FE6AA000F09FFA72B63D
:101930006EA000F09BFA2046BDE87040FFF780BE25
:101940000D0A000031363A33323A333700000000D6
:101950004F6374203133203230323300422D426FD6
:101960006F742025732025730D0A0000302E32007D
:10197000426F6F746C6F6164657220566572736933
:101980006F6E2025730D0A00446576696365204EED
:10199000616D653A204425640D0A00004D43553AB7
:1019A0002053544D3332463430375A475436205240
:1019B000756E6E696E67206174203136384D487AD5
:1019C0000D0A0000FFFF0108426F6F746C6F6164C5
:1019D000657220417265612066726F6D20252378E3
:1019E000202D202523780D0A00000000FFFF0708A6
:1019F0004170706C69636174696F6E5F3120417210
:101A000065612066726F6D20252378202D202523A7
:101A1000780D0A00FFFF0D084170706C69636174F6
:101A2000696F6E5F3220417265612066726F6D2052
:101A3000252378202D202523780D0A003D3E2043C4
:101A4000686F6F73652061207374617274757020A4
:101A50006D6574686F642E2E2E2E2E2E0D0A0000DA
:101A60005655AAAA3D3E20526573746F7265207464
:101A70006F20666163746F72792070726F67726134
:101A80006D2E2E2E2E2E2E0D0A0000003D3E2045DE
:101A900072726F723A25582121212E2E2E2E2E2E53
:101AA0000D0A00003D3E204E6F726D616C20737414
:101AB0006172742E2E2E2E2E2E0D0A003D3E2053C6
:101AC00074617274207570646174652E2E2E2E2ED2
:101AD0002E0D0A003D3E2055706461746520646FD0
:101AE000776E2E2E2E2E2E2E0D0A00003D3E2053F8
:101AF00074617274204170706C69636174696F6E97
:101B00005F312E2E2E2E2E2E0D0A0D0A0000000003
:101B1000FEF7AABF30B593B030216846FEF79EFBB2
:101B200014210CA8FEF79AFB1D480025016841F01E
:101B300080510160006800F08050119019480168E0
:101B400041F4804101600068022400F4804011905B
:101B50000120039010200490009406940820CDE901
:101B60000750A820CDE9090404200B906846FFF730
:101B700099F908B172B6FEE70CA90F2081E831008F
:101B80004FF4A0500F904FF48050109005210CA8F6
:101B9000FFF704F8002801D072B6FEE713B030BD9D
:101BA00040380240007000400248016841F4700172
:101BB0000160704788ED00E010B5806B0021C185A1
:101BC000C184FFF73AFB10BD01680C3151E8002FCA
:101BD00022F4907241E80023002BF5D10168143102
:101BE00051E8002F22F0010241E80023002BF5D13B
:101BF000016B012909D101680C3151E8002F22F055
:101C0000100241E80023002BF5D1202180F83E107E
:101C100000210163704708B590F83E10222901D0D9
:101C2000022008BD82684FF480539A4201D10169B5
:101C300021B1816A9A421BD04AB10AE00268816AE6
:101C40005268C2F308020A80816A891C08E00269AE
:101C500072B10268526802F07F020A70816A491C00
:101C60008162C18D491E0904090CC18503D019E0A8
:101C700002685268F1E70168CA6822F02002CA606F
:101C80000168CA6822F48072CA6001684A6922F059
:101C900001024A61202180F83E10016B012903D026
:101CA000FFF770FC002008BD0021016301680C31C2
:101CB00051E8002F22F0100241E80023002BF5D15B
:101CC00001680A68D20602D50A6849680091818DC8
:101CD000FFF7B2FAE6E7000070B504460068016954
:101CE000E26821F44051114301612169A068E26971
:101CF00008436169114308432168CA6849F20C63CB
:101D00009A430243CA6020684169A26921F4407184
:101D10001143416131492068884202D030498842EC
:101D200002D1FFF77FF801E0FFF76CF8E2690023CA
:101D3000192164253226B2F5004F626828D0A0FB35
:101D40000101930F9200FEF73FFA0146B0FBF5F058
:101D50006FF01802504301EB800006EB0010B0FB5F
:101D6000F5F000F0F002B1FBF5F002EB0012B1FB70
:101D7000F5F06FF01803584301EB800006EB0010FC
:101D8000B0FBF5F000F00F0021681044886070BDD2
:101D9000A0FB010192185B41FEF716FA0146B0FB69
:101DA000F5F00201B1FBF5F06FF01803584301EBB9
:101DB000800006EBC000B0FBF5F000F0F80002EB8D
:101DC0004002B1FBF5F0584301EB800006EBC00088
:101DD000B0FBF5F000F00700D6E70000001001406E
:101DE000001401402DE9F041984617460E4604467E
:101DF000069D27E0681C25D02DB1FEF72FFEA0EB35
:101E00000800A8421ED920680C3050E8001F21F4B9
:101E1000D07140E80012002AF5D12068143050E853
:101E2000001F21F0010140E80012002AF5D1202016
:101E300084F83D0084F83E00002084F83C00032034
:101E4000BDE8F0812068006836EA000004D0002078
:101E5000B842CFD00020F3E70120F9E70148FFF7AF
:101E6000EDB900001C000020FEE700000FB4054B98
:101E700010B503A9044A029800F028F810BC5DF8D8
:101E800014FB00008D210008100000200907090E36
:101E9000002804DB00F1E02080F80014704700F017
:101EA0000F0000F1E02080F8141D704702E008C820
:101EB000121F08C1002AFAD170477047002001E0C4
:101EC00001C1121F002AFBD1704700002DE9FF4F0E
:101ED0008DB09B460F460446002606E025280BD011
:101EE0005A460F999047641C761C20780028F5D13B
:101EF00011B03046BDE8F08F0025A8460122984970
:101F000000E0054314F8013F203B02FA03F00842C9
:101F1000F7D120782E2817D114F8010F45F00405C9
:101F20002A280ED06FF02F022078A0F13001092965
:101F30000AD808EB880102EB410100EB0108641CA0
:101F4000F2E757F8048B641C20786C280DD004DC71
:101F50004C2812D06A2811D104E074280DD07A28B8
:101F60000CD10AE045F4001507E0617845F48015CE
:101F7000814202D1641C05F58015641C2278692A0F
:101F800045D008DC002AB3D0582A69D0632A10D083
:101F9000642A08D13BE0702A67D0732A13D0752ACF
:101FA0005CD0782A5CD010465A460F999047761C30
:101FB000D3E017F8040B8DF8000000208DF8010025
:101FC000E946012003E057F8049B4FF0FF30690712
:101FD0004FF0000501D40AE06D1C45450DDA85423D
:101FE000FADB19F805100029F6D106E06D1C8542D0
:101FF000FCDB19F805100029F8D12E4404E019F88B
:10200000010B5A460F9990476D1EF8D2A5E00A20A1
:102010000021CDE90801C5F3025002280DD001CFFF
:10202000C117031E71F100030DDA4FF0000CD0EB65
:102030000C006CEB01012D2308E0FF1D27F00707C2
:10204000F7E80201EDE72B0504D52B238DF82830A6
:1020500001233BE0EB0739D02023F7E70A2000E01B
:1020600010200021CDE9080107E01020002145F0F3
:102070000405CDE908014FF00808C5F30250022815
:102080000FD001CF00214FF0000A2B071FD5702A77
:102090000DD0DDE908C38CF0100C5CEA030C0CD009
:1020A00015E0FF1D27F00707F7E80201EBE74022E4
:1020B0008DF828204FF0010A0BE050EA010306D00A
:1020C00030238DF828308DF8292002239A46582A8B
:1020D00004D024A20DF120090B9209E026A2F9E711
:1020E000DDE90823FEF770F80B9B9B5C09F8013DC6
:1020F00050EA0102F4D1ADEB0900203008906807E6
:1021000001D44FF001080899884502DDA8EB0100D1
:1021100000E000208046002506E00AA85A46405DFF
:102120000F9990476D1C761C5545F6DB04E0302076
:102130005A460F999047761CB8F10001A8F10108A2
:10214000F5DC05E019F8010B5A460F999047761C0B
:102150000899481E08900029F4DC641CC5E60000BC
:10216000092801003031323334353637383961626D
:102170006364656600000000303132333435363731
:1021800038394142434445460000000013B54FF63C
:10219000FF73012269460248FFF7F6F900981CBD5B
:1021A0001C00002010B5002821D0114B0022001F78
:1021B000196803E0814203D80A4649680029F9D129
:1021C00052B11368841A9C4204D10068184410600C
:1021D000104602E0506000E0186039B102680B1A46
:1021E000934203D10B681A4402604968416010BDF4
:1021F00014000020FEF740FCFFF78CFCFFF746FAC6
:10220000FFF75AFAFFF740FB05A0FFF72FFE4FF448
:102210007A740AA0FFF72AFE2046FEF76BFAF8E769
:10222000426F6F74204572726F72204E6F20417042
:10223000706C69636174696F6E0D0A002E00000096
:10224000F0B50B30154D20F007010024144A0FE0C3
:1022500003688B420BD38B4205D95E1A431847683B
:10226000C3E9006700E04368136002C004E0021D98
:1022700010680028ECD12046002802D1286808B157
:102280000020F0BD064A07481060074A121A22F0E3
:102290000702C0E9002401202860D7E718000020C9
:1022A00014000020840000208002002000000000B4
:1022B00000000000010203040607080900000000F6
:1022C00001020304E4220008000000201C000000BA
:1022D000AC1E0008002300081C000020640600005B
:1022E000BC1E0008010000001000000000000000FB
:1022F0000024F400000000000000000000000000C6
:040000050800018965
:00000001FF
