:020000040802F0
:10000000A00D00209D010208FB1B020875190208C3
:10001000F91B0208E9020208392102080000000069
:10002000000000000000000000000000FF1B0208AC
:100030008D07020800000000FD1B0208011C0208D9
:10004000B7010208B7010208B7010208B7010208A8
:10005000B7010208B7010208B7010208B701020898
:10006000B7010208B7010208B7010208B701020888
:10007000ED020208B7010208F9020208B7010208FE
:10008000B7010208B7010208B7010208B701020868
:10009000B7010208B7010208B7010208B701020858
:1000A000B7010208B7010208B7010208B701020848
:1000B000B7010208B7010208B7010208B701020838
:1000C000B7010208B7010208B7010208B701020828
:1000D000B7010208E1200208B7010208ED2002087A
:1000E000B7010208B7010208B7010208B701020808
:1000F000B7010208B7010208B7010208B7010208F8
:10010000B7010208B7010208B7010208B7010208E7
:10011000B7010208B7010208B7010208B7010208D7
:10012000B7010208B7010208B7010208B7010208C7
:10013000B7010208B7010208B7010208B7010208B7
:10014000B7010208B7010208B7010208B7010208A7
:10015000B7010208B7010208B7010208B701020897
:10016000B7010208B7010208B7010208B701020887
:10017000B7010208B7010208B70102080000000039
:10018000B7010208B7010208DFF80CD000F09AF8B6
:100190000048004711260208A00D002006488047AD
:1001A00006480047FEE7FEE7FEE7FEE7FEE7FEE75C
:1001B000FEE7FEE7FEE7FEE7991C02088901020858
:1001C0002DE9F05F0546002092469B46884606468C
:1001D000814640241BE0284641464746224600F01F
:1001E00060F853465A46C01A914110D3114618463A
:1001F000224600F047F82D1A67EB01084F462246C9
:100200000120002100F03EF817EB00094E41201EAE
:10021000A4F10104DFDC484631462A464346BDE8E6
:10022000F09F40EA01039B0703D009E008C9121FB1
:1002300008C0042AFAD203E011F8013B00F8013BA0
:10024000521EF9D27047D2B201E000F8012B491ECC
:10025000FBD270470022F6E710B513460A46044663
:100260001946FFF7F0FF204610BD30B504460020C8
:10027000034600E05B1C934203D2E05CCD5C401B74
:10028000F8D030BD202A04DB203A00FA02F1002029
:1002900070479140C2F1200320FA03F319439040C4
:1002A0007047202A04DB203A21FA02F0002170472F
:1002B00021FA02F3D040C2F12002914008431946CE
:1002C00070470000064C074D06E0E06840F001036F
:1002D00094E8070098471034AC42F6D3FFF758FF74
:1002E0005429020874290208FEE70000014800F0C2
:1002F000ABBA000078020020014800F0A5BA000067
:10030000D802002001681823CAB2103AB2FBF3F2F7
:10031000054B6FF30901032A9B5CC36500D9091DD6
:1003200081650846704700009C28020810B5014608
:1003300000208B698A6A4FF0C07453B1B3F5005F37
:1003400015D072B1012A0CD0022A0AD0032A09D191
:1003500004E01AB1012A06D0022A03D1C96AC901F0
:1003600000D5012010BDC96AA142FAD010BD002AF3
:10037000F7D0012AF2D0022AF3D0032AF3D010BD1D
:1003800030B50468256825F480252560046863601D
:100390008368402B036803D099600068C26030BD59
:1003A0009A600068C16030BD2DE9F0411FA124486A
:1003B00001F0C4FE82B24FF6FF752B46204921485A
:1003C00001F07EFA204C4FF47A7700261C481FA1DA
:1003D000C83001F0B3FE1A4982B22B46C8311C481E
:1003E00001F06EFA384600F0A1FB207A0028EDD02B
:1003F0002672606800786128E8D116A1104801F0E3
:100400009DFE82B22B460E490E4801F059FA0C4867
:1004100014A1C83001F092FE2B46BDE8F041084916
:1004200082B2C8310A4801F04BBA0000BDF8C8EBEF
:10043000D6B8C1EEC4A3CABD2E2E2E0D0A000000F0
:1004400038030020F0010020140000202B2B2B008B
:1004500034020020CDCBB3F6CDB8B4ABC4A3CABD33
:100460000D0A00006100000010B506A1084801F067
:1004700065FE82B2BDE810404FF6FF73044905489F
:1004800001F01EBA41542B454E544D0D0A00000098
:1004900000040020340200200A4610B501464FF641
:1004A000FF73044801F00CFA08B1002010BD0120D0
:1004B00010BD00003402002010B530A23BA13F481F
:1004C00001F03CFE82B24FF6FF7423463B493C48A4
:1004D00001F0F6F91E2000F029FB3AA1374801F09F
:1004E0002DFE82B223463549354801F0E9F91E2038
:1004F00000F01CFB37A1314801F020FE82B22346F8
:100500002E492F4801F0DCF91E2000F00FFB36A128
:100510002A4801F013FE82B223462849284801F0F8
:10052000CFF91E2000F002FB34A1244801F006FEA2
:1005300082B223462149224801F0C2F91E2000F070
:10054000F5FA33A11D4801F0F9FD82B223461B499B
:100550001B4801F0B5F91E2000F0E8FA34A1174855
:1005600001F0ECFD82B223461449154801F0A8F9C8
:10057000BDE810401E2000F0D9BA00005443502CB2
:10058000696F742D30363061373074712E6D71742F
:10059000742E696F746875622E616C6979756E630B
:1005A000732E636F6D2C31383833000041542B5358
:1005B0004F434B413D25730D0A000000000400200D
:1005C0003402002041542B534F434B41454E3D4F85
:1005D0004E0D0A0041542B534F434B42454E3D4F65
:1005E00046460D0A0000000041542B534F434B4335
:1005F000454E3D4F46460D0A0000000041542B5326
:100600004F434B44454E3D4F46460D0A0000000007
:1006100041542B48454152543D4F4E2C4E45542C8D
:10062000555345522C36302C433030300D0A0000E3
:1006300041542B530D0A000070B50D4604464FF689
:10064000FF76052902D00F2D15D019E006222AA128
:10065000FFF70BFEA0B92AA1314801F06FFD82B26D
:1006600033462F492F4801F02BF9FFF725FFBDE84E
:100670007040FFF7F9BE0F222BA1FFF7F6FDD8B1AE
:100680000A222DA12046FFF7F0FDB8B1042D23D09A
:10069000022D2FD12078D0282CD16078002829D1A4
:1006A00028A11F4801F04AFD3346BDE8704082B2E0
:1006B0001B491C4801F004B925A1F2E728A11848FC
:1006C00001F03CFD82B233461549164801F0F8F8B6
:1006D000BDE8704001F050B9207820280AD1607838
:1006E000022807D1A078002804D1E078002801D1A1
:1006F00020A1D6E770BD00002B6F6B0D0A00000033
:10070000BDF8C8EBD6B8C1EEC4A3CABDA3ACC9E856
:10071000D6C3B7FECEF1C6F72E2E2E0D0A0000006E
:1007200038030020F001002041542B454E544D0D5C
:100730000D0A4F4B0D0A00005553522D44523135CE
:1007400032000000C9E8B1B8B4E6BBEE210D0A00E2
:10075000CDCBB3F6D6B8C1EEC4A3CABD210D0A00F5
:10076000436F6E6E656374B7FECEF1C6F72E2E2E04
:100770000D0A0000436F6E6E656374B7FECEF1C65E
:10078000F7B3C9B9A6210D0A00000000704772B680
:10079000FEE72DE9F0410446876D00F0D1FA0646E8
:1007A00094F835000025022806D08020606584F882
:1007B00034500120BDE8F0812068016821F0160165
:1007C00001602068416921F080014161206C08B915
:1007D000A06C20B12068016821F008010160206848
:1007E000016821F0010101600CE000F0A9FA801B12
:1007F000052807D920206065032084F8350084F897
:100800003450D7E720680068C007EED194F85C1038
:100810003F208840B860012084F8350084F83450C7
:100820000020C7E790F83510022903D080214165E8
:1008300001207047052180F835100068016821F01B
:1008400001010160002070472DE9F84304464FF094
:100850000009CDF8009063484FF41651A56D00686B
:10086000B0FBF1F72E6894F85C10082000FA01F153
:1008700031420FD021680A6852070BD50A6822F06E
:1008800004020A6094F85C108840A860606D40F033
:100890000100606594F85C104FF0010808FA01F05F
:1008A000304208D021684969090604D5A860606D06
:1008B00040F00200606594F85C10042088403042EB
:1008C00008D021680968890704D5A860606D40F0E8
:1008D0000400606594F85C1010208840304218D005
:1008E00021680968090714D5A860206801684903D0
:1008F00004D50068000308D5A16C07E00168C905AC
:1009000003D4016821F008010160216C09B120467F
:10091000884794F85C1020208840304231D021680C
:100920000968C9062DD5A86094F835000528206807
:10093000016806D0490347D5006800031DD4616CE7
:100940001CE021F0160101602068416921F080015E
:100950004161206C08B9A06C20B12068016821F0C9
:100960000801016094F85C103F208840A86084F87A
:10097000358084F83490216D1FE0E16B09B1204689
:100980008847606D00282BD0606DC00714D005200B
:1009900084F835002068016821F0010101600098A9
:1009A000401C0090B84203D820680068C007F6D108
:1009B00084F8358084F83490E16C002910D001B0BF
:1009C0002046BDE8F04308470168C905D5D4016851
:1009D00021F01001016084F8358084F83490CCE770
:1009E000BDE8F883100000202DE9F041044600F036
:1009F000A7F906465CB1022084F83500002584F88A
:100A000034502068016821F0010101600DE00120EF
:100A1000BDE8F08100F094F9801B052805D920205D
:100A20006065032084F83500F2E720680068C0079D
:100A3000F0D12268116820480140D4E9010318432D
:100A4000D4E903363343184363691843A369184351
:100A5000E3691843236A18430843616A042903D1F0
:100A6000D4E90B1319430843106020684069666A93
:100A700020F0070130460E43012704280CD1A06A5C
:100A80000643E06A40B12046FFF750FC20B1402009
:100A9000606584F83570BAE7206846612046FFF744
:100AA00031FC94F85C203F2191408160656584F8B9
:100AB00035700020ACE700003F8010F02DE9F041D8
:100AC0000446866D90F83400002501280DD00120E1
:100AD00084F8340094F835700020012F07D084F892
:100AE000340002252846BDE8F0810220FBE70227FA
:100AF00084F8357060652046FFF742FC94F85C107E
:100B00003F208840B0602068016841F01601016014
:100B1000206C20B12068016841F008010160206864
:100B2000016841F001010160DCE7000070B5044696
:100B300000F006F90546601C02D004480078044421
:100B400000F0FEF8401BA042FAD370BD0400002064
:100B50002DE9F84FDFF8BCA10022012503264FF054
:100B60000F090AF1040BAAF1040E00BF0B6805FA85
:100B700002F42340A34270D10F7907F00307012F3D
:100B800001D0022F16D187684FEA420806FA08FC06
:100B900027EA0C07D1F80CC00CFA08FC4CEA070C49
:100BA000C0F808C04768A7430C79C4F30014944008
:100BB0003C4344600C79E443A4070AD0C4684FEA7C
:100BC000420C06FA0CF7BC438F6807FA0CF7274370
:100BD000C7600C7904F00304022C12D1D40800EB96
:100BE000840CDCF820405707FF0E09FA07F824EAC6
:100BF0000804D1F8108008FA07F848EA0408CCF88D
:100C0000208004684FEA420C06FA0CF7BC430F79C7
:100C100007F0030707FA0CF7274307604C6814F442
:100C2000403F70D03C4C276847F4804727602468D9
:100C300022F0030704F480440094384C07EB040CC2
:100C4000DCF8084897074FEA177809FA08F7BC4319
:100C5000334FB84202D1002724E054E0314FB8426C
:100C600001D101271EE0304FB84201D1022719E01F
:100C70002E4FB84201D1032714E02D4FB84201D1C5
:100C800004270FE02B4FB84201D105270AE02A4F75
:100C9000B84201D1062705E0284FB84201D1072705
:100CA00000E0082707FA08F72743CCF80878DAF8B5
:100CB00000405746D1F804C09C435FEACC2C00D5D5
:100CC0001C433C60DBF800405F46D1F804C09C4305
:100CD0005FEA8C2C00D51C433C60DEF80040774670
:100CE000D1F804C09C435FEA8C3C00D51C433C60B7
:100CF000084F083F3C68D1F804C09C435FEACC3CF5
:100D000000D51C433C60521C102AFFF42FAFBDE8F5
:100D1000F88F0000083C0140443802400030014098
:100D2000000002400004024000080240000C0240A3
:100D3000001002400014024000180240001C024053
:100D40000148806870470000040000200248816864
:100D50000278114481607047040000200B4810B5F0
:100D6000016841F400710160016841F48061016033
:100D7000016841F480710160032000F06FF80F20DA
:100D800000F006F800F024F8002010BD003C0240FE
:100D900070B50D4D04464FF47A712878B1FBF0F030
:100DA0000A490968B1FBF0F000F00CFB48B9102CBF
:100DB00007D200222146501E00F030F800206C605F
:100DC00070BD012070BD0000040000201000002054
:100DD0000A4808B5016841F480410160006800F4E8
:100DE000804000900548001F016841F0805101607B
:100DF000006800F08050009008BD000044380240B8
:100E0000002809DB00F01F02012191404009800009
:100E100000F1E020C0F8001170470000F0B40E4B64
:100E20001B680C46C3F30223C3F10705042D00D948
:100E30000425191D072901D2002300E0DB1E01262D
:100E400006FA05F1491E214099409E40761E164043
:100E50003143F0BC01F086B90CED00E0064900F02A
:100E6000070208684FF6FF03184040EA0220034AD1
:100E700010430860704700000CED00E00000FA0528
:100E80002DE9F0470E46050065D0DFF81481D8F84B
:100E90000000F7B200F00700B04207D288F80070F7
:100EA000D8F8000000F00700B04254D128683D4C4B
:100EB000810712D5400703D5206840F4E050206038
:100EC0002878000703D5206840F46040206020683F
:100ED000A96820F0F000084320602878C0072DD0D2
:100EE000304968680839012812D0022813D0032835
:100EF00011D00968890700292DDA216821F0030142
:100F000001432160FFF71CFF814641F2883A0EE061
:100F100009688903EFE709688901ECE7FFF710FF2B
:100F2000A0EB0901514502D90320BDE8F0872068F4
:100F3000696800F00C00B0EB810FEFD1D8F8001019
:100F4000404601F00701B14207D90770006800F080
:100F50000700B04201D00120E7E72878400705D517
:100F60002068E96820F4E0500843206028780007F2
:100F700006D52068296920F4604040EAC10020605D
:100F800000F038F82168084AC1F30311515CC840E9
:100F90000649086006480068FFF7FAFE0020C4E72B
:100FA000003C024008380240A4280208100000203B
:100FB000080000200448054900680968044AC1F394
:100FC0008221515CC8407047100000200838024060
:100FD000B42802080448054900680968044AC1F3B6
:100FE0004231515CC8407047100000200838024070
:100FF000B4280208154810B5006810F00C02144817
:1010000013D01449042A0FD0082A0ED10F4C241FE4
:101010002268236802F03F025B0207D52068C0F314
:101020008810A0FB010106E0084610BD2168C1F34D
:101030008811A1FB00010023FFF7C2F82168C1F36A
:101040000141491C4900B0FBF1F010BD08380240D5
:101050000024F40040787D012DE9F84F04006ED0A3
:101060002078DFF84C93C007A9F104054AD009F1B4
:1010700004000168C1F38101012908D00068C0F3B0
:10108000810002280AD1D9F80000400206D528685C
:10109000800337D560680028E1D033E06068B0F5A0
:1010A000803F10D0B0F5A02F286810D020F48030F9
:1010B0002860286820F4802028606068A8B1FFF7C5
:1010C0003FFE06460DE0286840F48030F4E740F427
:1010D00080202860F7E700BFFFF732FE801B6428FE
:1010E00073D828688003F7D50CE0FFF729FE064681
:1010F00005E000BFFFF724FE801B6428F0D82868B5
:101100008003F7D42078DFF8AC8280074FF0000A24
:101110003ED5A748001D016811F00C0F08D00068EB
:10112000C0F3810002280BD1D9F80000400207D497
:101130002868800716D5E068012800D112E033E165
:10114000E068B8B10120C8F80000FFF7F9FD0646D5
:1011500005E000BFFFF7F4FD801B0228C0D8286817
:101160008007F7D52868216920F0F80040EAC1001F
:1011700028600DE0C8F800A0FFF7E2FD064604E095
:10118000FFF7DEFD801B02281FD828688007F7D4F0
:101190002078000722D5864F87486169703771B182
:1011A00001210160FFF7CCFD064604E0FFF7C8FD12
:1011B000801B022809D838688007F7D50EE0C0F8F0
:1011C00000A0FFF7BDFD064605E082E0FFF7B8FD91
:1011D000801B02287DD838688007F7D42078400724
:1011E00068D5DFF8CCB100270BF13C0BDBF8000031
:1011F000C0000BD4DBF8001041F08051CBF8001098
:10120000DBF80000012700F0805000906B4E306842
:10121000C00510D4306840F480703060FFF790FD56
:10122000009005E0FFF78CFD0099401A022850D885
:101230003068C005F6D55E4EA0686C3601280FD028
:101240000528306810D020F001003060306820F0B0
:1012500004003060A068B8B1FFF772FD00900FE0A5
:10126000306840F00100F4E740F004003060F7E738
:10127000FFF766FD0099411A41F28830814266D835
:1012800030688007F4D50EE0FFF75AFD009007E0C4
:10129000FFF756FD0099411A41F28830814256D835
:1012A00030688007F4D42FB1DBF8001021F08051B2
:1012B000CBF80010A069C8B33D49091D0968C1F306
:1012C000810102294AD00228504607D0C8F86000A0
:1012D00000E03CE0FFF734FD04463BE04746C8F839
:1012E0006000FFF72DFD064605E000BFFFF728FD73
:1012F000801B02282BD828688001F7D4D4E9070185
:101300000843A16A2E4A490802EB0141626A41EA98
:101310008211084394F82C1040EA0161C9F80010CA
:1013200001203866FFF70CFD044606E03EE000BFF2
:10133000FFF706FD001B022809D828688001F7D5B1
:1013400034E000BFFFF7FCFC001B022802D9032099
:10135000BDE8F88F28688001F4D427E00128F7D091
:10136000D9F80000E26900F4800191421CD1226AA0
:1013700000F03F01914217D147F6C071626A014007
:10138000B1EB821F10D1A26A4FF0FF3300F440315D
:1013900003EB5202B1EB024F06D194F82C1000F08F
:1013A0007060B0EB016F01D00120D1E70020CFE7E2
:1013B0000438024000004742800E4742007000405F
:1013C0000000FFFF10B5401EB0F1807F01D3012067
:1013D00010BD4FF0E02460610F21601700F0C2FEE5
:1013E0000020A06107202061002010BD704710B5CB
:1013F00004460068406994F83D10C0F3C0102129EC
:1014000011D180B12068143050E8001F21F0800114
:1014100040E80012002AF5D1606B08B1FFF7B9F976
:10142000204600F0E3FC2068406994F83E10C0F3C9
:101430008010222911D180B12068143050E8001F9B
:1014400021F0400140E80012002AF5D1A06B08B15C
:10145000FFF79FF9204600F0A2FC002010BD704766
:10146000F8B5016804460868CA684B6910F00F0FA8
:101470004FF0000559D003F0010602F4907737438E
:1014800065D0C10705D0D10503D5216C41F001011C
:101490002164410705D5D90703D0216C41F0020131
:1014A0002164810705D5D90703D0216C41F00401DF
:1014B0002164010707D502F02001314303D0216CDC
:1014C00041F008012164216C00293AD0800604D53E
:1014D000900602D5204600F097FC20684069216CF8
:1014E000C0F38010090700D460B3204600F057FC19
:1014F00020684069400621D52068143050E8001F5C
:1015000021F0400140E80012002AF5D1A06BA8B1FB
:101510006C490165A06BFFF785F9002811D0A06B1D
:10152000016D01B0BDE8F040084783060FD5930672
:101530000DD52046BDE8F84000F066BC2046FFF718
:101540008EFFF8BD2046FFF78AFF2564F8BD266BA5
:101550002023012E79D1C60677D5D60675D5086821
:10156000486800904869400640D5A16B086840680B
:101570000004000CEAD0A28D8242E7D9E085C86958
:10158000B0F5807F2DD020680C3050E8001F21F48A
:10159000807140E80012002AF5D12068143050E82C
:1015A000001F21F0010140E80012002AF5D1206857
:1015B000143050E8001F21F0400140E80012002ADA
:1015C000F5D184F83E30256320680C3050E8001FC8
:1015D00021F0100140E80012002AF5D1A06BFFF7BE
:1015E000D8F8A08DE18D401A81B229E0A08DE18D5F
:1015F000401A81B2E08D0028A8D00029A6D020682A
:101600000C3050E8002F22F4907240E80026002EA3
:10161000F5D12068143050E8002F22F0010240E894
:101620000026002EF5D184F83E30256320680C306A
:1016300050E8002F22F0100240E80023002BF5D1E3
:101640002046FFF7D3FEF8BDFFE705062BD51506AC
:1016500029D594F83D002128F5D1A068B0F5805F28
:1016600001D12069B0B1206A411C21622168007853
:101670004860E08C401E0004000CE084E3D1206848
:10168000C16821F08001C1602068C16841F040015B
:10169000C160D8E7206A0088C0F308004860206A6B
:1016A000801C2062E5E74006CDD55006CBD5CA6840
:1016B000204622F04002CA6084F83D3000F059F91B
:1016C000C1E70000A91C020870B5040004D094F81A
:1016D0003D00002510B106E0012070BD84F83C50AB
:1016E000204600F023F8242084F83D002068C168DB
:1016F00021F40051C160204600F0E6FB206801693A
:1017000021F4904101612068416921F02A01416181
:101710002068C16841F40051C1602564202084F82C
:101720003D0084F83E00002070BD00002DE9F0412E
:1017300086B0064614216846FEF78CFD4C4F316892
:101740004C480222032307250024B94225D14949E8
:1017500014310E6846F010060E60096801F01001A1
:101760000591016841F0010101600068694600F0DF
:101770000100059058028DE81500CDE903353E487B
:10178000FFF7E6F9002211462520FFF747FB252049
:10179000FFF736FB06B0BDE8F081384FB942F9D10A
:1017A000344910310F6847F480270F60096801F44D
:1017B00080210591016841F00201016000686946DD
:1017C00000F0020005904FF440608DE81500CDE96F
:1017D00003352B48FFF7BCF92B4D2A484FF0006723
:1017E0002860C5E901744FF48068C5E903486C615D
:1017F000AC61EC612C6228466C62FFF7F5F808B129
:10180000FEF7C5FFB563AE631F4D1E48603530302F
:10181000E5E802074020A5E811011B4845F81449F6
:101820006030AC61EC612C626C62FFF7DDF808B1EE
:10183000FEF7ADFF7563002211462720AE63FFF768
:10184000EDFA2720FFF7DCFA104C608800F0F0FF7B
:10185000014660600C486288443800F019F80A4874
:1018600044380068C16841F01001C16092E700008F
:1018700000100140303802400000024000480040A3
:10188000000402402860024078020020140000207A
:1018900090F83E30202B0ED159B152B190F83C3027
:1018A000012B08D0012380F83C300023036300F0B3
:1018B00091BB0120704702207047704770470000BD
:1018C0002DE9F843044690F83D001F4616460D46A4
:1018D00020284CD1C5B1BEB194F83C00012846D0B7
:1018E000012084F83C004FF00008C4F8408021201B
:1018F00084F83D00FFF724FAA6848146E684A068B8
:10190000B0F5805F03D004E00120BDE8F8832069D2
:1019100028B12E465FF0000584F83C800EE00026DA
:10192000FAE78021204600F09FFBA0B9AEB116F87F
:10193000010B21684860E08C401EE084E08C4B463F
:101940004FF0000200970028EBD14FF040012046F5
:1019500000F08AFB30B10320D7E735F8020BC0F363
:101960000800E6E7202084F83D000020CDE70220B3
:10197000CBE77047FEE7000070B5514C0120A4F89A
:101980000002A4F802020A20A4F80402AA20A4F883
:101990000602B420A4F8080210202070B4F808024F
:1019A000C10901D040F08000B4F802126054B4F8CC
:1019B0000202401CA4F80202B4F80802C009A4F80C
:1019C0000802EBD1B4F8020200253D492554B4F8D1
:1019D0000222491C04205054B4F80232491C4D2202
:1019E0005A54B4F80232491C51225A54344AB4F8B9
:1019F0000232121D54219954B4F80232521C9954E7
:101A00002F49B4F80222891D50542D48B4F80222FF
:101A1000C01DC2211154B4F80212401C0D54B4F878
:101A20000222401C64211154B4F80212401C0D54CF
:101A3000B4F80222401C50211154B4F80212401C88
:101A4000084450221F4904F20224FEF7EAFB1C4816
:101A500021885C300D542288401C142111542188A7
:101A6000401C0844142218A1FEF7DBFB144821880F
:101A700072300D542288401C402111542188401C92
:101A8000084440221649FEF7CCFB208861880844B0
:101A9000A188084481B20A48FEF7FEFC00280ED057
:101AA000074810A1C83800F049FBBDE87040044960
:101AB00082B24FF6FF73C8391448FFF701BF70BDFB
:101AC00090050020002902084D5154547465737428
:101AD000266B30386C6377676D30547300000000FC
:101AE000BC280208436F6E6E656374B1A8CEC4B79C
:101AF000A2CBCDB3C9B9A62CB5C8B4FDB7FECEF103
:101B0000C6F7BBD8D3A60D0A00000000F0010020E4
:101B10000D4808B5016841F4001101600068002219
:101B200000F40010009011460C20FFF777F90C200C
:101B3000FFF766F9002211460E20FFF76FF9BDE8A6
:101B400008400E20FFF75CB9303802400D4808B558
:101B5000016841F080010160016801F0800100919D
:101B6000016841F002010160016801F00201009189
:101B7000016841F001010160006800F0010000907F
:101B800008BD0000303802400C4810B50A49016019
:101B90004FF4E1314160002181600C22C160C0E955
:101BA00004128161C161FFF78FFD002803D0BDE8F9
:101BB0001040FEF7ECBD10BD00100140F001002008
:101BC0000C4810B50A4901604FF4E1314160002131
:101BD00081600C22C160C0E904128161C161FFF71C
:101BE00073FD002803D0BDE81040FEF7D0BD10BD46
:101BF0000048004034020020FEE7FEE770477047CF
:101C0000FFF7A4B830B593B030216846FEF722FB49
:101C100014210CA8FEF71EFB1D480025016841F0A9
:101C200080510160006800F08050119019480168EF
:101C300041F4804101600068022400F4804011906A
:101C40000120039010200490009406940820CDE910
:101C50000750A820CDE9090404200B906846FFF73F
:101C6000FBF908B172B6FEE70CA90F2081E831003C
:101C70004FF4A0500F904FF48050109005210CA805
:101C8000FFF7FEF8002801D072B6FEE713B030BDB2
:101C900040380240007000400248016841F4700181
:101CA0000160704788ED00E010B5806B0021C185B0
:101CB000C184FFF7D4FB10BD70B5846B2068406908
:101CC00094F83D10C0F3C0100025212904D118B1AB
:101CD000E584204600F08AF82068406994F83E10B8
:101CE000C0F38010222904D118B1E585204600F008
:101CF00056F8206C40F0100020642046FFF7AFFB40
:101D000070BD10B50146806B09680968C9052FD4FC
:101D10000021C18501680C3151E8002F22F4807246
:101D200041E80023002BF5D10168143151E8002F60
:101D300022F0010241E80023002BF5D101681431A3
:101D400051E8002F22F0400241E80023002BF5D19A
:101D5000202180F83E10016B012909D101680C3166
:101D600051E8002F22F0100241E80023002BF5D1AA
:101D7000016B012902D0FFF7A0FD10BD818DFFF797
:101D800035FB10BD10B5806B016B012902D0FFF748
:101D900095FD10BD818D4908FFF728FB10BD016836
:101DA0000C3151E8002F22F4907241E80023002BFF
:101DB000F5D10168143151E8002F22F0010241E809
:101DC0000023002BF5D1016B012909D101680C31E9
:101DD00051E8002F22F0100241E80023002BF5D13A
:101DE000202180F83E1000210163704701680C310A
:101DF00051E8002F22F0C00241E80023002BF5D16A
:101E0000202180F83D10704708B590F83E10222937
:101E100001D0022008BD82684FF480539A4201D15C
:101E2000016921B1816A9A421BD04AB10AE0026875
:101E3000816A5268C2F308020A80816A891C08E03C
:101E4000026972B10268526802F07F020A70816A08
:101E5000491C8162C18D491E0904090CC18503D04A
:101E600019E002685268F1E70168CA6822F02002AE
:101E7000CA600168CA6822F48072CA6001684A694F
:101E800022F001024A61202180F83E10016B0129F5
:101E900003D0FFF712FD002008BD00210163016897
:101EA0000C3151E8002F22F0100241E80023002BF2
:101EB000F5D101680A68D20602D50A68496800911E
:101EC000818DFFF793FAE6E770B504460068016973
:101ED000E26821F44051114301612169A068E2697F
:101EE00008436169114308432168CA6849F20C63D9
:101EF0009A430243CA6020684169A26921F4407193
:101F00001143416131492068884202D030498842FA
:101F100002D1FFF75FF801E0FFF74CF8E269002318
:101F2000192164253226B2F5004F626828D0A0FB43
:101F30000101930F9200FEF743F90146B0FBF5F063
:101F40006FF01802504301EB800006EB0010B0FB6D
:101F5000F5F000F0F002B1FBF5F002EB0012B1FB7E
:101F6000F5F06FF01803584301EB800006EB00100A
:101F7000B0FBF5F000F00F0021681044886070BDE0
:101F8000A0FB010192185B41FEF71AF90146B0FB74
:101F9000F5F00201B1FBF5F06FF01803584301EBC7
:101FA000800006EBC000B0FBF5F000F0F80002EB9B
:101FB0004002B1FBF5F0584301EB800006EBC00096
:101FC000B0FBF5F000F00700D6E70000001001407C
:101FD0000014014038B5816282850025134604460D
:101FE0000564222084F83E00A26B1C48D063A26BDB
:101FF0001B481064A26B1B48D064A06B0A460565A1
:102000002168A06B091DFEF759FD20680168406832
:10201000009084F83C50206948B120680C3050E8AA
:10202000001F41F4807140E80012002AF5D12068B9
:10203000143050E8001F41F0010140E80012002A6E
:10204000F5D12068143050E8001F41F0400140E80D
:102050000012002AF5D1002038BD0000031D02083F
:10206000851D0208B91C02082DE9F0419846174663
:102070000E460446069D27E0681C25D02DB1FEF7CC
:102080005FFEA0EB0800A8421ED920680C3050E883
:10209000001F21F4D07140E80012002AF5D1206819
:1020A000143050E8001F21F0010140E80012002A1E
:1020B000F5D1202084F83D0084F83E00002084F80B
:1020C0003C000320BDE8F0812068006836EA00008B
:1020D00004D00020B842CFD00020F3E70120F9E778
:1020E0000148FFF7BDB90000F00100200F4808B516
:1020F00000680168C943C90612D4016840680090AD
:102100000A48FFF774F90B49094809684288496889
:10211000511A01800121017241680448FFF7B8FBA0
:10212000BDE808400148FFF79BB9000034020020D9
:102130001400002078020020FEE700000FB4084BD6
:1021400010B504A902AA039800F02CF8044602A9CD
:10215000002000F058FA204610BC5DF814FB000087
:10216000072602080907090E002804DB00F1E02019
:1021700080F80014704700F00F0000F1E02080F8B4
:10218000141D704702E008C8121F08C1002AFAD1C6
:1021900070477047002001E001C1121F002AFBD1E7
:1021A000704700002DE9FF4F8DB00F460546002611
:1021B00006E025280BD0DDE90F1290476D1C761C38
:1021C00028780028F5D111B03046BDE8F08F002402
:1021D000A246A1460122EC4900E0044315F8013F64
:1021E000203B02FA03F00842F7D128782A2810D0C1
:1021F0006FF02F022878A0F13001092914D80AEBDA
:102200008A0102EB410144F0020400EB010A6D1C5B
:10221000F0E701CF5FEA000A03D544F40054CAF1A5
:10222000000A44F002046D1C28782E2817D115F8F6
:10223000010F44F004042A280ED06FF02F022878F2
:10224000A0F1300109290AD809EB890102EB41010B
:1022500000EB01096D1CF2E757F8049B6D1C287810
:102260006C280FD006DC4C2817D068280DD06A28BF
:1022700014D104E0742810D07A280FD10DE044F472
:1022800000140AE044F4801401E044F44014697836
:10229000814202D104F580146D1C6D1C2A786E2ACF
:1022A0001FD00CDC632A31D004DC002A8BD0582AE2
:1022B00011D1A3E0642A68D0692A0CD165E0732AA1
:1022C0002ED004DC6F2A73D0702A04D19BE0752ACB
:1022D0006FD0782A6ED01046DDE90F129047761C39
:1022E00050E1C4F30250022806D0032809D0042884
:1022F00001CF09D0066045E101CFF117C0E90061C7
:1023000040E101CF06803DE106703BE117F8040B88
:102310008DF8000000208DF80100EB46012003E05D
:1023200057F804BB4FF0FF3061074FF0000102D4B3
:102330000DE008F10101884649450FDA8045F8DBD8
:102340001BF808100029F4D108E008F101018846C3
:102350008142FADB1BF808100029F6D1DDE90F23D2
:10236000AAEB08008146214600F036F9304400EB24
:10237000080604E0DDE90F121BF8010B9047B8F1E5
:102380000108F7D221464846F7E00A21C4F3025378
:102390004FF0000B0891022B04D001CFC117032B83
:1023A00009D00AE0FF1D27F00707F7E8020108E05F
:1023B00032E01FE020E000B2C117042B01D140B28F
:1023C000C117031E71F1000307DA4FF0000CD0EBC8
:1023D0000C006CEB01012D2302E0230504D52B2317
:1023E0008DF82430012303E0E30701D02023F7E731
:1023F000984658E00A2110E010210EE010204FF01E
:10240000000B08900CE010214FF0000B44F0040486
:102410004FF00809089103E008214FF0000B0891E4
:10242000C4F30253022B04D001CF0021032B06D0AA
:1024300006E0FF1D27F00707F7E8020103E080B27E
:10244000042B00D1C0B24FF0000823072BD5702A0F
:1024500007D0DDF820C08CF0100C5CEA0B0C05D026
:102460000EE040238DF82430012308E050EA0103F8
:1024700006D030238DF824308DF82520022398468D
:10248000DDF820C08CF0080C5CEA0B0C0BD150EA94
:10249000010301D1630706D530238DF824304FF0B6
:1024A0000108A9F10109582A04D038A20B9208AA00
:1024B0000A920BE03AA2F9E75B46089AFDF780FE24
:1024C0000B9B9B5C0A9A521E0A92137050EA0102FF
:1024D000F2D10A98ADEB000000F1200B600702D5A5
:1024E00024F4803401E04FF00109D94502DDA9EB65
:1024F0000B0000E0002000EB0B0141440890AAEB28
:10250000010AE00306D4DDE90F232146504600F01E
:1025100063F806444FF0000908E009A911F8090022
:10252000DDE90F12904709F10109761CC145F4DB82
:10253000E0030CD5DDE90F232146504600F04CF8AE
:10254000064404E0DDE90F1230209047761C08991C
:10255000481E08900029F5DC08E00A980A990078DE
:10256000491C0A91DDE90F129047761CBBF100016E
:10257000ABF1010BF1DC21465046DDE90F2300F001
:1025800019F806446D1C1BE609280100303132336E
:10259000343536373839616263646566000000009F
:1025A0003031323334353637383941424344454689
:1025B000000000002DE9F041044600251E461746A4
:1025C000880404D405E039462020B0476D1C641E01
:1025D000F9D52846BDE8F0812DE9F04104460025F3
:1025E0001E469046C80301D5302700E02027880406
:1025F00004D505E041463846B0476D1C641EF9D548
:102600002846BDE8F0810A68531C0B6010707047C3
:102610004C484D49086062B6FEF7A0FBFFF7F2FA9E
:10262000FFF794FAFFF774FAFFF7AEFAFFF7C8FA6C
:1026300046A14748FFF782FD82B24FF6FF76334648
:1026400043494448FFF73CF943A14148FFF776FD71
:1026500082B233463E493F48FFF732F948A13C4831
:10266000FFF76CFD82B2334639493A48FFF728F943
:102670004DA13748FFF762FD82B2334634493548F1
:10268000FFF71EF952A13248FFF758FD82B23346D8
:102690002F493048FFF714F957A12D48FFF74EFD99
:1026A00082B233462A492B48FFF70AF934A1284859
:1026B000FFF744FD82B2334625492648FFF700F96B
:1026C00025A12348FFF73AFD82B23346204921482D
:1026D000FFF7F6F8FDF768FEDFF84481514D4446F8
:1026E00098F808000028FAD00020207218482288A4
:1026F000C8306168FDF795FD2088154F00242880BB
:10270000C8370BE03A5D48A11148FFF717FD82B2C8
:1027100033460F490F48FFF7D3F8641C28888442DA
:10272000F0DB0AA10A48FFF709FD82B233460849E7
:102730000848FFF7C5F806482988C830FDF77CFF30
:10274000CDE700000000020808ED00E00D0A0000DF
:1027500028000020F00100202A2A2A2A2A2A2A2AD0
:102760002A2A2A2A2A2A2A2A2A2A2A2A2A2A2A2AC9
:102770002A2A2A2A2A2A2A2A2A2A2A0D0A00000074
:102780002A2020202020202020202020202020203F
:102790002020202020202020202020202020202039
:1027A00020202A0D0A0000002A202020202020427C
:1027B0002D426F6F742D46342773204170706C6901
:1027C000636174696F6E202020202A0D0A000000CA
:1027D0002A20202020202020202020466F722074D4
:1027E000686520746573742020202020202020201C
:1027F00020202A0D0A0000002A202020202020204E
:10280000202056657273696F6E203A2020302E3179
:10281000202020202020202020202A0D0A00000037
:102820001400002000000020253032782000000035
:10283000F0B50B30154D20F007010024144A0FE0CD
:1028400003688B420BD38B4205D95E1A4318476845
:10285000C3E9006700E04368136002C004E0021DA2
:1028600010680028ECD12046002802D1286808B161
:102870000020F0BD064A07481060074A121A22F0ED
:102880000702C0E9002401202860D7E724000020C7
:1028900020000020A4070020A00900200006101638
:1028A00000061016000000000000000001020304F2
:1028B00006070809000000000102030431663962BE
:1028C0006534333835646465343530626438613476
:1028D0003035396166356666636364323565326109
:1028E0003665396136373264643636366437666247
:1028F0003235313363353933343139630000000008
:102900006B30386C6377676D3054732E4D5154546F
:10291000746573747C7365637572656D6F64653D12
:10292000322C7369676E6D6574686F643D686D61A4
:10293000637368613235362C74696D657374616DCB
:10294000703D313639353139383831333630347CB1
:102950000000000074290208000000202800000088
:10296000842102089C29020828000020780D00001C
:102970009421020800000000010000001000000087
:10298000000000000024F4000000F401000000003A
:0C2990000000000000000000000000003B
:040000050802018963
:00000001FF
