:020000040802F0
:10000000A00F00209D0102089F220208411C020847
:100010009D22020819030208DD27020800000000E3
:10002000000000000000000000000000A322020801
:10003000590A020800000000A1220208A5220208B5
:10004000B7010208B7010208B7010208B7010208A8
:10005000B7010208B7010208B7010208B701020898
:10006000B7010208B7010208B7010208B701020888
:100070001D030208B701020829030208B70102089C
:10008000B7010208B7010208B7010208B701020868
:10009000B7010208B7010208B7010208B701020858
:1000A000B7010208B7010208B7010208B701020848
:1000B000B7010208B7010208B7010208B701020838
:1000C000B7010208B7010208B7010208B701020828
:1000D000B701020885270208B70102089127020824
:1000E000B7010208B7010208B7010208B701020808
:1000F000B7010208B7010208B7010208B7010208F8
:10010000B7010208B7010208B7010208B7010208E7
:10011000B7010208B7010208B7010208B7010208D7
:10012000B7010208B7010208B7010208B7010208C7
:10013000B7010208B7010208B7010208B7010208B7
:10014000B7010208B7010208B7010208B7010208A7
:10015000B7010208B7010208B7010208B701020897
:10016000B7010208B7010208B7010208B701020887
:10017000B7010208B7010208B70102080000000039
:10018000B7010208B7010208DFF80CD000F0B2F89E
:1001900000480047D92C0208A00F002006488047DD
:1001A00006480047FEE7FEE7FEE7FEE7FEE7FEE75C
:1001B000FEE7FEE7FEE7FEE73D23020889010208AD
:1001C0002DE9F05F0546002092469B46884606468C
:1001D000814640241BE0284641464746224600F01F
:1001E00079F853465A46C01A914110D31146184621
:1001F000224600F060F82D1A67EB01084F462246B0
:100200000120002100F057F817EB00094E41201E95
:10021000A4F10104DFDC484631462A464346BDE8E6
:10022000F09F40EA01039B0703D009E008C9121FB1
:1002300008C0042AFAD203E011F8013B00F8013BA0
:10024000521EF9D27047D2B201E000F8012B491ECC
:10025000FBD270470022F6E710B513460A46044663
:100260001946FFF7F0FF204610BD30B505462A4677
:100270000B4612F8010B13F8014B08B1A042F8D05D
:100280001CB1002802D06D1CF1E7284630BD421C8D
:1002900010F8011B0029FBD1801A704730B50446C5
:1002A0000020034600E05B1C934203D2E05CCD5C7F
:1002B000401BF8D030BD202A04DB203A00FA02F1BE
:1002C000002070479140C2F1200320FA03F3194344
:1002D00090407047202A04DB203A21FA02F00021E6
:1002E000704721FA02F3D040C2F120029140084346
:1002F00019467047064C074D06E0E06840F00103E0
:1003000094E8070098471034AC42F6D3FFF740FF5B
:100310002030020840300208FEE70000014800F0EB
:10032000F9BB00007C020020014800F0F3BB000094
:10033000DC02002001681823CAB2103AB2FBF3F2C3
:10034000054B6FF30901032A9B5CC36500D9091DA6
:100350008165084670470000682F020810B5014605
:1003600000208B698A6A4FF0C07453B1B3F5005F07
:1003700015D072B1012A0CD0022A0AD0032A09D161
:1003800004E01AB1012A06D0022A03D1C96AC901C0
:1003900000D5012010BDC96AA142FAD010BD002AC3
:1003A000F7D0012AF2D0022AF3D0032AF3D010BDED
:1003B00030B50468256825F48025256004686360ED
:1003C0008368402B036803D099600068C26030BD29
:1003D0009A600068C16030BD2DE9F0411FA124483A
:1003E00002F0FEF982B24FF6FF752B4620492148F4
:1003F00001F0CCFB204C4FF47A7700261C481FA15B
:10040000C83002F0EDF91A4982B22B46C8311C48B7
:1004100001F0BCFB384600F0EFFC207A0028EDD05C
:100420002672606800786128E8D116A1104802F0B1
:10043000D7F982B22B460E490E4801F0A7FB0C48B3
:1004400014A1C83002F0CCF92B46BDE8F0410849B0
:1004500082B2C8310A4801F099BB0000BDF8C8EB70
:10046000D6B8C1EEC4A3CABD2E2E2E0D0A000000C0
:100470003C030020F4010020180000202B2B2B004F
:1004800038020020CDCBB3F6CDB8B4ABC4A3CABDFF
:100490000D0A00006100000010B506A1084802F036
:1004A0009FF982B2BDE810404FF6FF73044905483A
:1004B00001F06CBB41542B454E544D0D0A00000019
:1004C00004040020380200200A4610B501464FF609
:1004D000FF73044801F05AFB08B1002010BD012051
:1004E00010BD00003802002010B530A23BA13F48EB
:1004F00002F076F982B24FF6FF7423463B493C483E
:1005000001F044FB1E2000F077FC3AA1374802F0CE
:1005100067F982B223463549354801F037FB1E2082
:1005200000F06AFC37A1314802F05AF982B2234642
:100530002E492F4801F02AFB1E2000F05DFC36A159
:100540002A4802F04DF982B223462849284801F092
:100550001DFB1E2000F050FC34A1244802F040F99D
:1005600082B223462149224801F010FB1E2000F0F0
:1005700043FC33A11D4802F033F982B223461B49E4
:100580001B4801F003FB1E2000F036FC34A1174885
:1005900002F026F982B223461449154801F0F6FA12
:1005A000BDE810401E2000F027BC00005443502C32
:1005B000696F742D30363061373074712E6D7174FF
:1005C000742E696F746875622E616C6979756E63DB
:1005D000732E636F6D2C31383833000041542B5328
:1005E0004F434B413D25730D0A00000004040020D9
:1005F0003802002041542B534F434B41454E3D4F51
:100600004E0D0A0041542B534F434B42454E3D4F34
:1006100046460D0A0000000041542B534F434B4304
:10062000454E3D4F46460D0A0000000041542B53F5
:100630004F434B44454E3D4F46460D0A00000000D7
:1006400041542B48454152543D4F4E2C4E45542C5D
:10065000555345522C36302C433030300D0A0000B3
:1006600041542B530D0A00002DE9F0410D4604467C
:100670004FF6FF76052902D00F2D15D019E006227E
:1006800073A1FFF70BFEA0B973A17B4802F0A8F895
:1006900082B233467849794801F078FAFFF724FFAF
:1006A000BDE8F041FFF7F8BE0F2275A1FFF7F6FD98
:1006B00048B10A2276A12046FFF7F0FD28B1774F16
:1006C000042D10D012E076A16DE079A16A4802F005
:1006D00087F882B233466849684801F057FABDE8A6
:1006E000F04101F0AFBA2078202805D038780028F2
:1006F00070D0052D25D027E072A15F4802F070F878
:1007000082B233465C495D4801F040FAE07808B1B6
:1007100070A130E075A1584802F062F882B2334609
:100720005549564801F032FA0120387075A001F0A1
:10073000BBFC4FF4FA7000F05FFBBDE8F04101F044
:1007400075BC2078902807D02078B02820D0302899
:1007500041D0402877D01EE072A1474802F040F80F
:1007600082B233464449454801F010FA207968B115
:1007700001280BD06FA1404802F032F882B2334614
:100780003D493E4801F002FA02F04EF86FA10AE03E
:100790006178022912D0022D57D1D02855D1607826
:1007A000002852D16FA1344802F01AF83346BDE850
:1007B000F04182B23049314801F0E8B96CA12E48CD
:1007C00002F00EF882B233462B492C4801F0DEF9D4
:1007D0006BA1E8E739E070A1274802F001F882B286
:1007E00033462549254801F0D1F92946204601F034
:1007F000DFFA74486FA10446FFF737FD68B172A1B4
:100800001D4801F0EDFF82B233461B491B4801F041
:10081000BDF970A176A001F0E9FA7DA12046FFF7AD
:1008200024FD002811D07EA1134801F0D9FF82B227
:1008300033461149114801F0A9F9BDE8F0417BA107
:100840006BA001F0D3BA80A1ADE7BDE8F081000054
:100850002B6F6B0D0A000000BDF8C8EBD6B8C1EED7
:10086000C4A3CABDA3ACC9E8D6C3B7FECEF1C6F7D0
:100870002E2E2E0D0A0000003C030020F401002063
:1008800041542B454E544D0D0D0A4F4B0D0A00009F
:100890005553522D445231353200000014000020CF
:1008A000CDCBB3F6D6B8C1EEC4A3CABD210D0A00A4
:1008B000436F6E6E656374B7FECEF1C6F72E2E2EB3
:1008C0000D0A0000CAD5B5BD434F4E4E41434B21E2
:1008D0000D0A0000436F6E6E656374B7FECEF1C6FD
:1008E000F7CAA7B0DC210D0A00000000436F6E6E4E
:1008F000656374B7FECEF1C6F7B3C9B9A6210D0A78
:10090000000000002F6B30386C6377676D305473D4
:100910002F4D515454746573742F757365722F671E
:1009200065740000CAD5B5BD53554241434B210DF6
:100930000A000000537562736372696265B1A8CEE4
:10094000C4CAA7B0DC210D0A000000005375627311
:100950006372696265B1A8CEC4B3C9B9A6210D0A94
:1009600000000000C9E8B1B8B4E6BBEE210D0A00F2
:10097000CAD5B5BD554E53554241434B210D0A00D2
:10098000556E537562736372696265B1A8CEC4B364
:10099000C9B9A6210D0A0000CAD5B5BDB5C8BCB6F7
:1009A00030B5C45075626C697368B1A8CEC4210DAE
:1009B0000A0000007B2273776974636831223A3041
:1009C0007D00000094070020B9D8B1D5BFAAB9D8DE
:1009D0000D0A00007B22706172616D73223A7D7B8B
:1009E0002273776974636831223A307D0000000019
:1009F0002F6B30386C6377676D3054732F4D5154C3
:100A000054746573742F757365722F706F737400EF
:100A10007B2273776974636831223A317D0000006C
:100A2000B4F2BFAABFAAB9D80D0A00007B22706138
:100A300072616D73223A7D7B2273776974636831CA
:100A4000223A317D00000000CAD5B5BD5055424163
:100A5000434B210D0A000000704772B6FEE72DE9F6
:100A6000F0410446876D00F0D1FA064694F835004F
:100A70000025022806D08020606584F834500120CB
:100A8000BDE8F0812068016821F01601016020684E
:100A9000416921F080014161206C08B9A06C20B14E
:100AA0002068016821F0080101602068016821F0D8
:100AB000010101600CE000F0A9FA801B052807D9AC
:100AC00020206065032084F8350084F83450D7E78F
:100AD00020680068C007EED194F85C103F20884081
:100AE000B860012084F8350084F834500020C7E74E
:100AF00090F83510022903D080214165012070470C
:100B0000052180F835100068016821F001010160BD
:100B1000002070472DE9F84304464FF00009CDF856
:100B2000009063484FF41651A56D0068B0FBF1F7D3
:100B30002E6894F85C10082000FA01F131420FD0C1
:100B400021680A6852070BD50A6822F004020A607D
:100B500094F85C108840A860606D40F0010060650A
:100B600094F85C104FF0010808FA01F0304208D008
:100B700021684969090604D5A860606D40F002004B
:100B8000606594F85C1004208840304208D02168E9
:100B90000968890704D5A860606D40F004006065AD
:100BA00094F85C1010208840304218D02168096801
:100BB000090714D5A86020680168490304D50068B6
:100BC000000308D5A16C07E00168C90503D40168DA
:100BD00021F008010160216C09B12046884794F892
:100BE0005C1020208840304231D021680968C90655
:100BF0002DD5A86094F8350005282068016806D036
:100C0000490347D5006800031DD4616C1CE021F046
:100C1000160101602068416921F080014161206C6A
:100C200008B9A06C20B12068016821F008010160BA
:100C300094F85C103F208840A86084F8358084F8E0
:100C40003490216D1FE0E16B09B120468847606D4B
:100C500000282BD0606DC00714D0052084F8350023
:100C60002068016821F0010101600098401C00909B
:100C7000B84203D820680068C007F6D184F83580F0
:100C800084F83490E16C002910D001B02046BDE812
:100C9000F04308470168C905D5D4016821F0100167
:100CA000016084F8358084F83490CCE7BDE8F8839F
:100CB000100000202DE9F041044600F0A7F9064697
:100CC0005CB1022084F83500002584F83450206897
:100CD000016821F0010101600DE00120BDE8F08113
:100CE00000F094F9801B052805D9202060650320B9
:100CF00084F83500F2E720680068C007F0D1226868
:100D0000116820480140D4E901031843D4E90336AF
:100D10003343184363691843A3691843E3691843CD
:100D2000236A18430843616A042903D1D4E90B13E9
:100D300019430843106020684069666A20F0070183
:100D400030460E43012704280CD1A06A0643E06A0E
:100D500040B12046FFF702FB20B14020606584F8D7
:100D60003570BAE7206846612046FFF7E3FA94F849
:100D70005C203F2191408160656584F835700020DA
:100D8000ACE700003F8010F02DE9F0410446866D8D
:100D900090F83400002501280DD0012084F834009B
:100DA00094F835700020012F07D084F83400022514
:100DB0002846BDE8F0810220FBE7022784F8357061
:100DC00060652046FFF7F4FA94F85C103F208840F5
:100DD000B0602068016841F016010160206C20B10C
:100DE0002068016841F0080101602068016841F055
:100DF00001010160DCE7000070B5044600F006F96F
:100E00000546601C02D004480078044400F0FEF857
:100E1000401BA042FAD370BD040000202DE9F84F1A
:100E2000DFF8BCA10022012503264FF00F090AF1CB
:100E3000040BAAF1040E00BF0B6805FA02F423406C
:100E4000A34270D10F7907F00307012F01D0022FC1
:100E500016D187684FEA420806FA08FC27EA0C0711
:100E6000D1F80CC00CFA08FC4CEA070CC0F808C01A
:100E70004768A7430C79C4F3001494403C43446092
:100E80000C79E443A4070AD0C4684FEA420C06FA7E
:100E90000CF7BC438F6807FA0CF72743C7600C793F
:100EA00004F00304022C12D1D40800EB840CDCF80B
:100EB00020405707FF0E09FA07F824EA0804D1F882
:100EC000108008FA07F848EA0408CCF82080046883
:100ED0004FEA420C06FA0CF7BC430F7907F0030700
:100EE00007FA0CF7274307604C6814F4403F70D0B2
:100EF0003C4C276847F480472760246822F00307AA
:100F000004F480440094384C07EB040CDCF80848E7
:100F100097074FEA177809FA08F7BC43334FB842EE
:100F200002D1002724E054E0314FB84201D101271B
:100F30001EE0304FB84201D1022719E02E4FB842CF
:100F400001D1032714E02D4FB84201D104270FE04F
:100F50002B4FB84201D105270AE02A4FB84201D1F0
:100F6000062705E0284FB84201D1072700E00827EF
:100F700007FA08F72743CCF80878DAF80040574614
:100F8000D1F804C09C435FEACC2C00D51C433C60E4
:100F9000DBF800405F46D1F804C09C435FEA8C2C2C
:100FA00000D51C433C60DEF800407746D1F804C011
:100FB0009C435FEA8C3C00D51C433C60084F083FD3
:100FC0003C68D1F804C09C435FEACC3C00D51C438C
:100FD0003C60521C102AFFF42FAFBDE8F88F0000D0
:100FE000083C01404438024000300140000002400B
:100FF0000004024000080240000C024000100240C1
:101000000014024000180240001C024001488068A1
:1010100070470000040000200248816802781144F3
:1010200081607047040000200B4810B5016841F44E
:1010300000710160016841F480610160016841F460
:1010400080710160032000F06FF80F2000F006F8B7
:1010500000F024F8002010BD003C024070B50D4D9A
:1010600004464FF47A712878B1FBF0F00A49096818
:10107000B1FBF0F000F00CFB48B9102C07D20022B5
:101080002146501E00F030F800206C6070BD012039
:1010900070BD000004000020100000200A4808B5C0
:1010A000016841F480410160006800F480400090D4
:1010B0000548001F016841F080510160006800F0A0
:1010C0008050009008BD000044380240002809DB31
:1010D00000F01F02012191404009800000F1E02052
:1010E000C0F8001170470000F0B40E4B1B680C46AE
:1010F000C3F30223C3F10705042D00D90425191DEC
:10110000072901D2002300E0DB1E012606FA05F1C3
:10111000491E214099409E40761E16403143F0BC46
:1011200001F072BB0CED00E0064900F00702086810
:101130004FF6FF03184040EA0220034A10430860BC
:10114000704700000CED00E00000FA052DE9F047C3
:101150000E46050065D0DFF81481D8F80000F7B21C
:1011600000F00700B04207D288F80070D8F80000FD
:1011700000F00700B04254D128683D4C810712D5D9
:10118000400703D5206840F4E0502060287800072D
:1011900003D5206840F4604020602068A96820F0F2
:1011A000F000084320602878C0072DD030496868D7
:1011B0000839012812D0022813D0032811D0096859
:1011C000890700292DDA216821F0030101432160FC
:1011D000FFF71CFF814641F2883A0EE00968890357
:1011E000EFE709688901ECE7FFF710FFA0EB0901C1
:1011F000514502D90320BDE8F0872068696800F0F6
:101200000C00B0EB810FEFD1D8F80010404601F090
:101210000701B14207D90770006800F00700B0422B
:1012200001D00120E7E72878400705D52068E96864
:1012300020F4E050084320602878000706D5206895
:10124000296920F4604040EAC100206000F038F8CD
:101250002168084AC1F30311515CC840064908607F
:1012600006480068FFF7FAFE0020C4E7003C024091
:1012700008380240702F02081000002008000020EB
:101280000448054900680968044AC1F38221515C99
:10129000C84070471000002008380240802F020824
:1012A0000448054900680968044AC1F34231515CA9
:1012B000C84070471000002008380240802F020804
:1012C000154810B5006810F00C02144813D01449EA
:1012D000042A0FD0082A0ED10F4C241F226823683D
:1012E00002F03F025B0207D52068C0F38810A0FB24
:1012F000010106E0084610BD2168C1F38811A1FB79
:1013000000010023FEF75CFF2168C1F30141491C85
:101310004900B0FBF1F010BD083802400024F40091
:1013200040787D012DE9F84F04006ED02078DFF879
:101330004C93C007A9F104054AD009F104000168E3
:10134000C1F38101012908D00068C0F3810002289F
:101350000AD1D9F80000400206D52868800337D5A5
:1013600060680028E1D033E06068B0F5803F10D0BD
:10137000B0F5A02F286810D020F4803028602868AD
:1013800020F4802028606068A8B1FFF73FFE064681
:101390000DE0286840F48030F4E740F480202860B5
:1013A000F7E700BFFFF732FE801B642873D8286878
:1013B0008003F7D50CE0FFF729FE064605E000BFE5
:1013C000FFF724FE801B6428F0D828688003F7D438
:1013D0002078DFF8AC8280074FF0000A3ED5A7489E
:1013E000001D016811F00C0F08D00068C0F38100E7
:1013F00002280BD1D9F80000400207D428688007E2
:1014000016D5E068012800D112E033E1E068B8B1F8
:101410000120C8F80000FFF7F9FD064605E000BF0F
:10142000FFF7F4FD801B0228C0D828688007F7D595
:101430002868216920F0F80040EAC10028600DE02A
:10144000C8F800A0FFF7E2FD064604E0FFF7DEFD66
:10145000801B02281FD828688007F7D4207800074F
:1014600022D5864F87486169703771B101210160CB
:10147000FFF7CCFD064604E0FFF7C8FD801B0228FD
:1014800009D838688007F7D50EE0C0F800A0FFF74C
:10149000BDFD064605E082E0FFF7B8FD801B02288F
:1014A0007DD838688007F7D42078400768D5DFF802
:1014B000CCB100270BF13C0BDBF80000C0000BD4D3
:1014C000DBF8001041F08051CBF80010DBF8000091
:1014D000012700F0805000906B4E3068C00510D49A
:1014E000306840F480703060FFF790FD009005E0B8
:1014F000FFF78CFD0099401A022850D83068C005CB
:10150000F6D55E4EA0686C3601280FD005283068ED
:1015100010D020F001003060306820F0040030600E
:10152000A068B8B1FFF772FD00900FE0306840F09E
:101530000100F4E740F004003060F7E7FFF766FDD4
:101540000099411A41F28830814266D8306880079C
:10155000F4D50EE0FFF75AFD009007E0FFF756FDC7
:101560000099411A41F28830814256D8306880078C
:10157000F4D42FB1DBF8001021F08051CBF800102B
:10158000A069C8B33D49091D0968C1F38101022959
:101590004AD00228504607D0C8F8600000E03CE07E
:1015A000FFF734FD04463BE04746C8F86000FFF70C
:1015B0002DFD064605E000BFFFF728FD801B022831
:1015C0002BD828688001F7D4D4E907010843A16A21
:1015D0002E4A490802EB0141626A41EA821108433E
:1015E00094F82C1040EA0161C9F800100120386617
:1015F000FFF70CFD044606E03EE000BFFFF706FDE6
:10160000001B022809D828688001F7D534E000BF04
:10161000FFF7FCFC001B022802D90320BDE8F88F6D
:1016200028688001F4D427E00128F7D0D9F8000019
:10163000E26900F4800191421CD1226A00F03F016E
:10164000914217D147F6C071626A0140B1EB821F27
:1016500010D1A26A4FF0FF3300F4403103EB520285
:10166000B1EB024F06D194F82C1000F07060B0EB93
:10167000016F01D00120D1E70020CFE704380240FC
:1016800000004742800E4742007000400000FFFF0C
:1016900010B5401EB0F1807F01D3012010BD4FF086
:1016A000E02460610F21601701F0AEF80020A06116
:1016B00007202061002010BD704710B50446006867
:1016C000406994F83D10C0F3C010212911D180B1B8
:1016D0002068143050E8001F21F0800140E800121B
:1016E000002AF5D1606B08B1FFF7B9F9204600F088
:1016F000CFFE2068406994F83E10C0F38010222984
:1017000011D180B12068143050E8001F21F0400151
:1017100040E80012002AF5D1A06B08B1FFF79FF94D
:10172000204600F08EFE002010BD7047F8B501681D
:1017300004460868CA684B6910F00F0F4FF00005A7
:1017400059D003F0010602F49077374365D0C10702
:1017500005D0D10503D5216C41F001012164410779
:1017600005D5D90703D0216C41F00201216481071E
:1017700005D5D90703D0216C41F00401216401078C
:1017800007D502F02001314303D0216C41F008015C
:101790002164216C00293AD0800604D5900602D538
:1017A000204600F083FE20684069216CC0F3801061
:1017B000090700D460B3204600F043FE206840696A
:1017C000400621D52068143050E8001F21F0400168
:1017D00040E80012002AF5D1A06BA8B16C49016560
:1017E000A06BFFF785F9002811D0A06B016D01B047
:1017F000BDE8F040084783060FD593060DD5204677
:10180000BDE8F84000F052BE2046FFF78EFFF8BD5D
:101810002046FFF78AFF2564F8BD266B2023012EA2
:1018200079D1C60677D5D60675D508684868009080
:101830004869400640D5A16B086840680004000C68
:10184000EAD0A28D8242E7D9E085C869B0F5807FF1
:101850002DD020680C3050E8001F21F4807140E842
:101860000012002AF5D12068143050E8001F21F042
:10187000010140E80012002AF5D12068143050E838
:10188000001F21F0400140E80012002AF5D184F841
:101890003E30256320680C3050E8001F21F0100115
:1018A00040E80012002AF5D1A06BFFF7D8F8A08D10
:1018B000E18D401A81B229E0A08DE18D401A81B2FC
:1018C000E08D0028A8D00029A6D020680C3050E870
:1018D000002F22F4907240E80026002EF5D12068F7
:1018E000143050E8002F22F0010240E80026002EBC
:1018F000F5D184F83E30256320680C3050E8002F85
:1019000022F0100240E80023002BF5D12046FFF71B
:10191000D3FEF8BDFFE705062BD5150629D594F8AB
:101920003D002128F5D1A068B0F5805F01D1206984
:10193000B0B1206A411C2162216800784860E08CC7
:10194000401E0004000CE084E3D12068C16821F04F
:101950008001C1602068C16841F04001C160D8E7E2
:10196000206A0088C0F308004860206A801C20625A
:10197000E5E74006CDD55006CBD5CA68204622F013
:101980004002CA6084F83D3000F059F9C1E7000018
:101990004D23020870B5040004D094F83D000025E2
:1019A00010B106E0012070BD84F83C50204600F0E4
:1019B00023F8242084F83D002068C16821F40051F8
:1019C000C160204600F0D2FD2068016921F49041F9
:1019D00001612068416921F02A0141612068C168E4
:1019E00041F40051C1602564202084F83D0084F852
:1019F0003E00002070BD00002DE9F04186B0064693
:101A000014216846FEF726FC4C4F31684C480222F0
:101A1000032307250024B94225D1494914310E6812
:101A200046F010060E60096801F01001059101688A
:101A300041F0010101600068694600F00100059075
:101A400058028DE81500CDE903353E48FFF7E6F969
:101A5000002211462520FFF747FB2520FFF736FB24
:101A600006B0BDE8F081384FB942F9D134491031A0
:101A70000F6847F480270F60096801F48021059101
:101A8000016841F0020101600068694600F002004F
:101A900005904FF440608DE81500CDE903352B48E3
:101AA000FFF7BCF92B4D2A484FF000672860C5E9C5
:101AB00001744FF48068C5E903486C61AC61EC6166
:101AC0002C6228466C62FFF7F5F808B1FEF7C5FFF7
:101AD000B563AE631F4D1E4860353030E5E8020740
:101AE0004020A5E811011B4845F814496030AC615D
:101AF000EC612C626C62FFF7DDF808B1FEF7ADFF18
:101B00007563002211462720AE63FFF7EDFA272008
:101B1000FFF7DCFA104C608801F0F0F901466060D4
:101B20000C486288443800F019F80A4844380068C4
:101B3000C16841F01001C16092E70000001001404F
:101B400030380240000002400048004000040240DB
:101B5000286002407C0200201800002090F83E30EF
:101B6000202B0ED159B152B190F83C30012B08D046
:101B7000012380F83C300023036300F07DBD012089
:101B80007047022070477047704700002DE9F84306
:101B9000044690F83D001F4616460D4620284CD1BD
:101BA000C5B1BEB194F83C00012846D0012084F8AC
:101BB0003C004FF00008C4F84080212084F83D002C
:101BC000FFF724FAA6848146E684A068B0F5805F1A
:101BD00003D004E00120BDE8F883206928B12E4637
:101BE0005FF0000584F83C800EE00026FAE78021D3
:101BF000204600F08BFDA0B9AEB116F8010B2168AC
:101C00004860E08C401EE084E08C4B464FF00002C0
:101C100000970028EBD14FF04001204600F076FD00
:101C200030B10320D7E735F8020BC0F30800E6E730
:101C3000202084F83D000020CDE70220CBE770474C
:101C4000FEE7000070B5464C0120A4F80004A4F89B
:101C500002040A20A4F80404AA20A4F80604B4206C
:101C6000A4F808041020207000F0C6F9B4F80204AB
:101C70000025611C2554B4F8022404205054B4F803
:101C80000234491C4D225A54B4F80234491C5122E2
:101C90005A54B4F80234221D54219954B4F8023431
:101CA000521C9954B4F80224A11D5054B4F80224D3
:101CB000E01DC2211154B4F80214401C0D54B4F8B4
:101CC0000224401C64211154B4F80214401C0D5429
:101CD000B4F80224401C50211154B4F80214401CE2
:101CE000084450221F4904F20244FEF79AFA1C48A5
:101CF00021885C300D542288401C14211154218805
:101D0000401C0844142218A1FEF78BFA14482188BD
:101D100072300D542288401C402111542188401CEF
:101D2000084440221649FEF77CFA2088618808445E
:101D3000A188084481B20A48FEF7C6FB00280ED0ED
:101D4000074810A1C83800F04BFDBDE870400449B9
:101D500082B24FF6FF73C8391448FFF717BF70BD42
:101D600094050020CC2F02084D51545474657374AF
:101D7000266B30386C6377676D3054730000000059
:101D8000882F0208436F6E6E656374B1A8CEC4B726
:101D9000A2CBCDB3C9B9A62CB5C8B4FDB7FECEF160
:101DA000C6F7BBD8D3A60D0A00000000F40100203E
:101DB0002DE9F0410F4605460024285D000603D5B5
:101DC000641CE4B2052CF8D307484FF400710646B2
:101DD000FEF740FA29193A1B3046BDE8F041C91C0C
:101DE000D21EFEF71EBA0000940700202DE9F04134
:101DF000304C06460120A4F802040D463046FEF79A
:101E000046FA801CA4F804042846FEF740FAA4F819
:101E10000604B4F804140844A4F808043020207020
:101E200000F0EAF83046FEF732FAB4F80214000A7D
:101E300060543046FEF72BFAB4F80224611C50546B
:101E40003046FEF724FA0246B4F80214A01C0844F7
:101E50003146FEF7E6F92846FEF719FA07463046FE
:101E6000FEF715FAB4F80214801C214408443A46DF
:101E70002946FEF7D6F9B4F80204B4F8041408446D
:101E8000B4F80614084481B22046FEF71DFB002872
:101E90000ED009A1A4F1C80000F0A2FCA4F1C80171
:101EA000BDE8F04182B24FF6FF730A48FFF76EBEFD
:101EB000BDE8F081940500205075626C697368512B
:101EC0007330B1A8CEC4B7A2CBCDB3C9B9A6210D8A
:101ED0000A000000F40100202DE9F0413D4C0646C7
:101EE0000120A4F802040D463046FEF7D0F9001D8B
:101EF000A4F804042846FEF7CAF9A4F80604B4F8C6
:101F000004140844A4F808043220207000F074F887
:101F10003046FEF7BCF9B4F80214000A60543046AB
:101F2000FEF7B5F9B4F80224611C50543046FEF7B0
:101F3000AEF90246B4F80214A01C08443146FEF77C
:101F400070F93046FEF7A3F9B4F80214B4F800248F
:101F50002144801C120A0A543046FEF798F9B4F85E
:101F60000214C01C0A1994F800141154B4F80004A7
:101F7000401CA4F800042846FEF789F907463046BD
:101F8000FEF785F9B4F80214001D214408443A46CE
:101F90002946FEF746F9B4F80204B4F804140844DC
:101FA000B4F80614084481B22046FEF78DFA0028E2
:101FB0000ED009A1A4F1C80000F012FCA4F1C801E0
:101FC000BDE8F04182B24FF6FF730A48FFF7DEBD6D
:101FD000BDE8F081940500205075626C697368510A
:101FE0007331B1A8CEC4B7A2CBCDB3C9B9A6210D68
:101FF0000A000000F40100200B4800BFB0F80814EC
:10200000CA0901D041F08001B0F802248154B0F82F
:102010000214491CA0F80214B0F80814C909A0F869
:102020000814EBD1704700009405002000B5A1B062
:1020300080216846FEF70EF905A207A1684600F068
:10204000CFFB69460EA0FFF747FF21B000BD00009F
:1020500056302E31000000007B226964223A202293
:1020600031222C22706172616D73223A207B2276BC
:10207000657273696F6E223A20222573227D7D007E
:102080002F6F74612F6465766963652F696E666F63
:10209000726D2F6B30386C6377676D3054732F4DD2
:1020A000515454746573740070B5364C0546012064
:1020B000A4F802040220A4F804042846FEF7E7F876
:1020C000C01CA4F80604B4F804140844A4F80804D6
:1020D00082202070FFF790FFB4F80004B4F80214D7
:1020E000000A6054B4F80224611C94F800045054AF
:1020F000B4F80004401CA4F80004284604F58064E9
:10210000FEF7C5F8010A1F486288801C1154284652
:10211000FEF7BDF81B496288C91C50542846FEF7DB
:10212000B6F8024617486188001D08442946FEF7A4
:1021300078F82846FEF7ABF86188A4F5806421445E
:10214000001D00220A54B4F80204B4F80414084430
:10215000B4F80614084481B20A48FEF7B5F900281D
:102160000ED0084808A1C83800F03AFBBDE870401E
:10217000044982B24FF6FF73C8390D48FFF706BD18
:1021800070BD00009405002053756273637269622C
:1021900065B1A8CEC4B7A2CBCDB3C9B9A62CB5C87A
:1021A000B4FDB7FECEF1C6F7BBD8D3A60D0A00002A
:1021B000F40100200D4808B5016841F400110160E8
:1021C0000068002200F40010009011460C20FEF779
:1021D0008BFF0C20FEF77AFF002211460E20FEF73F
:1021E00083FFBDE808400E20FEF770BF3038024084
:1021F0000D4808B5016841F080010160016801F0F7
:1022000080010091016841F002010160016801F064
:1022100002010091016841F001010160006800F0D5
:102220000100009008BD0000303802400C4810B595
:102230000A4901604FF4E1314160002181600C22C4
:10224000C160C0E904128161C161FFF7A3FB0028EE
:1022500003D0BDE81040FEF700BC10BD00100140E7
:10226000F40100200C4810B50A4901604FF4E13137
:102270004160002181600C22C160C0E904128161CB
:10228000C161FFF787FB002803D0BDE81040FEF7CF
:10229000E4BB10BD0048004038020020FEE7FEE726
:1022A00070477047FEF7B8BE30B593B0302168462E
:1022B000FDF7D0FF14210CA8FDF7CCFF1D48002529
:1022C000016841F080510160006800F08050119079
:1022D0001948016841F4804101600068022400F45B
:1022E00080401190012003901020049000940694E7
:1022F0000820CDE90750A820CDE9090404200B905F
:102300006846FFF70FF808B172B6FEE70CA90F2078
:1023100081E831004FF4A0500F904FF4805010909E
:1023200005210CA8FEF712FF002801D072B6FEE7C7
:1023300013B030BD403802400070004002480168D0
:1023400041F470010160704788ED00E010B5806BCA
:102350000021C185C184FFF7E8F910BD70B5846B19
:102360002068406994F83D10C0F3C0100025212971
:1023700004D118B1E584204600F08AF8206840694D
:1023800094F83E10C0F38010222904D118B1E585DD
:10239000204600F056F8206C40F0100020642046E3
:1023A000FFF7C3F970BD10B50146806B0968096875
:1023B000C9052FD40021C18501680C3151E8002FD7
:1023C00022F4807241E80023002BF5D1016814311A
:1023D00051E8002F22F0010241E80023002BF5D143
:1023E0000168143151E8002F22F0400241E8002337
:1023F000002BF5D1202180F83E10016B012909D175
:1024000001680C3151E8002F22F0100241E800234E
:10241000002BF5D1016B012902D0FFF7B4FB10BDF1
:10242000818DFFF749F910BD10B5806B016B012953
:1024300002D0FFF7A9FB10BD818D4908FFF73CF9D9
:1024400010BD01680C3151E8002F22F4907241E870
:102450000023002BF5D10168143151E8002F22F040
:10246000010241E80023002BF5D1016B012909D1BC
:1024700001680C3151E8002F22F0100241E80023DE
:10248000002BF5D1202180F83E1000210163704718
:1024900001680C3151E8002F22F0C00241E800230E
:1024A000002BF5D1202180F83D10704708B590F839
:1024B0003E10222901D0022008BD82684FF48053CB
:1024C0009A4201D1016921B1816A9A421BD04AB175
:1024D0000AE00268816A5268C2F308020A80816ACF
:1024E000891C08E0026972B10268526802F07F023A
:1024F0000A70816A491C8162C18D491E0904090C58
:10250000C18503D019E002685268F1E70168CA6822
:1025100022F02002CA600168CA6822F48072CA6090
:1025200001684A6922F001024A61202180F83E10C8
:10253000016B012903D0FFF726FB002008BD002115
:10254000016301680C3151E8002F22F0100241E8CC
:102550000023002BF5D101680A68D20602D50A686B
:1025600049680091818DFFF7A7F8E6E770B504464A
:1025700000680169E26821F4405111430161216959
:10258000A068E26908436169114308432168CA6889
:1025900049F20C639A430243CA6020684169A26908
:1025A00021F440711143416131492068884202D0D1
:1025B0003049884202D1FEF773FE01E0FEF760FE6B
:1025C000E2690023192164253226B2F5004F6268C2
:1025D00028D0A0FB0101930F9200FDF7F1FD014609
:1025E000B0FBF5F06FF01802504301EB800006EBF2
:1025F0000010B0FBF5F000F0F002B1FBF5F002EBDB
:102600000012B1FBF5F06FF01803584301EB8000A6
:1026100006EB0010B0FBF5F000F00F00216810444D
:10262000886070BDA0FB010192185B41FDF7C8FDF9
:102630000146B0FBF5F00201B1FBF5F06FF01803B5
:10264000584301EB800006EBC000B0FBF5F000F052
:10265000F80002EB4002B1FBF5F0584301EB8000BB
:1026600006EBC000B0FBF5F000F00700D6E7000075
:10267000001001400014014038B5816282850025B8
:10268000134604460564222084F83E00A26B1C48D1
:10269000D063A26B1B481064A26B1B48D064A06B74
:1026A0000A4605652168A06B091DFEF76DFB2068D1
:1026B00001684068009084F83C50206948B1206867
:1026C0000C3050E8001F41F4807140E80012002AED
:1026D000F5D12068143050E8001F41F0010140E8B6
:1026E0000012002AF5D12068143050E8001F41F094
:1026F000400140E80012002AF5D1002038BD00005A
:10270000A7230208292402085D2302082DE9F041CD
:10271000984617460E460446069D27E0681C25D0BD
:102720002DB1FEF773FCA0EB0800A8421ED920686B
:102730000C3050E8001F21F4D07140E80012002A4C
:10274000F5D12068143050E8001F21F0010140E865
:102750000012002AF5D1202084F83D0084F83E00C4
:10276000002084F83C000320BDE8F0812068006868
:1027700036EA000004D00020B842CFD00020F3E7B2
:102780000120F9E70148FEF7D1BF0000F401002065
:102790000F4808B500680168C943C90612D401682A
:1027A000406800900A48FEF788FF0B49094809680D
:1027B00042884968511A0180012101724168044828
:1027C000FFF7CCF9BDE808400148FEF7AFBF0000B5
:1027D00038020020180000207C020020FEE70000E4
:1027E0000FB4084B10B504A902AA039800F03EF8F4
:1027F000044602A9002000F06AFA204610BC5DF8E9
:1028000014FB0000CF2C02080907090E002804DB86
:1028100000F1E02080F80014704700F00F0000F194
:10282000E02080F8141D7047BFF34F8F0548016802
:10283000054A01F4E06111430160BFF34F8F00BF0F
:10284000FDE700000CED00E00400FA0502E008C816
:10285000121F08C1002AFAD170477047002001E01A
:1028600001C1121F002AFBD1704700002DE9FF4F64
:102870008DB00F460546002606E025280BD0DDE981
:102880000F1290476D1C761C28780028F5D111B0E6
:102890003046BDE8F08F0024A246A1460122EC4953
:1028A00000E0044315F8013F203B02FA03F0084220
:1028B000F7D128782A2810D06FF02F022878A0F1BD
:1028C0003001092914D80AEB8A0102EB410144F0D6
:1028D000020400EB010A6D1CF0E701CF5FEA000A79
:1028E00003D544F40054CAF1000A44F002046D1CFC
:1028F00028782E2817D115F8010F44F004042A284F
:102900000ED06FF02F022878A0F1300109290AD8E3
:1029100009EB890102EB410100EB01096D1CF2E7B3
:1029200057F8049B6D1C28786C280FD006DC4C28C7
:1029300017D068280DD06A2814D104E0742810D06C
:102940007A280FD10DE044F400140AE044F4801416
:1029500001E044F440146978814202D104F5801406
:102960006D1C6D1C2A786E2A1FD00CDC632A31D0B6
:1029700004DC002A8BD0582A11D1A3E0642A68D045
:10298000692A0CD165E0732A2ED004DC6F2A73D03B
:10299000702A04D19BE0752A6FD0782A6ED0104639
:1029A000DDE90F129047761C50E1C4F30250022873
:1029B00006D0032809D0042801CF09D0066045E1DC
:1029C00001CFF117C0E9006140E101CF06803DE190
:1029D00006703BE117F8040B8DF8000000208DF81D
:1029E0000100EB46012003E057F804BB4FF0FF3035
:1029F00061074FF0000102D40DE008F101018846A3
:102A000049450FDA8045F8DB1BF808100029F4D19E
:102A100008E008F1010188468142FADB1BF8081042
:102A20000029F6D1DDE90F23AAEB080081462146F3
:102A300000F036F9304400EB080604E0DDE90F123F
:102A40001BF8010B9047B8F10108F7D22146484620
:102A5000F7E00A21C4F302534FF0000B0891022B58
:102A600004D001CFC117032B09D00AE0FF1D27F0C6
:102A70000707F7E8020108E032E01FE020E000B2BB
:102A8000C117042B01D140B2C117031E71F100031D
:102A900007DA4FF0000CD0EB0C006CEB01012D239A
:102AA00002E0230504D52B238DF82430012303E015
:102AB000E30701D02023F7E7984658E00A2110E009
:102AC00010210EE010204FF0000B08900CE01021B8
:102AD0004FF0000B44F004044FF00809089103E0A4
:102AE00008214FF0000B0891C4F30253022B04D0CD
:102AF00001CF0021032B06D006E0FF1D27F00707BA
:102B0000F7E8020103E080B2042B00D1C0B24FF01D
:102B1000000823072BD5702A07D0DDF820C08CF0E1
:102B2000100C5CEA0B0C05D00EE040238DF824302D
:102B3000012308E050EA010306D030238DF8243049
:102B40008DF8252002239846DDF820C08CF0080C73
:102B50005CEA0B0C0BD150EA010301D1630706D5E7
:102B600030238DF824304FF00108A9F10109582ACB
:102B700004D038A20B9208AA0A920BE03AA2F9E715
:102B80005B46089AFDF71CFB0B9B9B5C0A9A521E46
:102B90000A92137050EA0102F2D10A98ADEB0000DC
:102BA00000F1200B600702D524F4803401E04FF0DF
:102BB0000109D94502DDA9EB0B0000E0002000EB84
:102BC0000B0141440890AAEB010AE00306D4DDE9B9
:102BD0000F232146504600F063F806444FF00009E9
:102BE00008E009A911F80900DDE90F12904709F181
:102BF0000109761CC145F4DBE0030CD5DDE90F23A8
:102C00002146504600F04CF8064404E0DDE90F127E
:102C100030209047761C0899481E08900029F5DC62
:102C200008E00A980A990078491C0A91DDE90F1218
:102C30009047761CBBF10001ABF1010BF1DC2146A2
:102C40005046DDE90F2300F019F806446D1C1BE621
:102C50000928010030313233343536373839616272
:102C60006364656600000000303132333435363736
:102C70003839414243444546000000002DE9F04107
:102C8000044600251E461746880404D405E039464C
:102C90002020B0476D1C641EF9D52846BDE8F081A0
:102CA0002DE9F041044600251E469046C80301D593
:102CB000302700E02027880404D505E04146384647
:102CC000B0476D1C641EF9D52846BDE8F0810A683E
:102CD000531C0B60107070474C484D49086062B639
:102CE000FEF7A2F9FFF7E0FAFFF782FAFFF762FAC0
:102CF000FFF79CFAFFF7B6FA46A14748FFF770FDC9
:102D000082B24FF6FF76334643494448FEF73EFF12
:102D100043A14148FFF764FD82B233463E493F4834
:102D2000FEF734FF48A13C48FFF75AFD82B2334614
:102D300039493A48FEF72AFF4DA13748FFF750FDC1
:102D400082B2334634493548FEF720FF52A132485B
:102D5000FFF746FD82B233462F493048FEF716FF93
:102D600057A259A12C48FFF73BFD82B233462A49AE
:102D70002A48FEF70BFF34A12748FFF731FD82B246
:102D8000334625492548FEF701FF25A12248FFF7D4
:102D900027FD82B2334620492048FEF7F7FEFDF7B3
:102DA0001BFBDFF84881524D444698F80800002884
:102DB000FAD00020207218482288C8306168FDF7D8
:102DC00030FA2088144F00242880C8370BE03A5D81
:102DD00048A11148FFF704FD82B233460E490F485F
:102DE000FEF7D4FE641C28888442F0DB09A10A485F
:102DF000FFF7F6FC82B2334607490848FEF7C6FEE5
:102E000005482988C830FDF72FFCCDE700000208EF
:102E100008ED00E00D0A00002C000020F401002065
:102E20002A2A2A2A2A2A2A2A2A2A2A2A2A2A2A2A02
:102E30002A2A2A2A2A2A2A2A2A2A2A2A2A2A2A2AF2
:102E40002A2A2A0D0A0000002A20202020202020E3
:102E50002020202020202020202020202020202072
:102E6000202020202020202020202A0D0A000000E1
:102E70002A202020202020422D426F6F742D4634BE
:102E80002773204170706C69636174696F6E2020D4
:102E900020202A0D0A0000002A20202020202020A7
:102EA000202020466F72207468652074657374203A
:102EB000202020202020202020202A0D0A00000091
:102EC00056302E31000000002A2020202020202013
:102ED000202056657273696F6E203A20202573207A
:102EE00020202020202020202A0D0A001800002069
:102EF000000000202530327820000000F0B50B30B3
:102F0000154D20F007010024144A0FE003688B429E
:102F10000BD38B4205D95E1A43184768C3E9006793
:102F200000E04368136002C004E0021D106800283E
:102F3000ECD12046002802D1286808B10020F0BD5D
:102F4000064A07481060074A121A22F00702C0E931
:102F5000002401202860D7E728000020240000205A
:102F6000A4090020A00B0020000610160006101671
:102F70000000000000000000010203040607080929
:102F80000000000001020304316639626534333801
:102F900035646465343530626438613430353961A4
:102FA00066356666636364323565326136653961FC
:102FB00036373264643636366437666232353133DA
:102FC0006335393334313963000000006B30386CBD
:102FD0006377676D3054732E4D5154547465737418
:102FE0007C7365637572656D6F64653D322C7369C2
:102FF000676E6D6574686F643D686D616373686169
:103000003235362C74696D657374616D703D31367F
:1030100039353139383831333630347C00000000EE
:1030200040300208000000202C0000004C2802085C
:103030006C3002082C000020740F00005C2802088D
:10304000000000000100000010000000000000006F
:103050000024F400000000000000F4010000000063
:0C30600000000000000000000000000064
:040000050802018963
:00000001FF
