:020000040802F0
:10000000E00E00209D0102084B2F0208692902081A
:10001000492F02086509020889340208000000001F
:100020000000000000000000000000004F2F020848
:1000300045150208000000004D2F0208512F02084C
:10004000B7010208B7010208B7010208B7010208A8
:10005000B7010208B7010208B7010208B701020898
:10006000B7010208B7010208B7010208B701020888
:1000700081090208B70102088D090208B7010208C8
:10008000B7010208B7010208B7010208B701020868
:10009000B7010208B7010208B7010208B701020858
:1000A000B7010208B7010208B7010208B701020848
:1000B000B7010208B7010208B7010208B701020838
:1000C000B7010208B7010208B7010208B701020828
:1000D000B701020831340208B70102083D340208B2
:1000E000B7010208B7010208B7010208B701020808
:1000F000B7010208B7010208B7010208B7010208F8
:10010000B7010208B7010208B7010208B7010208E7
:10011000B7010208B7010208B7010208B7010208D7
:10012000B7010208B7010208B7010208B7010208C7
:10013000B7010208B7010208B7010208B7010208B7
:10014000B7010208B7010208B7010208B7010208A7
:10015000B7010208B7010208B7010208B701020897
:10016000B7010208B7010208B7010208B701020887
:10017000B7010208B7010208B70102080000000039
:10018000B7010208B7010208DFF80CD000F028FA26
:100190000048004785390208E00E002006488047E5
:1001A00006480047FEE7FEE7FEE7FEE7FEE7FEE75C
:1001B000FEE7FEE7FEE7FEE7E92F020889010208F5
:1001C0002DE9F05F0546002092469B46884606468C
:1001D000814640241BE0284641464746224600F01F
:1001E000ACF953465A46C01A914110D311461846ED
:1001F000224600F093F92D1A67EB01084F4622467C
:100200000120002100F08AF917EB00094E41201E61
:10021000A4F10104DFDC484631462A464346BDE8E6
:10022000F09F40EA01039B0703D009E008C9121FB1
:1002300008C0042AFAD203E011F8013B00F8013BA0
:10024000521EF9D27047D2B201E000F8012B491ECC
:10025000FBD270470022F6E710B513460A46044663
:100260001946FFF7F0FF204610BD30B505462A4677
:100270000B4612F8010B13F8014B08B1A042F8D05D
:100280001CB1002802D06D1CF1E7284630BD421C8D
:1002900010F8011B0029FBD1801A704730B50446C5
:1002A0000020034600E05B1C934203D2E05CCD5C7F
:1002B000401BF8D030BD00000FB400B58DB010A9C0
:1002C00009900B9000914FF0FF300A9000200C90A5
:1002D00005480690054807906A4609A80F9900F05E
:1002E00051F90DB05DF814FBA1050208BF05020825
:1002F0002DE9FF5F1D464FF0FF3BD5E901469146D2
:100300005F464FF00008A9697F1C01988847296A59
:10031000824688470028F6D1BAF1FF3F0CD024F47A
:10032000C064002E19DD600614D5BAF12B0F09D078
:10033000BAF12D0F0ED103E0584604B0BDE8F09F8E
:1003400044F48064A9697F1C01988847761E824620
:10035000002E02DDBAF1300F03D0B9F1000F26D024
:1003600032E0A969761E44F400747F1C0198884726
:100370008246002E05DDBAF1780F06D0BAF1580F8B
:1003800003D0B9F1000F10D01EE0B9F1000F02D078
:10039000B9F1100F18D1A969761E24F400747F1CDE
:1003A000019888478246102002E0082000E00A20D9
:1003B000814609E008FB0908A969761E44F4007427
:1003C0007F1C019888478246002E05DD494650462D
:1003D00000F0C3F80028EDDAE96901988847A00524
:1003E00002D46FF00100A8E7E00725D1600613D51D
:1003F000600502D5C8F1000000E0404629680A1DEA
:100400002A600968220501D5087015E0220701D588
:10041000088011E008600FE02868011D296000686D
:10042000210502D580F8008006E0210702D5A0F85A
:10043000008001E0C0F8008038467EE72DE9FF5FCC
:10044000D2E901A74FF00008916999461446DDF8FA
:1004500038B0464601988847054659EA0B0005D052
:1004600009E0A169761C019888470546216A28465B
:1004700088470028F5D1681C03D05FEACA7005D010
:1004800015E04FF0FF3004B0BDE8F09F2068011D7B
:100490002160D0F800800AE05FEACA7001D108F854
:1004A000015BA169761C7F1E019888470546002FD5
:1004B0001ADD681C18D0B9F1000F0DD0E81705EB54
:1004C000D060421120F01F0059F822102A1A012092
:1004D00090400142E0D107E0BBF1000FDCD1216A7E
:1004E000284688470028D7D0E16901988847BBF1A2
:1004F000000F07D1002E05DD5FEACA7002D100218E
:1005000088F80010A068B84203DDBBF1000F03D0EB
:1005100017B16FF00100B6E73046B4E7202A04DBDC
:10052000203A00FA02F1002070479140C2F1200306
:1005300020FA03F3194390407047202A04DB203A45
:1005400021FA02F00021704721FA02F3D040C2F1F3
:10055000200291400843194670473A2800D23038AB
:1005600020F02002412A01D3A2F13700884201D3B2
:100570004FF0FF30704700000268114413780160AB
:1005800018467047D1600449516104491162002145
:100590001161114600F03CB8790502080506020811
:1005A000426842B1016811F8013B23B1521EC0E913
:1005B0000012184670470121C160881E70474268CA
:1005C0005AB1C368016843B983688B4205D0491E9C
:1005D000521CC0E90012002070474FF0FF307047F6
:1005E000064C074D06E0E06840F0010394E8070080
:1005F00098471034AC42F6D3FFF7CAFDE43D020839
:10060000043E0208C0B24FF4F05100F097B9000068
:100610002DE9F34F8BB04FF0000801F10C000C46B0
:100620004FF0010B46460DF1080A01906269012165
:1006300001989047051E2DD0252D2CD0216A884782
:10064000C0B16269012101989047216A884700285A
:10065000F7D1411E62690198904700E0761CA169BC
:100660000B988847216A88470028F7D1E1690B98E1
:100670008847DBE7A1690B9888470746A84201D164
:10068000761CD3E7E1690B9888477F1C02D1B8F14B
:10069000000F6FD046E1002762693D463946019858
:1006A00090472A2804D162690121019890470125C9
:1006B000DFF884926269012101989047A0F130012E
:1006C0000A290AD24F45E5DC07EB870100EB410719
:1006D000303FDFD445F01005ECE7E90601D46FF0B8
:1006E00000476C280AD04C2814D0682815D06A28F6
:1006F0000DD074281CD07A281AD01DE0626901211F
:10070000019890476C2802D045F0040514E045F0AC
:1007100002050DE045F020050AE06269012101981B
:100720009047682802D045F0080505E045F40065CB
:100730006269012101989047C4E9015765283DD0BD
:1007400019DC58287AD00CDC452837D004DC252861
:1007500026D0412831D131E046282FD047282CD14E
:100760002CE05B2877D0612828D063287CD06428CF
:1007700023D15AE0D0E06F2848D008DC66281DD08D
:1007800067281BD0692821D06E2816D127E0702851
:1007900045D0732868D0752847D078280DD14DE012
:1007A000A1690B988847054625283FF469AFE169A0
:1007B0000B9888476D1C3FF46AAFB3E023466A4646
:1007C0006FF001000B99AFF300809EE045F0400010
:1007D0006060A80723464FF0000236D43EE0E807E9
:1007E0007FF447AF2068011D21600068290501D50D
:1007F00006701BE7290701D5068017E7A90703D56F
:10080000F117C0E9006111E706600FE745F040000D
:100810006060A80723464FF0080216D41EE040F699
:100820000E0125EA0100606016E045F040006060BE
:10083000A80723464FF00A0207D40FE045F0400016
:100840006060A80708D5234610226FF001000B99BD
:10085000AFF3008059E007E0234610226FF001005B
:100860000B99FFF745FD50E04FF000094F464B460E
:10087000632802D05B2806D040E0E80601D40120BE
:10088000A06001273AE062690121019890475E2843
:1008900005D14FF0010962694946019890472169E5
:1008A00039B900210A46534643F82120491C08293A
:1008B000FADBB0B3216969B9C11700EBD1625311FA
:1008C0000AEB830122F01F02821A01200B6890407C
:1008D00003430B6062690121019890475D28E8D1CC
:1008E000B9F1000F09D00020514651F82020D24321
:1008F00041F82020401C0828F7DB02AB2246009775
:100900006FF001000B99FFF799FD00280CDA401CED
:1009100008D1BBF1000F05D04FF0FF300DB0BDE89E
:10092000F08FFFE74046F9E7E90701D108F1010838
:1009300006444FF0000B79E6CCCCCC0C7F2801D9D3
:10094000002208E0064A02EB5002C007127800D1EC
:10095000120902F00F020120904008407047000089
:10096000C43B0208FEE7000008B54FF0AA30009033
:1009700001226946014800F08FFE08BDFCFF0D080A
:10098000014800F0FDBE000078010020014800F0A1
:10099000F7BE0000D801002001681823CAB2103A3F
:1009A000B2FBF3F2054B6FF30901032A9B5CC365AD
:1009B00000D9091D8165084670470000A43B020864
:1009C00010B5014600208B698A6A4FF0C07453B19C
:1009D000B3F5005F15D072B1012A0CD0022A0AD0FB
:1009E000032A09D104E01AB1012A06D0022A03D150
:1009F000C96AC90100D5012010BDC96AA142FAD057
:100A000010BD002AF7D0012AF2D0022AF3D0032A1F
:100A1000F3D010BD30B50468256825F48025256025
:100A2000046863608368402B036803D099600068A2
:100A3000C26030BD9A600068C16030BD2DE9F041F0
:100A400005242BA12F4802F021FD82B24FF6FF763C
:100A500033462C492C4801F02DFF2C4D4FF47A7869
:100A6000002728482AA1C83002F010FD254982B28B
:100A70003346C831274801F01DFF224626A12148F0
:100A800002F004FD82B233461E491F4801F012FFF6
:100A9000404600F0E7FF641E14F0FF041FD0287AE0
:100AA0000028DED02F72686800786128D9D11EA195
:100AB000144802F0EBFC82B233461249124801F0AE
:100AC000F9FE10481CA1C83002F0E0FC82B20D49CA
:100AD00010483346C831BDE8F04101F0EBBE17A124
:100AE000084802F0D3FC82B2334606490648F2E7D2
:100AF000BDF8C8EBD6B8C1EEC4A3CABD2E2E2E0DCC
:100B00000A00000058020020F00000200000002031
:100B10002B2B2B0034010020CAA3D3E02564732EB5
:100B20002E2E0D0A00000000CDCBB3F6CDB8B4AB2D
:100B3000C4A3CABD0D0A000061000000BDF8C8EBE7
:100B4000D6B8C1EEC4A3CABDCAA7B0DC210D0A0045
:100B500010B506A1084802F099FC82B2BDE8104029
:100B60004FF6FF730449054801F0A4BE41542B45DC
:100B70004E544D0D0A0000002003002034010020D7
:100B8000F8B52B4D2B492B1F1A1F0095FFF794FB2F
:100B90004FF6FF7603280CD027A12D4802F076FCF3
:100BA00001B03346BDE8F04082B22949294801F03E
:100BB00081BE294C29A12648D4F80C2402F066FCF9
:100BC00082B233462249234801F074FE28A120480E
:100BD000D4F8102402F05AFC82B233461C491D4856
:100BE00001F068FE2A4626A1194802F04FFC82B2A5
:100BF00033461749174801F05DFED4F80C044FF056
:100C0000010110F0FF0F4FEAE07200EB12600DD00F
:100C100001EB202004F5846203C24FF48070C4F815
:100C20002804BDE8F840002100F034B80012F1E7D4
:100C3000C4080020043C0208CCE1C8A14F5441B9CB
:100C4000CCBCFED0C5CFA2CAA7B0DC210D0A0000E3
:100C500058020020F0000020B00400204F5441B999
:100C6000CCBCFEB4F3D0A13A25640D0A000000000C
:100C70004F5441B9CCBCFE49443A25640D0A0000EA
:100C80004F5441B9CCBCFEB0E6B1BE3A25730D0A53
:100C90000000000030B5C1B00C4605464FF480712D
:100CA00001A8FFF7D7FA0094104C2B461049D4F84E
:100CB000102401A804F5826402F0E8FBD4E90432B0
:100CC0000CA1104802F0E2FB82B24FF6FF730D490F
:100CD0000D4801F0EFFD01A90CA001F01BFF4FF43E
:100CE000967000F0BFFE41B030BD0000B00400209F
:100CF000E83C0208B5B1C7B0B5DA25642F2564B465
:100D0000CE0D0A0058020020F00000202F737973E6
:100D10002F6B30386C6377676D3054732F4D51549F
:100D200054746573742F7468696E672F66696C6597
:100D30002F646F776E6C6F61640000000A4610B517
:100D400001464FF6FF73044801F0B4FD08B10020DE
:100D500010BD012010BD00003401002000B5A1B07D
:100D600080216846FFF776FA05A207A1684602F0DF
:100D70008DFB69460EA001F043FF21B000BD0000CD
:100D800056302E31000000007B226964223A202276
:100D900031222C22706172616D73223A207B22769F
:100DA000657273696F6E223A20222573227D7D0061
:100DB0002F6F74612F6465766963652F696E666F46
:100DC000726D2F6B30386C6377676D3054732F4DB5
:100DD000515454746573740010B530A23BA13F4860
:100DE00002F054FB82B24FF6FF7423463B493C4865
:100DF00001F060FD1E2000F035FE3AA1374802F0F8
:100E000045FB82B223463549354801F053FD1E208B
:100E100000F028FE37A1314802F038FB82B22346A9
:100E20002E492F4801F046FD1E2000F01BFE36A182
:100E30002A4802F02BFB82B223462849284801F0B9
:100E400039FD1E2000F00EFE34A1244802F01EFBE6
:100E500082B223462149224801F02CFD1E2000F0D9
:100E600001FE33A11D4802F011FB82B223461B494B
:100E70001B4801F01FFD1E2000F0F4FD34A11748AF
:100E800002F004FB82B223461449154801F012FD1A
:100E9000BDE810401E2000F0E5BD00005443502C7A
:100EA000696F742D30363061373074712E6D717406
:100EB000742E696F746875622E616C6979756E63E2
:100EC000732E636F6D2C31383833000041542B532F
:100ED0004F434B413D25730D0A00000020030020C5
:100EE0003401002041542B534F434B41454E3D4F5D
:100EF0004E0D0A0041542B534F434B42454E3D4F3C
:100F000046460D0A0000000041542B534F434B430B
:100F1000454E3D4F46460D0A0000000041542B53FC
:100F20004F434B44454E3D4F46460D0A00000000DE
:100F300041542B48454152543D4F4E2C4E45542C64
:100F4000555345522C36302C433030300D0A0000BA
:100F500041542B530D0A00002DE9F0410C46054683
:100F60004FF6FF77052902D00F2C15D019E0062285
:100F7000BDA1FFF793F9A0B9BDA1C54802F086FA5B
:100F800082B23B46C249C34801F094FCFFF724FFFC
:100F9000BDE8F041FFF7DCBD0F22BFA1FFF77EF9EE
:100FA00048B10A22C0A12846FFF778F928B1C14EFE
:100FB000042C10D012E0C0A177E0C3A1B44802F025
:100FC00065FA82B23B46B249B24801F073FCBDE813
:100FD000F04101F0CBBC2878202805D030780028DB
:100FE0007AD0052C30D032E0BCA1A94802F04EFAEC
:100FF00082B23B46A649A74801F05CFCE87808B1FC
:10100000BAA13BE0BFA1A24802F040FA82B23B463F
:101010009F49A04801F04EFC01203070BFA001F0B4
:1010200099FE642000F01EFDC4A001F093FE642030
:1010300000F018FDCCA001F08DFE642000F012FD40
:10104000BDE8F041FFF78ABE2878902807D02878BD
:10105000B0281FD0302840D040287DD01DE0CFA13F
:101060008B4802F013FA82B23B468949894801F065
:1010700021FC287960B101280AD0CCA1844802F073
:1010800005FA82B23B468249824801F013FCE2E055
:10109000CBA10AE06978022912D0022C1CD1D028F9
:1010A0001AD16878002817D1CAA1794802F0EEF960
:1010B0003B46BDE8F04182B27549764801F0FABB83
:1010C000C7A1734802F0E2F982B23B467049714809
:1010D00001F0F0FBC6A1E8E7C0E0CAA16C4802F04D
:1010E000D5F982B23B466A496A4801F0E3FB2146E2
:1010F000284601F0F1FCCE48C9A10646FFF7B5F835
:1011000068B1CCA1624802F0C1F982B23B466049A5
:10111000604801F0CFFBCAA1D0A001F0FBFCD7A131
:101120003046FFF7A2F868B1D8A1594802F0AEF9ED
:1011300082B23B465649574801F0BCFBD6A1C7A036
:1011400001F0E8FCDBA13046FFF78FF810B1304624
:10115000FFF716FD84A100E07FE03046FFF785F839
:1011600000287ED02246D5A1494802F08FF982B2EC
:101170003B464749474801F09DFB00260BE0AA5D2E
:10118000D2A1434802F082F982B23B46404941482D
:1011900001F090FB761CA642F1DB42A13C4802F034
:1011A00075F982B23B463A493A4801F083FBC94E91
:1011B000D6F824040002A0F580700119D6F828049E
:1011C00006F584660A1A201A2844C3A110F8023CC6
:1011D0002F48921E02F05AF982B23B462C492D4804
:1011E00001F068FBB068C24A201A41197068891E74
:1011F00002EB0020402200F04FFA71684FF480703B
:10120000491C71603268A6F5846691420DDB16D1E7
:10121000D6F80C2412F0FF0F07D04FEAE27002EB71
:10122000106020F0FF00A2EB0000C6F82804BDE823
:10123000F0414FEA0121A1F58071FFF72BBDADA16F
:10124000134802F023F982B23B461149114801F0DC
:1012500031FBFFF789FB02F03DF900E001E0A9A1B5
:1012600023E7BDE8F08100002B6F6B0D0A00000042
:10127000BDF8C8EBD6B8C1EEC4A3CABDA3ACC9E8DB
:10128000D6C3B7FECEF1C6F72E2E2E0D0A000000F3
:1012900058020020F000002041542B454E544D0DC3
:1012A0000D0A4F4B0D0A00005553522D4452313553
:1012B000320000001C000020CDCBB3F6D6B8C1EE42
:1012C000C4A3CABD210D0A00436F6E6E656374B777
:1012D000FECEF1C6F72E2E2E0D0A0000CAD5B5BDE2
:1012E000434F4E4E41434B210D0A0000436F6E6E3B
:1012F000656374B7FECEF1C6F7CAA7B0DC210D0A4C
:1013000000000000436F6E6E656374B7FECEF1C6D9
:10131000F7B3C9B9A6210D0A000000002F6B3038C1
:101320006C6377676D3054732F4D515454746573EB
:10133000742F757365722F67657400002F6F746169
:101340002F6465766963652F757067726164652FB8
:101350006B30386C6377676D3054732F4D51545434
:1013600074657374000000002F7379732F6B30382D
:101370006C6377676D3054732F4D5154547465739B
:10138000742F7468696E672F66696C652F646F7758
:101390006E6C6F61645F7265706C7900CAD5B5BDA3
:1013A00053554241434B210D0A00000053756273AF
:1013B0006372696265B4EDCEF3210D0A000000008E
:1013C000537562736372696265C9FAD0A7210D0A09
:1013D00000000000C9E8B1B8B4E6BBEE210D0A0078
:1013E000CAD5B5BD554E53554241434B210D0A0058
:1013F000556E537562736372696265C9FAD0A7212D
:101400000D0A0000CAD5B5BDB5C8BCB630B5C450CC
:1014100075626C697368B1A8CEC4210D0A00000022
:101420007B2273776974636831223A307D00000053
:10143000B0060020B9D8B1D5BFAAB9D80D0A0000AE
:101440007B22706172616D73223A7D7B22737769B2
:1014500074636831223A307D000000002F6B303811
:101460006C6377676D3054732F4D515454746573AA
:10147000742F757365722F706F7374007B2273778E
:101480006974636831223A317D000000B4F2BFAA6A
:10149000BFAAB9D80D0A00007B22706172616D731A
:1014A000223A7D7B2273776974636831223A317DF9
:1014B000000000007570677261646500D2BBB9B24C
:1014C0002564D7D6BDDA0D0A000000002530327839
:1014D00020000000B0040020B5DA2564D7D6BDDABC
:1014E000B4A6B4E6B7C520253032780D0A00000056
:1014F00000FF07084F5441CFC2D4D8CDEAB1CF2165
:101500000D0A0000CAD5B5BD50554241434B210DCF
:101510000A00000010B50A4CADF5007D207A0028C5
:101520000AD000202072228868466168FEF779FEA2
:1015300021886846FFF710FD0DF5007D10BD000005
:1015400000000020704772B6FEE70000064A1368EC
:1015500023F44073136013681360136843F00103AE
:101560001360017070470000103C0240094910B53B
:101570000C6824F440740C600C6844F440740C60F3
:101580000C6844F001040C600260BFF36F8F43608D
:1015900010BD0000103C0240074A136823F440735A
:1015A0001360136843F480731360136843F00103FE
:1015B0001360018070470000103C0240074A136826
:1015C00023F440731360136843F4007313601368CB
:1015D00043F001031360016070470000103C0240BB
:1015E00017490868C206174805D5C26942F01002BB
:1015F000C26110220A600A68920605D5C26942F0EB
:101600000802C26120220A600A68520605D5C26932
:1016100042F00402C26140220A600A68120605D53F
:10162000C26942F00202C26180220A600A6892071F
:1016300005D5C26942F02002C261022008607047ED
:101640000C3C02403802002070B5114904460020CD
:10165000C86100F06FFB06460E4D09E0601C07D024
:1016600024B100F067FB801BA04201D9032070BDAC
:101670002868C003F2D42868C00701D00120286080
:10168000286810F0F200F2D0FFF7AAFF012070BD29
:10169000380200200C3C02402DE9F04115460E4670
:1016A000074600F039FA002409E000BF56F824206C
:1016B00007EB84010023022000F0F0F9641CAC4227
:1016C000F4D3BDE8F04100F0DFB92DE9F041044664
:1016D000876D00F02FFB064694F8350000250228A0
:1016E00006D08020606584F834500120BDE8F08188
:1016F0002068016821F0160101602068416921F02D
:1017000080014161206C08B9A06C20B1206801689B
:1017100021F0080101602068016821F001010160E9
:101720000CE000F007FB801B052807D9202060652E
:10173000032084F8350084F83450D7E72068006827
:10174000C007EED194F85C103F208840B8600120BB
:1017500084F8350084F834500020C7E790F835103D
:10176000022903D08021416501207047052180F8BE
:1017700035100068016821F0010101600020704708
:101780002DE9F84304464FF00009CDF80090634876
:101790004FF41651A56D0068B0FBF1F72E6894F870
:1017A0005C10082000FA01F131420FD021680A686C
:1017B00052070BD50A6822F004020A6094F85C1004
:1017C0008840A860606D40F00100606594F85C108E
:1017D0004FF0010808FA01F0304208D02168496949
:1017E000090604D5A860606D40F00200606594F8B9
:1017F0005C1004208840304208D0216809688907BD
:1018000004D5A860606D40F00400606594F85C1039
:1018100010208840304218D021680968090714D583
:10182000A86020680168490304D50068000308D552
:10183000A16C07E00168C90503D4016821F0080123
:101840000160216C09B12046884794F85C10202083
:101850008840304231D021680968C9062DD5A8607A
:1018600094F8350005282068016806D0490347D55B
:10187000006800031DD4616C1CE021F016010160BA
:101880002068416921F080014161206C08B9A06C99
:1018900020B12068016821F00801016094F85C1013
:1018A0003F208840A86084F8358084F83490216D0A
:1018B0001FE0E16B09B120468847606D00282BD0FE
:1018C000606DC00714D0052084F8350020680168D9
:1018D00021F0010101600098401C0090B84203D83B
:1018E00020680068C007F6D184F8358084F8349009
:1018F000E16C002910D001B02046BDE8F043084754
:101900000168C905D5D4016821F01001016084F88F
:10191000358084F83490CCE7BDE8F88318000020C7
:101920002DE9F041044600F005FA06465CB10220BC
:1019300084F83500002584F834502068016821F0CF
:10194000010101600DE00120BDE8F08100F0F2F935
:10195000801B052805D920206065032084F8350008
:10196000F2E720680068C007F0D1226811682048BB
:101970000140D4E901031843D4E903363343184343
:1019800063691843A3691843E3691843236A18433A
:101990000843616A042903D1D4E90B1319430843AE
:1019A000106020684069666A20F0070130460E43E7
:1019B000012704280CD1A06A0643E06A40B1204602
:1019C000FEF7FEFF20B14020606584F83570BAE76D
:1019D000206846612046FEF7DFFF94F85C203F2137
:1019E00091408160656584F835700020ACE70000A7
:1019F0003F8010F02DE9F0410446866D90F83400E8
:101A0000002501280DD0012084F8340094F83570A9
:101A10000020012F07D084F8340002252846BDE8B5
:101A2000F0810220FBE7022784F8357060652046CC
:101A3000FEF7F0FF94F85C103F208840B06020680B
:101A4000016841F016010160206C20B12068016836
:101A500041F0080101602068016841F00101016066
:101A6000DCE7000070B5044600F064F90546601C30
:101A700002D004480078044400F05CF9401BA04206
:101A8000FAD370BD0C0000200348016841F000410A
:101A90000160002070470000103C02402DE9F04733
:101AA0001B4E05461446307E1F468946012808D045
:101AB000012030764CF250384046FFF7C5FD18B192
:101AC00014E00220BDE8F0879DB1012D16D0022D53
:101AD00019D022463B464846FFF748FD4046FFF7EF
:101AE000B3FD0C490A6822F001020A600021317638
:101AF000E8E7E1B24846FFF729FDEFE7A1B2484623
:101B0000FFF74AFDEAE721464846FFF757FDE5E7BC
:101B100038020020103C0240074900200A68002AD1
:101B200009DA054A054B0C3A1360054B1360096846
:101B3000002900DA01207047103C0240230167456C
:101B4000AB89EFCD2DE9F84FDFF8BCA100220125CC
:101B500003264FF00F090AF1040BAAF1040E00BF8F
:101B60000B6805FA02F42340A34270D10F7907F005
:101B70000307012F01D0022F16D187684FEA4208D0
:101B800006FA08FC27EA0C07D1F80CC00CFA08FC8E
:101B90004CEA070CC0F808C04768A7430C79C4F3A7
:101BA000001494403C4344600C79E443A4070AD0F9
:101BB000C4684FEA420C06FA0CF7BC438F6807FA78
:101BC0000CF72743C7600C7904F00304022C12D1F0
:101BD000D40800EB840CDCF820405707FF0E09FA0C
:101BE00007F824EA0804D1F8108008FA07F848EA50
:101BF0000408CCF8208004684FEA420C06FA0CF77F
:101C0000BC430F7907F0030707FA0CF72743076077
:101C10004C6814F4403F70D03C4C276847F4804730
:101C20002760246822F0030704F480440094384CB1
:101C300007EB040CDCF8084897074FEA177809FA15
:101C400008F7BC43334FB84202D1002724E054E0E8
:101C5000314FB84201D101271EE0304FB84201D1C7
:101C6000022719E02E4FB84201D1032714E02D4F6F
:101C7000B84201D104270FE02B4FB84201D105270C
:101C80000AE02A4FB84201D1062705E0284FB842A2
:101C900001D1072700E0082707FA08F72743CCF807
:101CA0000878DAF800405746D1F804C09C435FEA50
:101CB000CC2C00D51C433C60DBF800405F46D1F8DB
:101CC00004C09C435FEA8C2C00D51C433C60DEF8CA
:101CD00000407746D1F804C09C435FEA8C3C00D5B5
:101CE0001C433C60084F083F3C68D1F804C09C434B
:101CF0005FEACC3C00D51C433C60521C102AFFF428
:101D00002FAFBDE8F88F0000083C01404438024086
:101D10000030014000000240000402400008024080
:101D2000000C024000100240001402400018024063
:101D3000001C024001488068704700000C00002031
:101D40000248816802781144816070470C000020CD
:101D50000B4810B5016841F400710160016841F45D
:101D600080610160016841F480710160032000F02E
:101D70006FF80F2000F006F800F024F8002010BDE6
:101D8000003C024070B50D4D04464FF47A7128783E
:101D9000B1FBF0F00A490968B1FBF0F000F00CFB70
:101DA00048B9102C07D200222146501E00F030F80E
:101DB00000206C6070BD012070BD00000C00002090
:101DC000180000200A4808B5016841F4804101600C
:101DD000006800F4804000900548001F016841F051
:101DE00080510160006800F08050009008BD000044
:101DF00044380240002809DB00F01F020121914015
:101E00004009800000F1E020C0F800117047000098
:101E1000F0B40E4B1B680C46C3F30223C3F1070555
:101E2000042D00D90425191D072901D2002300E043
:101E3000DB1E012606FA05F1491E214099409E400D
:101E4000761E16403143F0BC01F034BB0CED00E0CF
:101E5000064900F0070208684FF6FF03184040EA01
:101E60000220034A10430860704700000CED00E0B8
:101E70000000FA052DE9F0470E46050065D0DFF8B1
:101E80001481D8F80000F7B200F00700B04207D282
:101E900088F80070D8F8000000F00700B04254D174
:101EA00028683D4C810712D5400703D5206840F4CF
:101EB000E05020602878000703D5206840F4604097
:101EC00020602068A96820F0F0000843206028788E
:101ED000C0072DD0304968680839012812D002287F
:101EE00013D0032811D00968890700292DDA216849
:101EF00021F0030101432160FFF71CFF814641F2FD
:101F0000883A0EE009688903EFE709688901ECE780
:101F1000FFF710FFA0EB0901514502D90320BDE8EE
:101F2000F0872068696800F00C00B0EB810FEFD1FA
:101F3000D8F80010404601F00701B14207D90770F8
:101F4000006800F00700B04201D00120E7E72878E0
:101F5000400705D52068E96820F4E0500843206078
:101F60002878000706D52068296920F4604040EAF7
:101F7000C100206000F038F82168084AC1F303115D
:101F8000515CC8400649086006480068FFF7FAFE41
:101F90000020C4E7003C024008380240AC3B020885
:101FA0001800002010000020044805490068096856
:101FB000044AC1F38221515CC840704718000020D8
:101FC00008380240BC3B020804480549006809681B
:101FD000044AC1F34231515CC840704718000020E8
:101FE00008380240BC3B0208154810B5006810F0E4
:101FF0000C02144813D01449042A0FD0082A0ED119
:102000000F4C241F2268236802F03F025B0207D5B1
:102010002068C0F38810A0FB010106E0084610BD4F
:102020002168C1F38811A1FB00010023FEF7C8F865
:102030002168C1F30141491C4900B0FBF1F010BD1A
:10204000083802400024F40040787D012DE9F84F63
:1020500004006ED02078DFF84C93C007A9F1040586
:102060004AD009F104000168C1F38101012908D0B7
:102070000068C0F3810002280AD1D9F800004002AC
:1020800006D52868800337D560680028E1D033E0A2
:102090006068B0F5803F10D0B0F5A02F286810D050
:1020A00020F480302860286820F480202860606850
:1020B000A8B1FFF73FFE06460DE0286840F48030E7
:1020C000F4E740F480202860F7E700BFFFF732FE16
:1020D000801B642873D828688003F7D50CE0FFF7CD
:1020E00029FE064605E000BFFFF724FE801B64289A
:1020F000F0D828688003F7D42078DFF8AC82800716
:102100004FF0000A3ED5A748001D016811F00C0FE2
:1021100008D00068C0F3810002280BD1D9F8000074
:10212000400207D42868800716D5E068012800D14E
:1021300012E033E1E068B8B10120C8F80000FFF711
:10214000F9FD064605E000BFFFF7F4FD801B0228FD
:10215000C0D828688007F7D52868216920F0F800E2
:1021600040EAC10028600DE0C8F800A0FFF7E2FDDA
:10217000064604E0FFF7DEFD801B02281FD8286812
:102180008007F7D42078000722D5864F87486169F9
:10219000703771B101210160FFF7CCFD064604E004
:1021A000FFF7C8FD801B022809D838688007F7D5DB
:1021B0000EE0C0F800A0FFF7BDFD064605E082E096
:1021C000FFF7B8FD801B02287DD838688007F7D458
:1021D0002078400768D5DFF8CCB100270BF13C0B25
:1021E000DBF80000C0000BD4DBF8001041F0805198
:1021F000CBF80010DBF80000012700F080500090C1
:102200006B4E3068C00510D4306840F48070306088
:10221000FFF790FD009005E0FFF78CFD0099401A54
:10222000022850D83068C005F6D55E4EA0686C36DE
:1022300001280FD00528306810D020F00100306050
:10224000306820F004003060A068B8B1FFF772FD7C
:1022500000900FE0306840F00100F4E740F0040027
:102260003060F7E7FFF766FD0099411A41F28830C8
:10227000814266D830688007F4D50EE0FFF75AFD3A
:10228000009007E0FFF756FD0099411A41F28830AF
:10229000814256D830688007F4D42FB1DBF80010A3
:1022A00021F08051CBF80010A069C8B33D49091D49
:1022B0000968C1F3810102294AD00228504607D09B
:1022C000C8F8600000E03CE0FFF734FD04463BE066
:1022D0004746C8F86000FFF72DFD064605E000BF41
:1022E000FFF728FD801B02282BD828688001F7D42F
:1022F000D4E907010843A16A2E4A490802EB0141CB
:10230000626A41EA8211084394F82C1040EA0161A4
:10231000C9F8001001203866FFF70CFD044606E0FE
:102320003EE000BFFFF706FD001B022809D8286821
:102330008001F7D534E000BFFFF7FCFC001B02284A
:1023400002D90320BDE8F88F28688001F4D427E083
:102350000128F7D0D9F80000E26900F48001914229
:102360001CD1226A00F03F01914217D147F6C0719B
:10237000626A0140B1EB821F10D1A26A4FF0FF33B5
:1023800000F4403103EB5202B1EB024F06D194F856
:102390002C1000F07060B0EB016F01D00120D1E78C
:1023A0000020CFE70438024000004742800E474239
:1023B000007000400000FFFF10B5401EB0F1807FAC
:1023C00001D3012010BD4FF0E02460610F216017A0
:1023D00001F070F80020A06107202061002010BDEE
:1023E000704710B504460068406994F83D10C0F38A
:1023F000C010212911D180B12068143050E8001F8D
:1024000021F0800140E80012002AF5D1606B08B18C
:10241000FFF75BF9204600F091FE2068406994F8D0
:102420003E10C0F38010222911D180B120681430F1
:1024300050E8001F21F0400140E80012002AF5D1C9
:10244000A06B08B1FFF741F9204600F050FE0020D4
:1024500010BD7047F8B5016804460868CA684B6942
:1024600010F00F0F4FF0000559D003F0010602F4F1
:102470009077374365D0C10705D0D10503D5216CCE
:1024800041F001012164410705D5D90703D0216C32
:1024900041F002012164810705D5D90703D0216CE1
:1024A00041F004012164010707D502F02001314306
:1024B00003D0216C41F008012164216C00293AD03D
:1024C000800604D5900602D5204600F045FE20681F
:1024D0004069216CC0F38010090700D460B3204626
:1024E00000F005FE20684069400621D520681430C0
:1024F00050E8001F21F0400140E80012002AF5D109
:10250000A06BA8B16C490165A06BFFF727F9002803
:1025100011D0A06B016D01B0BDE8F0400847830603
:102520000FD593060DD52046BDE8F84000F014BE47
:102530002046FFF78EFFF8BD2046FFF78AFF25648F
:10254000F8BD266B2023012E79D1C60677D5D60695
:1025500075D50868486800904869400640D5A16B69
:10256000086840680004000CEAD0A28D8242E7D9D6
:10257000E085C869B0F5807F2DD020680C3050E828
:10258000001F21F4807140E80012002AF5D1206874
:10259000143050E8001F21F0010140E80012002A29
:1025A000F5D12068143050E8001F21F0400140E8C8
:1025B0000012002AF5D184F83E30256320680C30E3
:1025C00050E8001F21F0100140E80012002AF5D168
:1025D000A06BFFF77AF8A08DE18D401A81B229E057
:1025E000A08DE18D401A81B2E08D0028A8D000298D
:1025F000A6D020680C3050E8002F22F4907240E8FA
:102600000026002EF5D12068143050E8002F22F06B
:10261000010240E80026002EF5D184F83E30256303
:1026200020680C3050E8002F22F0100240E8002310
:10263000002BF5D12046FFF7D3FEF8BDFFE70506D6
:102640002BD5150629D594F83D002128F5D1A06891
:10265000B0F5805F01D12069B0B1206A411C2162D0
:10266000216800784860E08C401E0004000CE08483
:10267000E3D12068C16821F08001C1602068C16891
:1026800041F04001C160D8E7206A0088C0F308002B
:102690004860206A801C2062E5E74006CDD55006E0
:1026A000CBD5CA68204622F04002CA6084F83D308B
:1026B00000F059F9C1E70000F92F020870B50400D5
:1026C00004D094F83D00002510B106E0012070BD53
:1026D00084F83C50204600F023F8242084F83D0084
:1026E0002068C16821F40051C160204600F094FDCB
:1026F0002068016921F4904101612068416921F05D
:102700002A0141612068C16841F40051C16025641B
:10271000202084F83D0084F83E00002070BD0000B9
:102720002DE9F04186B0064614216846FDF792FD7A
:102730004C4F31684C480222032307250024B9423C
:1027400025D1494914310E6846F010060E6009681B
:1027500001F010010591016841F00101016000687C
:10276000694600F00100059058028DE81500CDE99A
:1027700003353E48FFF7E6F9002211462520FFF712
:1027800047FB2520FFF736FB06B0BDE8F081384F48
:10279000B942F9D1344910310F6847F480270F60EE
:1027A000096801F480210591016841F0020101608E
:1027B0000068694600F0020005904FF440608DE823
:1027C0001500CDE903352B48FFF7BCF92B4D2A48FE
:1027D0004FF000672860C5E901744FF48068C5E9CF
:1027E00003486C61AC61EC612C6228466C62FFF7B7
:1027F00097F808B1FEF7A7FEB563AE631F4D1E48FC
:1028000060353030E5E802074020A5E811011B489B
:1028100045F814496030AC61EC612C626C62FFF7E2
:102820007FF808B1FEF78FFE75630022114627205E
:10283000AE63FFF7EDFA2720FFF7DCFA104C608853
:1028400001F07AF9014660600C486288443800F073
:1028500019F80A4844380068C16841F01001C160A5
:1028600092E70000001001403038024000000240B2
:102870000048004000040240286002407801002027
:102880000000002090F83E30202B0ED159B152B1FB
:1028900090F83C30012B08D0012380F83C30002315
:1028A000036300F03FBD012070470220704770476E
:1028B000704700002DE9F843044690F83D001F469C
:1028C00016460D4620284CD1C5B1BEB194F83C0047
:1028D000012846D0012084F83C004FF00008C4F8DD
:1028E0004080212084F83D00FFF724FAA684814629
:1028F000E684A068B0F5805F03D004E00120BDE865
:10290000F883206928B12E465FF0000584F83C80EA
:102910000EE00026FAE78021204600F04DFDA0B928
:10292000AEB116F8010B21684860E08C401EE084CF
:10293000E08C4B464FF0000200970028EBD14FF09F
:102940004001204600F038FD30B10320D7E735F8CC
:10295000020BC0F30800E6E7202084F83D000020C9
:10296000CDE70220CBE77047FEE7000070B5464C8C
:102970000120A4F80004A4F802040A20A4F8040426
:10298000AA20A4F80604B420A4F80804102020709B
:1029900000F0C6F9B4F802040025611C2554B4F80F
:1029A000022404205054B4F80234491C4D225A54D5
:1029B000B4F80234491C51225A54B4F80234221D8E
:1029C00054219954B4F80234521C9954B4F8022496
:1029D000A11D5054B4F80224E01DC2211154B4F8D2
:1029E0000214401C0D54B4F80224401C64211154FC
:1029F000B4F80214401C0D54B4F80224401C5021B9
:102A00001154B4F80214401C084450221F4904F227
:102A10000244FDF706FC1C4821885C300D542288D6
:102A2000401C142111542188401C0844142218A170
:102A3000FDF7F7FB1448218872300D542288401CA2
:102A4000402111542188401C084440221649FDF7BA
:102A5000E8FB208861880844A188084481B20A48BC
:102A6000FEF76CF900280ED0074810A1C83800F016
:102A70000DFDBDE87040044982B24FF6FF73C839BE
:102A80001448FFF717BF70BDB0040020903D020846
:102A90004D51545474657374266B30386C6377678A
:102AA0006D305473000000004C3D0208436F6E6EA1
:102AB000656374B1A8CEC4B7A2CBCDB3C9B9A62CF7
:102AC000B5C8B4FDB7FECEF1C6F7BBD8D3A60D0A84
:102AD00000000000F00000202DE9F0410F460546FF
:102AE0000124285D000603D5641CE4B2052CF8D34C
:102AF00007484FF400710646FDF7ACFB29193A1B55
:102B00003046BDE8F041C91CD21EFDF78ABB00006B
:102B1000B00600202DE9F041304C06460120A4F813
:102B200002040D463046FDF7B2FB801CA4F80404F5
:102B30002846FDF7ACFBA4F80604B4F804140844D6
:102B4000A4F808043020207000F0EAF83046FDF7C1
:102B50009EFBB4F80214000A60543046FDF797FB60
:102B6000B4F80224611C50543046FDF790FB024635
:102B7000B4F80214A01C08443146FDF752FB284665
:102B8000FDF785FB07463046FDF781FBB4F80214DC
:102B9000801C214408443A462946FDF742FBB4F81C
:102BA0000204B4F804140844B4F80614084481B2CA
:102BB0002046FEF7C3F800280ED009A1A4F1C800F2
:102BC00000F064FCA4F1C801BDE8F04182B24FF608
:102BD000FF730A48FFF76EBEBDE8F081B004002025
:102BE0005075626C697368516F7330B1A8CEC4B709
:102BF000A2CBCDB3C9B9A6210D0A0000F000002078
:102C00002DE9F0413D4C06460120A4F802040D4692
:102C10003046FDF73CFB001DA4F804042846FDF7F0
:102C200036FBA4F80604B4F804140844A4F8080415
:102C30003220207000F074F83046FDF728FBB4F81D
:102C40000214000A60543046FDF721FBB4F8022458
:102C5000611C50543046FDF71AFB0246B4F80214CA
:102C6000A01C08443146FDF7DCFA3046FDF70FFBA7
:102C7000B4F80214B4F800242144801C120A0A5447
:102C80003046FDF704FBB4F80214C01C0A1994F88E
:102C900000141154B4F80004401CA4F800042846A1
:102CA000FDF7F5FA07463046FDF7F1FAB4F80214DD
:102CB000001D214408443A462946FDF7B2FAB4F80B
:102CC0000204B4F804140844B4F80614084481B2A9
:102CD0002046FEF733F800280ED009A1A4F1C80061
:102CE00000F0D4FBA4F1C801BDE8F04182B24FF678
:102CF000FF730A48FFF7DEBDBDE8F081B004002095
:102D00005075626C697368516F7331B1A8CEC4B7E6
:102D1000A2CBCDB3C9B9A6210D0A0000F000002056
:102D20000B4800BFB0F80814CA0901D041F0800177
:102D3000B0F802248154B0F80214491CA0F802141F
:102D4000B0F80814C909A0F80814EBD170470000C6
:102D5000B004002070B5364C05460120A4F80204EA
:102D60000220A4F804042846FDF791FAC01CA4F838
:102D70000604B4F804140844A4F80804822020705F
:102D8000FFF7CEFFB4F80004B4F80214000A605450
:102D9000B4F80224611C94F800045054B4F8000400
:102DA000401CA4F80004284604F58064FDF76FFA7F
:102DB000010A1F486288801C11542846FDF767FAF3
:102DC0001B496288C91C50542846FDF760FA024628
:102DD00017486188001D08442946FDF722FA284655
:102DE000FDF755FA6188A4F580642144001D002296
:102DF0000A54B4F80204B4F804140844B4F80614ED
:102E0000084481B20A48FDF799FF00280ED008480F
:102E100008A1C83800F03AFBBDE87040044982B20E
:102E20004FF6FF73C8390D48FFF744BD70BD000071
:102E3000B0040020537562736372696265B1A8CEF5
:102E4000C4B7A2CBCDB3C9B9A62CB5C8B4FDB7FEE3
:102E5000CEF1C6F7BBD8D3A60D0A0000F0000020C3
:102E60000D4808B5016841F40011016000680022B6
:102E700000F40010009011460C20FEF7C9FF0C2052
:102E8000FEF7B8FF002211460E20FEF7C1FFBDE895
:102E900008400E20FEF7AEBF303802400D4808B59E
:102EA000016841F080010160016801F0800100913A
:102EB000016841F002010160016801F00201009126
:102EC000016841F001010160006800F0010000901C
:102ED00008BD0000303802400C4810B50A490160B6
:102EE0004FF4E1314160002181600C22C160C0E9F2
:102EF00004128161C161FFF7E1FB002803D0BDE846
:102F00001040FEF720BB10BD00100140F000002073
:102F10000C4810B50A4901604FF4E13141600021CD
:102F200081600C22C160C0E904128161C161FFF7B8
:102F3000C5FB002803D0BDE81040FEF704BB10BD60
:102F40000048004034010020FEE7FEE7704770476C
:102F5000FEF7F6BE30B593B030216846FDF77AF93A
:102F600014210CA8FDF776F91D480025016841F0F1
:102F700080510160006800F080501190194801688C
:102F800041F4804101600068022400F48040119007
:102F90000120039010200490009406940820CDE9AD
:102FA0000750A820CDE9090404200B906846FFF7DC
:102FB0004DF808B172B6FEE70CA90F2081E8310088
:102FC0004FF4A0500F904FF48050109005210CA8A2
:102FD000FEF750FF002801D072B6FEE713B030BDF7
:102FE00040380240007000400248016841F470011E
:102FF0000160704788ED00E010B5806B0021C1854D
:10300000C184FFF726FA10BD70B5846B2068406953
:1030100094F83D10C0F3C0100025212904D118B147
:10302000E584204600F08AF82068406994F83E1054
:10303000C0F38010222904D118B1E585204600F0A4
:1030400056F8206C40F0100020642046FFF701FA8B
:1030500070BD10B50146806B09680968C9052FD499
:103060000021C18501680C3151E8002F22F48072E3
:1030700041E80023002BF5D10168143151E8002FFD
:1030800022F0010241E80023002BF5D10168143140
:1030900051E8002F22F0400241E80023002BF5D137
:1030A000202180F83E10016B012909D101680C3103
:1030B00051E8002F22F0100241E80023002BF5D147
:1030C000016B012902D0FFF7F2FB10BD818DFFF7E4
:1030D00087F910BD10B5806B016B012902D0FFF795
:1030E000E7FB10BD818D4908FFF77AF910BD016833
:1030F0000C3151E8002F22F4907241E80023002B9C
:10310000F5D10168143151E8002F22F0010241E8A5
:103110000023002BF5D1016B012909D101680C3185
:1031200051E8002F22F0100241E80023002BF5D1D6
:10313000202180F83E1000210163704701680C31A6
:1031400051E8002F22F0C00241E80023002BF5D106
:10315000202180F83D10704708B590F83E102229D4
:1031600001D0022008BD82684FF480539A4201D1F9
:10317000016921B1816A9A421BD04AB10AE0026812
:10318000816A5268C2F308020A80816A891C08E0D9
:10319000026972B10268526802F07F020A70816AA5
:1031A000491C8162C18D491E0904090CC18503D0E7
:1031B00019E002685268F1E70168CA6822F020024B
:1031C000CA600168CA6822F48072CA6001684A69EC
:1031D00022F001024A61202180F83E10016B012992
:1031E00003D0FFF764FB002008BD002101630168E4
:1031F0000C3151E8002F22F0100241E80023002B8F
:10320000F5D101680A68D20602D50A6849680091BA
:10321000818DFFF7E5F8E6E770B5044600680169BF
:10322000E26821F44051114301612169A068E2691B
:1032300008436169114308432168CA6849F20C6375
:103240009A430243CA6020684169A26921F440712F
:103250001143416131492068884202D03049884297
:1032600002D1FEF7B1FE01E0FEF79EFEE269002307
:10327000192164253226B2F5004F626828D0A0FBE0
:103280000101930F9200FCF79BFF0146B0FBF5F0A4
:103290006FF01802504301EB800006EB0010B0FB0A
:1032A000F5F000F0F002B1FBF5F002EB0012B1FB1B
:1032B000F5F06FF01803584301EB800006EB0010A7
:1032C000B0FBF5F000F00F0021681044886070BD7D
:1032D000A0FB010192185B41FCF772FF0146B0FBB5
:1032E000F5F00201B1FBF5F06FF01803584301EB64
:1032F000800006EBC000B0FBF5F000F0F80002EB38
:103300004002B1FBF5F0584301EB800006EBC00032
:10331000B0FBF5F000F00700D6E700000010014018
:103320000014014038B581628285002513460446A9
:103330000564222084F83E00A26B1C48D063A26B77
:103340001B481064A26B1B48D064A06B0A4605653D
:103350002168A06B091DFEF74DFB206801684068DD
:10336000009084F83C50206948B120680C3050E847
:10337000001F41F4807140E80012002AF5D1206856
:10338000143050E8001F41F0010140E80012002A0B
:10339000F5D12068143050E8001F41F0400140E8AA
:1033A0000012002AF5D1002038BD00005330020879
:1033B000D5300208093002082DE9F0419846174639
:1033C0000E460446069D27E0681C25D02DB1FEF769
:1033D000B1FCA0EB0800A8421ED920680C3050E8D0
:1033E000001F21F4D07140E80012002AF5D12068B6
:1033F000143050E8001F21F0010140E80012002ABB
:10340000F5D1202084F83D0084F83E00002084F8A7
:103410003C000320BDE8F0812068006836EA000027
:1034200004D00020B842CFD00020F3E70120F9E714
:103430000148FFF70FB80000F00000200F4808B562
:1034400000680168C943C90612D401684068009049
:103450000A48FEF7C6FF0B490948096842884968CF
:10346000511A01800121017241680448FFF70AFAEC
:10347000BDE808400148FEF7EDBF00003401002020
:103480000000002078010020FEE700000FB4084B88
:1034900010B504A902AA039800F03EF8044602A958
:1034A000002000F06AFA204610BC5DF814FB000012
:1034B0007B3902080907090E002804DB00F1E0202F
:1034C00080F80014704700F00F0000F1E02080F851
:1034D000141D7047BFF34F8F05480168054A01F47A
:1034E000E06111430160BFF34F8F00BFFDE70000B3
:1034F0000CED00E00400FA0502E008C8121F08C144
:10350000002AFAD170477047002001E001C1121F64
:10351000002AFBD1704700002DE9FF4F8DB00F4608
:103520000546002606E025280BD0DDE90F1290475E
:103530006D1C761C28780028F5D111B03046BDE806
:10354000F08F0024A246A1460122EC4900E004438A
:1035500015F8013F203B02FA03F00842F7D1287822
:103560002A2810D06FF02F022878A0F13001092905
:1035700014D80AEB8A0102EB410144F0020400EB8B
:10358000010A6D1CF0E701CF5FEA000A03D544F49D
:103590000054CAF1000A44F002046D1C28782E2859
:1035A00017D115F8010F44F004042A280ED06FF04B
:1035B0002F022878A0F1300109290AD809EB8901E6
:1035C00002EB410100EB01096D1CF2E757F8049B87
:1035D0006D1C28786C280FD006DC4C2817D0682882
:1035E0000DD06A2814D104E0742810D07A280FD1A5
:1035F0000DE044F400140AE044F4801401E044F4C3
:1036000040146978814202D104F580146D1C6D1C50
:103610002A786E2A1FD00CDC632A31D004DC002A01
:103620008BD0582A11D1A3E0642A68D0692A0CD122
:1036300065E0732A2ED004DC6F2A73D0702A04D17F
:103640009BE0752A6FD0782A6ED01046DDE90F1204
:103650009047761C50E1C4F30250022806D003289C
:1036600009D0042801CF09D0066045E101CFF11748
:10367000C0E9006140E101CF06803DE106703BE119
:1036800017F8040B8DF8000000208DF80100EB46C0
:10369000012003E057F804BB4FF0FF3061074FF003
:1036A000000102D40DE008F10101884649450FDA16
:1036B0008045F8DB1BF808100029F4D108E008F178
:1036C000010188468142FADB1BF808100029F6D177
:1036D000DDE90F23AAEB08008146214600F036F908
:1036E000304400EB080604E0DDE90F121BF8010B83
:1036F0009047B8F10108F7D221464846F7E00A2181
:10370000C4F302534FF0000B0891022B04D001CFF9
:10371000C117032B09D00AE0FF1D27F00707F7E8C0
:10372000020108E032E01FE020E000B2C117042BE4
:1037300001D140B2C117031E71F1000307DA4FF047
:10374000000CD0EB0C006CEB01012D2302E02305F3
:1037500004D52B238DF82430012303E0E30701D0A7
:103760002023F7E7984658E00A2110E010210EE0E8
:1037700010204FF0000B08900CE010214FF0000BD0
:1037800044F004044FF00809089103E008214FF0C9
:10379000000B0891C4F30253022B04D001CF002187
:1037A000032B06D006E0FF1D27F00707F7E802010C
:1037B00003E080B2042B00D1C0B24FF00008230711
:1037C0002BD5702A07D0DDF820C08CF0100C5CEAF5
:1037D0000B0C05D00EE040238DF82430012308E0C7
:1037E00050EA010306D030238DF824308DF82520CF
:1037F00002239846DDF820C08CF0080C5CEA0B0C24
:103800000BD150EA010301D1630706D530238DF8AF
:1038100024304FF00108A9F10109582A04D038A238
:103820000B9208AA0A920BE03AA2F9E75B46089AC3
:10383000FCF7C6FC0B9B9B5C0A9A521E0A92137003
:1038400050EA0102F2D10A98ADEB000000F1200B22
:10385000600702D524F4803401E04FF00109D94516
:1038600002DDA9EB0B0000E0002000EB0B0141445E
:103870000890AAEB010AE00306D4DDE90F232146F4
:10388000504600F063F806444FF0000908E009A92B
:1038900011F80900DDE90F12904709F10109761CC2
:1038A000C145F4DBE0030CD5DDE90F23214650468A
:1038B00000F04CF8064404E0DDE90F123020904798
:1038C000761C0899481E08900029F5DC08E00A9843
:1038D0000A990078491C0A91DDE90F129047761C7D
:1038E000BBF10001ABF1010BF1DC21465046DDE9F3
:1038F0000F2300F019F806446D1C1BE6092801008F
:103900003031323334353637383961626364656655
:103910000000000030313233343536373839414217
:1039200043444546000000002DE9F04104460025CF
:103930001E461746880404D405E039462020B047C7
:103940006D1C641EF9D52846BDE8F0812DE9F041D3
:10395000044600251E469046C80301D5302700E0E6
:103960002027880404D505E041463846B0476D1C41
:10397000641EF9D52846BDE8F0810A68531C0B6027
:103980001070704734483549086062B6FEF7E0F9B8
:10399000FFF7E0FAFFF782FAFFF762FAFFF79CFA07
:1039A000FFF7B6FA2EA12F48FFF770FD82B24FF64F
:1039B000FF7423462B492C48FEF77CFF2BA1294896
:1039C000FFF764FD82B2234626492748FEF772FFBF
:1039D00030A12448FFF75AFD82B2234621492248EC
:1039E000FEF768FF35A11F48FFF750FD82B223465E
:1039F0001C491D48FEF75EFF3AA11A48FFF746FD35
:103A000082B2234617491848FEF754FF3FA241A14E
:103A10001448FFF73BFD82B2234612491248FEF7D5
:103A200049FF1CA10F48FFF731FD82B223460D4923
:103A30000D48FEF73FFF0DA10A48FFF727FD82B2B0
:103A4000234608490848FEF735FFFCF7F7FF00BF9B
:103A5000FDF760FDFCE700000000020808ED00E053
:103A60000D0A000028000020F00000202A2A2A2A3F
:103A70002A2A2A2A2A2A2A2A2A2A2A2A2A2A2A2AA6
:103A80002A2A2A2A2A2A2A2A2A2A2A2A2A2A2A0DB3
:103A90000A0000002A202020202020202020202092
:103AA0002020202020202020202020202020202016
:103AB0002020202020202A0D0A0000002A2020207B
:103AC000202020422D426F6F742D463427732041F1
:103AD00070706C69636174696F6E202020202A0DFC
:103AE0000A0000002A20202020202020202020461C
:103AF0006F72207468652074657374202020202004
:103B00002020202020202A0D0A00000056302E31CF
:103B1000000000002A2020202020202020205665A0
:103B20007273696F6E203A20202573202020202098
:103B3000202020202A0D0A00F0B50B30154D20F072
:103B400007010024144A0FE003688B420BD38B4219
:103B500005D95E1A43184768C3E9006700E0436867
:103B6000136002C004E0021D10680028ECD120465A
:103B7000002802D1286808B10020F0BD064A074895
:103B80001060074A121A22F00702C0E9002401203F
:103B90002860D7E72400002020000020E40800204F
:103BA000E00A0020000610160006101600000000B3
:103BB00000000000010203040607080900000000DD
:103BC00001020304DDDDDDDDDCBBBBDDDDDDDDDDD4
:103BD000DDDDDDDD98888888888888887777777745
:103BE0007788888885555556666666666666666611
:103BF00066688888833333322222222222222222BC
:103C00002228888D2F6F74612F6465766963652F14
:103C1000757067726164652F6B30386C6377676DA0
:103C20003054732F4D515454746573747B22636FF9
:103C30006465223A2231303030222C226461746172
:103C4000223A7B2273697A65223A25642C227374A6
:103C50007265616D4964223A25642C227369676E2E
:103C6000223A22252A333273222C226450726F7436
:103C70006F636F6C22202020202020202020203AFB
:103C8000226D717474222C2276657273696F6E22B4
:103C90003A22253373222C227369676E4D6574684E
:103CA0006F64223A224D6435222C2273747265614E
:103CB0006D46696C654964223A312C226D64352267
:103CC0003A22252A333273227D2C226964223A2536
:103CD0002A642C226D657373616765223A227375BD
:103CE0006363657373227D007B226964223A20221C
:103CF00031222C22706172616D73223A207B226620
:103D0000696C65496E666F223A7B227374726561D5
:103D10006D4964223A25642C2266696C65496422E7
:103D20003A317D2C2266696C65426C6F636B223A76
:103D30007B2273697A65223A25642C226F6666734A
:103D40006574223A25647D7D7D000000316639620C
:103D500065343338356464653435306264386134D1
:103D60003035396166356666636364323565326164
:103D700036653961363732646436363664376662A2
:103D80003235313363353933343139630000000063
:103D90006B30386C6377676D3054732E4D515454CB
:103DA000746573747C7365637572656D6F64653D6E
:103DB000322C7369676E6D6574686F643D686D6100
:103DC000637368613235362C74696D657374616D27
:103DD000703D313639353139383831333630347C0D
:103DE00000000000043E020800000020280000003F
:103DF000F83402082C3E020828000020B80E00000B
:103E0000083502080000F401000000000000000076
:103E10000100000010000000000000000024F40079
:0C3E200000000000000000000000000096
:040000050802018963
:00000001FF
