:020000040802F0
:10000000D00A00209D0102081B1802082D170208C3
:100010001918020815030208591D02080000000003
:100020000000000000000000000000001F1802088F
:1000300071050208000000001D18020821180208BE
:10004000B7010208B7010208B7010208B7010208A8
:10005000B7010208B7010208B7010208B701020898
:10006000B7010208B7010208B7010208B701020888
:1000700019030208B701020825030208B7010208A4
:10008000B7010208B7010208B7010208B701020868
:10009000B7010208B7010208B7010208B701020858
:1000A000B7010208B7010208B7010208B701020848
:1000B000B7010208B7010208B7010208B701020838
:1000C000B7010208B7010208B7010208B701020828
:1000D000B7010208011D0208B70102080D1D020840
:1000E000B7010208B7010208B7010208B701020808
:1000F000B7010208B7010208B7010208B7010208F8
:10010000B7010208B7010208B7010208B7010208E7
:10011000B7010208B7010208B7010208B7010208D7
:10012000B7010208B7010208B7010208B7010208C7
:10013000B7010208B7010208B7010208B7010208B7
:10014000B7010208B7010208B7010208B7010208A7
:10015000B7010208B7010208B7010208B701020897
:10016000B7010208B7010208B7010208B701020887
:10017000B7010208B7010208B70102080000000039
:10018000B7010208B7010208DFF80CD000F0B0F8A0
:100190000048004711210208D00A00200648804785
:1001A00006480047FEE7FEE7FEE7FEE7FEE7FEE75C
:1001B000FEE7FEE7FEE7FEE7B9180208890102083C
:1001C0002DE9F05F0546002092469B46884606468C
:1001D000814640241BE0284641464746224600F01F
:1001E00076F853465A46C01A914110D31146184624
:1001F000224600F05DF82D1A67EB01084F462246B3
:100200000120002100F054F817EB00094E41201E98
:10021000A4F10104DFDC484631462A464346BDE8E6
:10022000F09F40EA01039B0703D009E008C9121FB1
:1002300008C0042AFAD203E011F8013B00F8013BA0
:10024000521EF9D27047D2B201E000F8012B491ECC
:10025000FBD270470022F6E710B513460A46044663
:100260001946FFF7F0FF204610BD30B504460020C8
:10027000034600E05B1C934203D2E05CCD5C401B74
:10028000F8D030BD30B50B460146002020220124B5
:1002900009E021FA02F59D4205D303FA02F5491B54
:1002A00004FA02F52844151EA2F10102F1DC30BD6A
:1002B000202A04DB203A00FA02F100207047914026
:1002C000C2F1200320FA03F3194390407047202A1B
:1002D00004DB203A21FA02F00021704721FA02F3F0
:1002E000D040C2F1200291400843194670470000F7
:1002F000064C074D06E0E06840F0010394E8070073
:1003000098471034AC42F6D3FFF742FFB4230208FB
:10031000D4230208FEE70000014800F087B900007E
:100320007C020020014800F081B90000DC020020BE
:1003300001681823CAB2103AB2FBF3F2054B6FF30F
:100340000901032A9B5CC36500D9091D8165084624
:10035000704700009423020810B5014600208B6905
:100360008A6A4FF0C07453B1B3F5005F15D072B113
:10037000012A0CD0022A0AD0032A09D104E01AB1BA
:10038000012A06D0022A03D1C96AC90100D5012079
:1003900010BDC96AA142FAD010BD002AF7D0012AC7
:1003A000F2D0022AF3D0032AF3D010BD30B504688E
:1003B000256825F480252560046863608368402BE8
:1003C000036803D099600068C26030BD9A6000681D
:1003D000C16030BD10B506A1084801F0BFFC82B273
:1003E000BDE810404FF6FF730449054801F044B9D9
:1003F00041542B454E544D0D0A00000004040020CA
:100400003802002070B50A4C4FF6FF7509A10A4862
:1004100001F0A4FC82B22B460749084801F02CF9F0
:10042000642000F075FA20780028EFD070BD00003D
:10043000200000202B2B2B00040400203802002079
:1004400070B505464FF6FF74012907D0052942D142
:10045000062221A1FFF709FFF0B129E0012220A126
:10046000FFF703FF002836D11E49012008701EA1A6
:10047000274801F073FC82B223462549254801F044
:10048000FBF8234816A1C83001F068FC204982B26D
:100490002346C83120481AE020A11D4801F05EFC27
:1004A00082B223461A491B4801F0E6F8FFF792FF93
:1004B000052227A12846FFF7D8FE00280BD126A148
:1004C000134801F04BFC82B2114912482346BDE8A3
:1004D000704001F0D1B870BD2B6F6B0D0A000000A9
:1004E000610000002000002045786974207472616A
:1004F0006E73706172656E74207472616E736D6973
:100500007373696F6E206D6F64650D0A00000000E3
:100510003C030020F401002038020020456E746581
:100520007220636F6D6D616E64206D6F6465207401
:100530006F20736574207570207468652072656D16
:100540006F7465207365727665720D0A0000000095
:100550004F4B0D0A000000004578697420696E73E6
:100560007472756374696F6E206D6F64650D0A0037
:10057000704772B6FEE72DE9F0410446876D00F042
:10058000D1FA064694F835000025022806D08020CE
:10059000606584F834500120BDE8F081206801686E
:1005A00021F0160101602068416921F0800141615C
:1005B000206C08B9A06C20B12068016821F0080106
:1005C00001602068016821F0010101600CE000F089
:1005D000A9FA801B052807D920206065032084F82C
:1005E000350084F83450D7E720680068C007EED1A2
:1005F00094F85C103F208840B860012084F83500F2
:1006000084F834500020C7E790F83510022903D051
:100610008021416501207047052180F83510006870
:10062000016821F001010160002070472DE9F843C5
:1006300004464FF00009CDF8009063484FF416517E
:10064000A56D0068B0FBF1F72E6894F85C100820E7
:1006500000FA01F131420FD021680A6852070BD528
:100660000A6822F004020A6094F85C108840A860CE
:10067000606D40F00100606594F85C104FF0010877
:1006800008FA01F0304208D021684969090604D50A
:10069000A860606D40F00200606594F85C10042072
:1006A0008840304208D021680968890704D5A860CD
:1006B000606D40F00400606594F85C101020884084
:1006C000304218D021680968090714D5A86020684D
:1006D0000168490304D50068000308D5A16C07E050
:1006E0000168C90503D4016821F008010160216C8B
:1006F00009B12046884794F85C1020208840304299
:1007000031D021680968C9062DD5A86094F8350054
:1007100005282068016806D0490347D50068000312
:100720001DD4616C1CE021F0160101602068416954
:1007300021F080014161206C08B9A06C20B12068D3
:10074000016821F00801016094F85C103F208840A6
:10075000A86084F8358084F83490216D1FE0E16B47
:1007600009B120468847606D00282BD0606DC00716
:1007700014D0052084F835002068016821F00101BB
:1007800001600098401C0090B84203D820680068BF
:10079000C007F6D184F8358084F83490E16C0029E4
:1007A00010D001B02046BDE8F04308470168C905F4
:1007B000D5D4016821F01001016084F8358084F8F7
:1007C0003490CCE7BDE8F883100000202DE9F0411B
:1007D000044600F0A7F906465CB1022084F8350013
:1007E000002584F834502068016821F0010101607F
:1007F0000DE00120BDE8F08100F094F9801B052890
:1008000005D920206065032084F83500F2E72068D0
:100810000068C007F0D12268116820480140D4E97F
:1008200001031843D4E9033633431843636918437B
:10083000A3691843E3691843236A18430843616AAC
:10084000042903D1D4E90B1319430843106020682D
:100850004069666A20F0070130460E4301270428EC
:100860000CD1A06A0643E06A40B12046FFF774FD50
:1008700020B14020606584F83570BAE72068466191
:100880002046FFF755FD94F85C203F2191408160A0
:10089000656584F835700020ACE700003F8010F0FB
:1008A0002DE9F0410446866D90F8340000250128BA
:1008B0000DD0012084F8340094F835700020012F09
:1008C00007D084F8340002252846BDE8F0810220D4
:1008D000FBE7022784F8357060652046FFF766FD68
:1008E00094F85C103F208840B0602068016841F0B7
:1008F00016010160206C20B12068016841F00801F8
:1009000001602068016841F001010160DCE700003E
:1009100070B5044600F006F90546601C02D0044894
:100920000078044400F0FEF8401BA042FAD370BDEA
:10093000040000202DE9F84FDFF8BCA100220125BA
:1009400003264FF00F090AF1040BAAF1040E00BFB1
:100950000B6805FA02F42340A34270D10F7907F027
:100960000307012F01D0022F16D187684FEA4208F2
:1009700006FA08FC27EA0C07D1F80CC00CFA08FCB0
:100980004CEA070CC0F808C04768A7430C79C4F3C9
:10099000001494403C4344600C79E443A4070AD01B
:1009A000C4684FEA420C06FA0CF7BC438F6807FA9A
:1009B0000CF72743C7600C7904F00304022C12D112
:1009C000D40800EB840CDCF820405707FF0E09FA2E
:1009D00007F824EA0804D1F8108008FA07F848EA72
:1009E0000408CCF8208004684FEA420C06FA0CF7A1
:1009F000BC430F7907F0030707FA0CF7274307609A
:100A00004C6814F4403F70D03C4C276847F4804752
:100A10002760246822F0030704F480440094384CD3
:100A200007EB040CDCF8084897074FEA177809FA37
:100A300008F7BC43334FB84202D1002724E054E00A
:100A4000314FB84201D101271EE0304FB84201D1E9
:100A5000022719E02E4FB84201D1032714E02D4F91
:100A6000B84201D104270FE02B4FB84201D105272E
:100A70000AE02A4FB84201D1062705E0284FB842C4
:100A800001D1072700E0082707FA08F72743CCF829
:100A90000878DAF800405746D1F804C09C435FEA72
:100AA000CC2C00D51C433C60DBF800405F46D1F8FD
:100AB00004C09C435FEA8C2C00D51C433C60DEF8EC
:100AC00000407746D1F804C09C435FEA8C3C00D5D7
:100AD0001C433C60084F083F3C68D1F804C09C436D
:100AE0005FEACC3C00D51C433C60521C102AFFF44A
:100AF0002FAFBDE8F88F0000083C014044380240A9
:100B000000300140000002400004024000080240A2
:100B1000000C024000100240001402400018024085
:100B2000001C02400148806870470000040000205B
:100B300002488168027811448160704704000020F7
:100B40000B4810B5016841F400710160016841F47F
:100B500080610160016841F480710160032000F050
:100B60006FF80F2000F006F800F024F8002010BD08
:100B7000003C024070B50D4D04464FF47A71287860
:100B8000B1FBF0F00A490968B1FBF0F000F00CFB92
:100B900048B9102C07D200222146501E00F030F830
:100BA00000206C6070BD012070BD000004000020BA
:100BB000100000200A4808B5016841F48041016036
:100BC000006800F4804000900548001F016841F073
:100BD00080510160006800F08050009008BD000066
:100BE00044380240002809DB00F01F020121914037
:100BF0004009800000F1E020C0F8001170470000BB
:100C0000F0B40E4B1B680C46C3F30223C3F1070577
:100C1000042D00D90425191D072901D2002300E065
:100C2000DB1E012606FA05F1491E214099409E402F
:100C3000761E16403143F0BC01F0A4B80CED00E084
:100C4000064900F0070208684FF6FF03184040EA23
:100C50000220034A10430860704700000CED00E0DA
:100C60000000FA052DE9F0470E46050065D0DFF8D3
:100C70001481D8F80000F7B200F00700B04207D2A4
:100C800088F80070D8F8000000F00700B04254D196
:100C900028683D4C810712D5400703D5206840F4F1
:100CA000E05020602878000703D5206840F46040B9
:100CB00020602068A96820F0F000084320602878B0
:100CC000C0072DD0304968680839012812D00228A1
:100CD00013D0032811D00968890700292DDA21686B
:100CE00021F0030101432160FFF71CFF814641F21F
:100CF000883A0EE009688903EFE709688901ECE7A3
:100D0000FFF710FFA0EB0901514502D90320BDE810
:100D1000F0872068696800F00C00B0EB810FEFD11C
:100D2000D8F80010404601F00701B14207D907701A
:100D3000006800F00700B04201D00120E7E7287802
:100D4000400705D52068E96820F4E050084320609A
:100D50002878000706D52068296920F4604040EA19
:100D6000C100206000F038F82168084AC1F303117F
:100D7000515CC8400649086006480068FFF7FAFE63
:100D80000020C4E7003C0240083802409C230208CF
:100D90001000002008000020044805490068096888
:100DA000044AC1F38221515CC84070471000002002
:100DB00008380240AC230208044805490068096865
:100DC000044AC1F34231515CC84070471000002012
:100DD00008380240AC230208154810B5006810F02E
:100DE0000C02144813D01449042A0FD0082A0ED13B
:100DF0000F4C241F2268236802F03F025B0207D5D4
:100E00002068C0F38810A0FB010106E0084610BD71
:100E10002168C1F38811A1FB00010023FFF7D0F97D
:100E20002168C1F30141491C4900B0FBF1F010BD3C
:100E3000083802400024F40040787D012DE9F84F85
:100E400004006ED02078DFF84C93C007A9F10405A8
:100E50004AD009F104000168C1F38101012908D0D9
:100E60000068C0F3810002280AD1D9F800004002CE
:100E700006D52868800337D560680028E1D033E0C4
:100E80006068B0F5803F10D0B0F5A02F286810D072
:100E900020F480302860286820F480202860606872
:100EA000A8B1FFF73FFE06460DE0286840F4803009
:100EB000F4E740F480202860F7E700BFFFF732FE38
:100EC000801B642873D828688003F7D50CE0FFF7EF
:100ED00029FE064605E000BFFFF724FE801B6428BC
:100EE000F0D828688003F7D42078DFF8AC82800738
:100EF0004FF0000A3ED5A748001D016811F00C0F05
:100F000008D00068C0F3810002280BD1D9F8000096
:100F1000400207D42868800716D5E068012800D170
:100F200012E033E1E068B8B10120C8F80000FFF733
:100F3000F9FD064605E000BFFFF7F4FD801B02281F
:100F4000C0D828688007F7D52868216920F0F80004
:100F500040EAC10028600DE0C8F800A0FFF7E2FDFC
:100F6000064604E0FFF7DEFD801B02281FD8286834
:100F70008007F7D42078000722D5864F874861691B
:100F8000703771B101210160FFF7CCFD064604E026
:100F9000FFF7C8FD801B022809D838688007F7D5FD
:100FA0000EE0C0F800A0FFF7BDFD064605E082E0B8
:100FB000FFF7B8FD801B02287DD838688007F7D47A
:100FC0002078400768D5DFF8CCB100270BF13C0B47
:100FD000DBF80000C0000BD4DBF8001041F08051BA
:100FE000CBF80010DBF80000012700F080500090E3
:100FF0006B4E3068C00510D4306840F480703060AB
:10100000FFF790FD009005E0FFF78CFD0099401A76
:10101000022850D83068C005F6D55E4EA0686C3600
:1010200001280FD00528306810D020F00100306072
:10103000306820F004003060A068B8B1FFF772FD9E
:1010400000900FE0306840F00100F4E740F0040049
:101050003060F7E7FFF766FD0099411A41F28830EA
:10106000814266D830688007F4D50EE0FFF75AFD5C
:10107000009007E0FFF756FD0099411A41F28830D1
:10108000814256D830688007F4D42FB1DBF80010C5
:1010900021F08051CBF80010A069C8B33D49091D6B
:1010A0000968C1F3810102294AD00228504607D0BD
:1010B000C8F8600000E03CE0FFF734FD04463BE088
:1010C0004746C8F86000FFF72DFD064605E000BF63
:1010D000FFF728FD801B02282BD828688001F7D451
:1010E000D4E907010843A16A2E4A490802EB0141ED
:1010F000626A41EA8211084394F82C1040EA0161C7
:10110000C9F8001001203866FFF70CFD044606E020
:101110003EE000BFFFF706FD001B022809D8286843
:101120008001F7D534E000BFFFF7FCFC001B02286C
:1011300002D90320BDE8F88F28688001F4D427E0A5
:101140000128F7D0D9F80000E26900F4800191424B
:101150001CD1226A00F03F01914217D147F6C071BD
:10116000626A0140B1EB821F10D1A26A4FF0FF33D7
:1011700000F4403103EB5202B1EB024F06D194F878
:101180002C1000F07060B0EB016F01D00120D1E7AE
:101190000020CFE70438024000004742800E47425B
:1011A000007000400000FFFF10B5401EB0F1807FCE
:1011B00001D3012010BD4FF0E02460610F216017C2
:1011C00000F0E0FD0020A06107202061002010BD9C
:1011D000704710B504460068406994F83D10C0F3AC
:1011E000C010212911D180B12068143050E8001FAF
:1011F00021F0800140E80012002AF5D1606B08B1AF
:10120000FFF7B9F9204600F001FC2068406994F826
:101210003E10C0F38010222911D180B12068143013
:1012200050E8001F21F0400140E80012002AF5D1EB
:10123000A06B08B1FFF79FF9204600F0C0FB00202B
:1012400010BD7047F8B5016804460868CA684B6964
:1012500010F00F0F4FF0000559D003F0010602F413
:101260009077374365D0C10705D0D10503D5216CF0
:1012700041F001012164410705D5D90703D0216C54
:1012800041F002012164810705D5D90703D0216C03
:1012900041F004012164010707D502F02001314328
:1012A00003D0216C41F008012164216C00293AD05F
:1012B000800604D5900602D5204600F0B5FB2068D4
:1012C0004069216CC0F38010090700D460B3204648
:1012D00000F075FB20684069400621D52068143075
:1012E00050E8001F21F0400140E80012002AF5D12B
:1012F000A06BA8B16C490165A06BFFF785F90028C8
:1013000011D0A06B016D01B0BDE8F0400847830625
:101310000FD593060DD52046BDE8F84000F084BBFC
:101320002046FFF78EFFF8BD2046FFF78AFF2564B1
:10133000F8BD266B2023012E79D1C60677D5D606B7
:1013400075D50868486800904869400640D5A16B8B
:10135000086840680004000CEAD0A28D8242E7D9F8
:10136000E085C869B0F5807F2DD020680C3050E84A
:10137000001F21F4807140E80012002AF5D1206896
:10138000143050E8001F21F0010140E80012002A4B
:10139000F5D12068143050E8001F21F0400140E8EA
:1013A0000012002AF5D184F83E30256320680C3005
:1013B00050E8001F21F0100140E80012002AF5D18A
:1013C000A06BFFF7D8F8A08DE18D401A81B229E01B
:1013D000A08DE18D401A81B2E08D0028A8D00029AF
:1013E000A6D020680C3050E8002F22F4907240E81C
:1013F0000026002EF5D12068143050E8002F22F08E
:10140000010240E80026002EF5D184F83E30256325
:1014100020680C3050E8002F22F0100240E8002332
:10142000002BF5D12046FFF7D3FEF8BDFFE70506F8
:101430002BD5150629D594F83D002128F5D1A068B3
:10144000B0F5805F01D12069B0B1206A411C2162F2
:10145000216800784860E08C401E0004000CE084A5
:10146000E3D12068C16821F08001C1602068C168B3
:1014700041F04001C160D8E7206A0088C0F308004D
:101480004860206A801C2062E5E74006CDD5500602
:10149000CBD5CA68204622F04002CA6084F83D30AD
:1014A00000F043F9C1E70000C918020870B5040054
:1014B00004D094F83D00002510B106E0012070BD75
:1014C00084F83C50204600F023F8242084F83D00A6
:1014D0002068C16821F40051C160204600F004FB7F
:1014E0002068016921F4904101612068416921F07F
:1014F0002A0141612068C16841F40051C16025643E
:10150000202084F83D0084F83E00002070BD0000DB
:101510002DE9F04186B0064614216846FEF79AFE92
:10152000424F316842480222032307250024B94272
:1015300021D13F4914310E6846F010060E6009684B
:1015400001F010010591016841F00101016000689E
:10155000694600F00100059058028DE81500CDE9BC
:1015600003353448FFF7E6F9002211462520FFF73E
:1015700047FB252054E0304FB94253D12C4910315C
:101580000F6847F480270F60096801F480210591F6
:10159000016841F0020101600068694600F0020044
:1015A00005904FF440608DE81500CDE903352348E0
:1015B000FFF7C0F9234D22484FF000672860C5E9C6
:1015C00001744FF48068C5E903486C61AC61EC615B
:1015D0002C6228466C62FFF7F9F808B1FEF7C9FFE4
:1015E000B563AE63174D164860353030E5E8020745
:1015F0004020A5E81101134845F814496030AC615A
:10160000EC612C626C62FFF7E1F808B1FEF7B1FF04
:101610007563002211462720AE63FFF7F1FA2720F9
:10162000FFF7E0FA06B0BDE8F081000000100140CD
:1016300030380240000002400048004000040240F0
:10164000286002407C02002090F83E30202B0ED112
:1016500059B152B190F83C30012B08D0012380F8E9
:101660003C300023036300F0C5BA0120704702201C
:1016700070477047704700002DE9F843044690F822
:101680003D001F4616460D4620284CD1C5B1BEB1BF
:1016900094F83C00012846D0012084F83C004FF02B
:1016A0000008C4F84080212084F83D00FFF73AFA92
:1016B000A6848146E684A068B0F5805F03D004E08C
:1016C0000120BDE8F883206928B12E465FF00005AF
:1016D00084F83C800EE00026FAE78021204600F0E6
:1016E000D3FAA0B9AEB116F8010B21684860E08CBE
:1016F000401EE084E08C4B464FF00002009700282B
:10170000EBD14FF04001204600F0BEFA30B103208B
:10171000D7E735F8020BC0F30800E6E7202084F88D
:101720003D000020CDE70220CBE77047FEE7000038
:101730000D4808B5016841F40011016000680022FD
:1017400000F40010009011460C20FFF759FA0C200D
:10175000FFF748FA002211460E20FFF751FABDE8C4
:1017600008400E20FFF73EBA303802400D4808B559
:10177000016841F080010160016801F08001009181
:10178000016841F002010160016801F0020100916D
:10179000016841F001010160006800F00100009063
:1017A00008BD0000303802400C4810B50A490160FD
:1017B0004FF4E1314160002181600C22C160C0E939
:1017C00004128161C161FFF771FE002803D0BDE8FA
:1017D0001040FEF7CEBE10BD00100140F401002005
:1017E0000C4810B50A4901604FF4E1314160002115
:1017F00081600C22C160C0E904128161C161FFF700
:1018000055FE002803D0BDE81040FEF7B2BE10BD63
:101810000048004038020020FEE7FEE770477047AE
:10182000FFF786B930B593B030216846FEF712FD58
:1018300014210CA8FEF70EFD1D480025016841F09B
:1018400080510160006800F08050119019480168D3
:1018500041F4804101600068022400F4804011904E
:101860000120039010200490009406940820CDE9F4
:101870000750A820CDE9090404200B906846FFF723
:10188000DDFA08B172B6FEE70CA90F2081E831003D
:101890004FF4A0500F904FF48050109005210CA8E9
:1018A000FFF7E0F9002801D072B6FEE713B030BDB3
:1018B00040380240007000400248016841F4700165
:1018C0000160704788ED00E010B5806B0021C18594
:1018D000C184FFF7B6FC10BD70B5846B2068406909
:1018E00094F83D10C0F3C0100025212904D118B18F
:1018F000E584204600F08AF82068406994F83E109C
:10190000C0F38010222904D118B1E585204600F0EB
:1019100056F8206C40F0100020642046FFF791FC40
:1019200070BD10B50146806B09680968C9052FD4E0
:101930000021C18501680C3151E8002F22F480722A
:1019400041E80023002BF5D10168143151E8002F44
:1019500022F0010241E80023002BF5D10168143187
:1019600051E8002F22F0400241E80023002BF5D17E
:10197000202180F83E10016B012909D101680C314A
:1019800051E8002F22F0100241E80023002BF5D18E
:10199000016B012902D0FFF76CFE10BD818DFFF7AE
:1019A00017FC10BD10B5806B016B012902D0FFF749
:1019B00061FE10BD818D4908FFF70AFC10BD01686A
:1019C0000C3151E8002F22F4907241E80023002BE3
:1019D000F5D10168143151E8002F22F0010241E8ED
:1019E0000023002BF5D1016B012909D101680C31CD
:1019F00051E8002F22F0100241E80023002BF5D11E
:101A0000202180F83E1000210163704701680C31ED
:101A100051E8002F22F0C00241E80023002BF5D14D
:101A2000202180F83D10704708B590F83E1022291B
:101A300001D0022008BD82684FF480539A4201D140
:101A4000016921B1816A9A421BD04AB10AE0026859
:101A5000816A5268C2F308020A80816A891C08E020
:101A6000026972B10268526802F07F020A70816AEC
:101A7000491C8162C18D491E0904090CC18503D02E
:101A800019E002685268F1E70168CA6822F0200292
:101A9000CA600168CA6822F48072CA6001684A6933
:101AA00022F001024A61202180F83E10016B0129D9
:101AB00003D0FFF7DEFD002008BD002101630168AF
:101AC0000C3151E8002F22F0100241E80023002BD6
:101AD000F5D101680A68D20602D50A684968009102
:101AE000818DFFF775FBE6E770B504460068016974
:101AF000E26821F44051114301612169A068E26963
:101B000008436169114308432168CA6849F20C63BC
:101B10009A430243CA6020684169A26921F4407176
:101B20001143416131492068884202D030498842DE
:101B300002D1FFF741F901E0FFF72EF9E269002336
:101B4000192164253226B2F5004F626828D0A0FB27
:101B50000101930F9200FEF733FB0146B0FBF5F055
:101B60006FF01802504301EB800006EB0010B0FB51
:101B7000F5F000F0F002B1FBF5F002EB0012B1FB62
:101B8000F5F06FF01803584301EB800006EB0010EE
:101B9000B0FBF5F000F00F0021681044886070BDC4
:101BA000A0FB010192185B41FEF70AFB0146B0FB66
:101BB000F5F00201B1FBF5F06FF01803584301EBAB
:101BC000800006EBC000B0FBF5F000F0F80002EB7F
:101BD0004002B1FBF5F0584301EB800006EBC0007A
:101BE000B0FBF5F000F00700D6E700000010014060
:101BF0000014014038B581628285002513460446F1
:101C00000564222084F83E00A26B1C48D063A26BBE
:101C10001B481064A26B1B48D064A06B0A46056584
:101C20002168A06B091DFEF73BFE20680168406833
:101C3000009084F83C50206948B120680C3050E88E
:101C4000001F41F4807140E80012002AF5D120689D
:101C5000143050E8001F41F0010140E80012002A52
:101C6000F5D12068143050E8001F41F0400140E8F1
:101C70000012002AF5D1002038BD00002319020807
:101C8000A5190208D91802082DE9F041984617460F
:101C90000E460446069D27E0681C25D02DB1FEF7B0
:101CA00041FFA0EB0800A8421ED920680C3050E884
:101CB000001F21F4D07140E80012002AF5D12068FD
:101CC000143050E8001F21F0010140E80012002A02
:101CD000F5D1202084F83D0084F83E00002084F8EF
:101CE0003C000320BDE8F0812068006836EA00006F
:101CF00004D00020B842CFD00020F3E70120F9E75C
:101D00000148FFF79FBA0000F40100200F4808B512
:101D100000680168C943C90612D401684068009090
:101D20000A48FFF756FA0B4909480968428849688A
:101D3000511A01800121017241680448FFF784FCB7
:101D4000BDE808400148FFF77DBA000038020020D6
:101D5000140000207C020020FEE700000FB4084BB6
:101D600010B504A902AA039800F02CF8044602A9B1
:101D7000002000F0C8F9204610BC5DF814FB0000FC
:101D8000072102080907090E002804DB00F1E02002
:101D900080F80014704700F00F0000F1E02080F898
:101DA000141D704702E008C8121F08C1002AFAD1AA
:101DB00070477047002001E001C1121F002AFBD1CB
:101DC000704700002DE9FF4F8BB08846054600267E
:101DD00006E025280BD0DDE90D1290476D1C761C1E
:101DE00028780028F5D10FB03046BDE8F08F0024E8
:101DF000A146A2460122AE4900E0044315F8013F86
:101E0000203B02FA03F00842F7D128782A2810D0A4
:101E10006FF02F022878A0F13001092915D809EBBD
:101E2000890102EB410144F0020400EB01096D1C41
:101E3000F0E758F8041B5FEA010903D544F40054A5
:101E4000C9F1000944F002046D1C28782E2817D12E
:101E500015F8010F44F004042A280ED06FF02F0269
:101E60002878A0F1300109290AD80AEB8A0102EB8F
:101E7000410100EB010A6D1CF2E758F804AB6D1C40
:101E800028786C280FD006DC4C2817D068280DD095
:101E90006A2814D104E0742810D07A280FD10DE0FC
:101EA00044F400140AE044F4801401E044F44014C3
:101EB0006978814202D104F580146D1C6D1C28786C
:101EC000692865D006DC00288DD0632827D06428D7
:101ED00006D15DE06E2808D073282AD0752877D007
:101EE000DDE90D129047761CE0E0C4F302500228B1
:101EF00009D003280DD0D8F8001004280DD00E60AA
:101F000008F10408D2E0D8F80010F217C1E9006225
:101F1000F6E7D8F800100E80F2E70E70F0E718F838
:101F2000041B8DF8001000208DF80100EB46012005
:101F300003E058F804BB4FF0FF3061074FF0000793
:101F400001D40AE07F1C57450DDA8742FADB1BF803
:101F500007100029F6D106E07F1C8742FCDB1BF846
:101F600007100029F8D1DDE90D23A9EB0700814610
:101F7000214600F0B1F83044C61904E0DDE90D1245
:101F80001BF8010B90477F1EF8D22146484688E097
:101F900058F8040BC4F302514FF00A0B032900D187
:101FA00000B2042900D140B2002802DA40422D21BB
:101FB00002E0210505D52B218DF82410012104E034
:101FC00006E0E10710D02021F6E708AF089113E002
:101FD00058F8040BC4F302514FF00A0B032900D147
:101FE00080B2042900D1C0B20021EEE75946FEF7C5
:101FF00049F9303107F8011D0028F7D1ADEB070092
:1020000000F1200B600702D524F4803401E04FF08A
:10201000010ADA4502DDAAEB0B0000E0002082464F
:1020200000EB0B0108980144A9EB01000A90E003C2
:1020300006D4DDE90D2321460A9800F04DF8064448
:102040004FF0000908E009A911F80900DDE90D12B7
:10205000904709F10109761C08998945F3DBE003F3
:102060000CD5DDE90D2321460A9800F035F8064429
:1020700004E0DDE90D1230209047761CBAF1000132
:10208000AAF1010AF5DC05E0DDE90D1217F8010BF4
:102090009047761CBBF10001ABF1010BF4DC0A9810
:1020A0002146DDE90D2300F005F806446D1C97E696
:1020B000092801002DE9F041044600251E46174677
:1020C000880404D405E039462020B0476D1C641E06
:1020D000F9D52846BDE8F0812DE9F04104460025F8
:1020E0001E469046C80301D5302700E0202788040B
:1020F00004D505E041463846B0476D1C641EF9D54D
:102100002846BDE8F0810A68531C0B6010707047C8
:1021100049484A49086062B6FEF712FDFFF782FBA4
:10212000FFF724FBFFF704FBFFF73EFBFFF758FB2D
:10213000434C608800F0F8F86060014662884148CE
:10214000FFF782FA3F480068C16841F01001C160A2
:102150003DA13E48FFF702FE82B24FF6FF763346BE
:102160003A493B48FFF788FA3AA13848FFF7F6FDAD
:1021700082B2334635493648FFF77EFA3FA13348ED
:10218000FFF7ECFD82B2334630493148FFF774FA6D
:1021900044A12E48FFF7E2FD82B233462B492C487A
:1021A000FFF76AFA49A12948FFF7D8FD82B2334602
:1021B00026492748FFF760FA4EA12448FFF7CEFDD5
:1021C00082B2334621492248FFF756FA2BA11F4815
:1021D000FFF7C4FD82B233461C491D48FFF74CFA95
:1021E0001CA11A48FFF7BAFD82B2334617491848B6
:1021F000FFF742FAFEF706F9484D0027207A00283B
:10220000FCD0277211482288C8306168FEF709F8AF
:1022100020880E4A2880C83241A10C48FFF79EFD55
:1022200082B2334609490A48FFF726FA0748298847
:10223000C830FEF705F9E1E70000020808ED00E00C
:1022400014000020380200200D0A00002C0000209D
:10225000F40100202A2A2A2A2A2A2A2A2A2A2A2A71
:102260002A2A2A2A2A2A2A2A2A2A2A2A2A2A2A2ACE
:102270002A2A2A2A2A2A2A0D0A0000002A20202097
:10228000202020202020202020202020202020204E
:1022900020202020202020202020202020202A0D47
:1022A0000A0000002A202020202020422D426F6FAB
:1022B000742D46342773204170706C6963617469B2
:1022C0006F6E202020202A0D0A0000002A202020E6
:1022D00020202020202020466F7220746865207402
:1022E00065737420202020202020202020202A0D0B
:1022F0000A0000002A2020202020202020205665CF
:102300007273696F6E203A2020302E3120202020F9
:102310002020202020202A0D0A000000000000209C
:1023200025730D0A00000000F0B50B30154D20F0AC
:1023300007010024144A0FE003688B420BD38B4241
:1023400005D95E1A43184768C3E9006700E043688F
:10235000136002C004E0021D10680028ECD1204682
:10236000002802D1286808B10020F0BD064A0748BD
:102370001060074A121A22F00702C0E90024012067
:102380002860D7E72800002024000020D404002083
:10239000D0060020000610160006101600000000EF
:1023A0000000000001020304060708090000000005
:1023B00001020304D4230208000000202C000000C6
:1023C000A41D0208002402082C000020A40A00001A
:1023D000B41D020800000000010000001000000011
:1023E000000000000024F4000000000100000000D4
:1023F00000000000000000000000000000000000DD
:040000050802018963
:00000001FF
